{
	"contracts/GameSystem.sol": {
		"QuestManager": {
			"abi": [
				{
					"inputs": [],
					"stateMutability": "nonpayable",
					"type": "constructor"
				},
				{
					"inputs": [
						{
							"internalType": "address",
							"name": "",
							"type": "address"
						},
						{
							"internalType": "uint256",
							"name": "",
							"type": "uint256"
						}
					],
					"name": "activeQuests",
					"outputs": [
						{
							"internalType": "bool",
							"name": "",
							"type": "bool"
						}
					],
					"stateMutability": "view",
					"type": "function"
				},
				{
					"inputs": [
						{
							"internalType": "uint256",
							"name": "questId",
							"type": "uint256"
						}
					],
					"name": "completeQuest",
					"outputs": [],
					"stateMutability": "nonpayable",
					"type": "function"
				},
				{
					"inputs": [
						{
							"internalType": "uint256",
							"name": "questId",
							"type": "uint256"
						}
					],
					"name": "getReward",
					"outputs": [
						{
							"internalType": "uint256",
							"name": "",
							"type": "uint256"
						}
					],
					"stateMutability": "view",
					"type": "function"
				},
				{
					"inputs": [
						{
							"internalType": "address",
							"name": "",
							"type": "address"
						}
					],
					"name": "players",
					"outputs": [
						{
							"internalType": "uint256",
							"name": "level",
							"type": "uint256"
						},
						{
							"internalType": "uint256",
							"name": "experience",
							"type": "uint256"
						},
						{
							"internalType": "uint256",
							"name": "gold",
							"type": "uint256"
						}
					],
					"stateMutability": "view",
					"type": "function"
				},
				{
					"inputs": [
						{
							"internalType": "uint256",
							"name": "",
							"type": "uint256"
						}
					],
					"name": "quests",
					"outputs": [
						{
							"internalType": "uint256",
							"name": "reward",
							"type": "uint256"
						},
						{
							"internalType": "uint256",
							"name": "requiredLevel",
							"type": "uint256"
						},
						{
							"internalType": "bool",
							"name": "exists",
							"type": "bool"
						}
					],
					"stateMutability": "view",
					"type": "function"
				},
				{
					"inputs": [],
					"name": "registerPlayer",
					"outputs": [],
					"stateMutability": "nonpayable",
					"type": "function"
				},
				{
					"inputs": [
						{
							"internalType": "uint256",
							"name": "questId",
							"type": "uint256"
						}
					],
					"name": "startQuest",
					"outputs": [],
					"stateMutability": "nonpayable",
					"type": "function"
				}
			],
			"devdoc": {
				"kind": "dev",
				"methods": {},
				"version": 1
			},
			"evm": {
				"assembly": "    /* \"contracts/GameSystem.sol\":278:1860  contract QuestManager is IQuest {... */\n  mstore(0x40, 0x80)\n    /* \"contracts/GameSystem.sol\":700:808  constructor() {... */\n  callvalue\n  dup1\n  iszero\n  tag_1\n  jumpi\n  revert(0x00, 0x00)\ntag_1:\n  pop\n    /* \"contracts/GameSystem.sol\":739:758  Quest(100, 1, true) */\n  mload(0x40)\n  dup1\n  0x60\n  add\n  0x40\n  mstore\n  dup1\n    /* \"contracts/GameSystem.sol\":745:748  100 */\n  0x64\n    /* \"contracts/GameSystem.sol\":739:758  Quest(100, 1, true) */\n  dup2\n  mstore\n  0x20\n  add\n    /* \"contracts/GameSystem.sol\":750:751  1 */\n  0x01\n    /* \"contracts/GameSystem.sol\":739:758  Quest(100, 1, true) */\n  dup2\n  mstore\n  0x20\n  add\n    /* \"contracts/GameSystem.sol\":753:757  true */\n  0x01\n    /* \"contracts/GameSystem.sol\":739:758  Quest(100, 1, true) */\n  iszero\n  iszero\n  dup2\n  mstore\n  pop\n    /* \"contracts/GameSystem.sol\":727:733  quests */\n  0x00\n    /* \"contracts/GameSystem.sol\":727:736  quests[1] */\n  0x00\n    /* \"contracts/GameSystem.sol\":734:735  1 */\n  0x01\n    /* \"contracts/GameSystem.sol\":727:736  quests[1] */\n  dup2\n  mstore\n  0x20\n  add\n  swap1\n  dup2\n  mstore\n  0x20\n  add\n  0x00\n  keccak256\n    /* \"contracts/GameSystem.sol\":727:758  quests[1] = Quest(100, 1, true) */\n  0x00\n  dup3\n  add\n  mload\n  dup2\n  0x00\n  add\n  sstore\n  0x20\n  dup3\n  add\n  mload\n  dup2\n  0x01\n  add\n  sstore\n  0x40\n  dup3\n  add\n  mload\n  dup2\n  0x02\n  add\n  exp(0x0100, 0x00)\n  dup2\n  sload\n  dup2\n  0xff\n  mul\n  not\n  and\n  swap1\n  dup4\n  iszero\n  iszero\n  mul\n  or\n  swap1\n  sstore\n  pop\n  swap1\n  pop\n  pop\n    /* \"contracts/GameSystem.sol\":781:800  Quest(300, 2, true) */\n  mload(0x40)\n  dup1\n  0x60\n  add\n  0x40\n  mstore\n  dup1\n    /* \"contracts/GameSystem.sol\":787:790  300 */\n  0x012c\n    /* \"contracts/GameSystem.sol\":781:800  Quest(300, 2, true) */\n  dup2\n  mstore\n  0x20\n  add\n    /* \"contracts/GameSystem.sol\":792:793  2 */\n  0x02\n    /* \"contracts/GameSystem.sol\":781:800  Quest(300, 2, true) */\n  dup2\n  mstore\n  0x20\n  add\n    /* \"contracts/GameSystem.sol\":795:799  true */\n  0x01\n    /* \"contracts/GameSystem.sol\":781:800  Quest(300, 2, true) */\n  iszero\n  iszero\n  dup2\n  mstore\n  pop\n    /* \"contracts/GameSystem.sol\":769:775  quests */\n  0x00\n    /* \"contracts/GameSystem.sol\":769:778  quests[2] */\n  0x00\n    /* \"contracts/GameSystem.sol\":776:777  2 */\n  0x02\n    /* \"contracts/GameSystem.sol\":769:778  quests[2] */\n  dup2\n  mstore\n  0x20\n  add\n  swap1\n  dup2\n  mstore\n  0x20\n  add\n  0x00\n  keccak256\n    /* \"contracts/GameSystem.sol\":769:800  quests[2] = Quest(300, 2, true) */\n  0x00\n  dup3\n  add\n  mload\n  dup2\n  0x00\n  add\n  sstore\n  0x20\n  dup3\n  add\n  mload\n  dup2\n  0x01\n  add\n  sstore\n  0x40\n  dup3\n  add\n  mload\n  dup2\n  0x02\n  add\n  exp(0x0100, 0x00)\n  dup2\n  sload\n  dup2\n  0xff\n  mul\n  not\n  and\n  swap1\n  dup4\n  iszero\n  iszero\n  mul\n  or\n  swap1\n  sstore\n  pop\n  swap1\n  pop\n  pop\n    /* \"contracts/GameSystem.sol\":278:1860  contract QuestManager is IQuest {... */\n  dataSize(sub_0)\n  dup1\n  dataOffset(sub_0)\n  0x00\n  codecopy\n  0x00\n  return\nstop\n\nsub_0: assembly {\n        /* \"contracts/GameSystem.sol\":278:1860  contract QuestManager is IQuest {... */\n      mstore(0x40, 0x80)\n      callvalue\n      dup1\n      iszero\n      tag_1\n      jumpi\n      revert(0x00, 0x00)\n    tag_1:\n      pop\n      jumpi(tag_2, lt(calldatasize, 0x04))\n      shr(0xe0, calldataload(0x00))\n      dup1\n      0x5c07a4b0\n      gt\n      tag_10\n      jumpi\n      dup1\n      0x5c07a4b0\n      eq\n      tag_6\n      jumpi\n      dup1\n      0x9e563544\n      eq\n      tag_7\n      jumpi\n      dup1\n      0xe085f980\n      eq\n      tag_8\n      jumpi\n      dup1\n      0xe2eb41ff\n      eq\n      tag_9\n      jumpi\n      jump(tag_2)\n    tag_10:\n      dup1\n      0x1c4b774b\n      eq\n      tag_3\n      jumpi\n      dup1\n      0x3e4b76cc\n      eq\n      tag_4\n      jumpi\n      dup1\n      0x528be0a9\n      eq\n      tag_5\n      jumpi\n    tag_2:\n      revert(0x00, 0x00)\n        /* \"contracts/GameSystem.sol\":1633:1758  function getReward(uint256 questId) external view override returns (uint256) {... */\n    tag_3:\n      tag_11\n      0x04\n      dup1\n      calldatasize\n      sub\n      dup2\n      add\n      swap1\n      tag_12\n      swap2\n      swap1\n      tag_13\n      jump\t// in\n    tag_12:\n      tag_14\n      jump\t// in\n    tag_11:\n      mload(0x40)\n      tag_15\n      swap2\n      swap1\n      tag_16\n      jump\t// in\n    tag_15:\n      mload(0x40)\n      dup1\n      swap2\n      sub\n      swap1\n      return\n        /* \"contracts/GameSystem.sol\":627:691  mapping(address => mapping(uint256 => bool)) public activeQuests */\n    tag_4:\n      tag_17\n      0x04\n      dup1\n      calldatasize\n      sub\n      dup2\n      add\n      swap1\n      tag_18\n      swap2\n      swap1\n      tag_19\n      jump\t// in\n    tag_18:\n      tag_20\n      jump\t// in\n    tag_17:\n      mload(0x40)\n      tag_21\n      swap2\n      swap1\n      tag_22\n      jump\t// in\n    tag_21:\n      mload(0x40)\n      dup1\n      swap2\n      sub\n      swap1\n      return\n        /* \"contracts/GameSystem.sol\":1096:1625  function completeQuest(uint256 questId) external override {... */\n    tag_5:\n      tag_23\n      0x04\n      dup1\n      calldatasize\n      sub\n      dup2\n      add\n      swap1\n      tag_24\n      swap2\n      swap1\n      tag_13\n      jump\t// in\n    tag_24:\n      tag_25\n      jump\t// in\n    tag_23:\n      stop\n        /* \"contracts/GameSystem.sol\":1766:1857  function registerPlayer() external {... */\n    tag_6:\n      tag_26\n      tag_27\n      jump\t// in\n    tag_26:\n      stop\n        /* \"contracts/GameSystem.sol\":816:1088  function startQuest(uint256 questId) external override {... */\n    tag_7:\n      tag_28\n      0x04\n      dup1\n      calldatasize\n      sub\n      dup2\n      add\n      swap1\n      tag_29\n      swap2\n      swap1\n      tag_13\n      jump\t// in\n    tag_29:\n      tag_30\n      jump\t// in\n    tag_28:\n      stop\n        /* \"contracts/GameSystem.sol\":533:572  mapping(uint256 => Quest) public quests */\n    tag_8:\n      tag_31\n      0x04\n      dup1\n      calldatasize\n      sub\n      dup2\n      add\n      swap1\n      tag_32\n      swap2\n      swap1\n      tag_13\n      jump\t// in\n    tag_32:\n      tag_33\n      jump\t// in\n    tag_31:\n      mload(0x40)\n      tag_34\n      swap4\n      swap3\n      swap2\n      swap1\n      tag_35\n      jump\t// in\n    tag_34:\n      mload(0x40)\n      dup1\n      swap2\n      sub\n      swap1\n      return\n        /* \"contracts/GameSystem.sol\":579:620  mapping(address => Player) public players */\n    tag_9:\n      tag_36\n      0x04\n      dup1\n      calldatasize\n      sub\n      dup2\n      add\n      swap1\n      tag_37\n      swap2\n      swap1\n      tag_38\n      jump\t// in\n    tag_37:\n      tag_39\n      jump\t// in\n    tag_36:\n      mload(0x40)\n      tag_40\n      swap4\n      swap3\n      swap2\n      swap1\n      tag_41\n      jump\t// in\n    tag_40:\n      mload(0x40)\n      dup1\n      swap2\n      sub\n      swap1\n      return\n        /* \"contracts/GameSystem.sol\":1633:1758  function getReward(uint256 questId) external view override returns (uint256) {... */\n    tag_14:\n        /* \"contracts/GameSystem.sol\":1701:1708  uint256 */\n      0x00\n        /* \"contracts/GameSystem.sol\":1728:1734  quests */\n      0x00\n        /* \"contracts/GameSystem.sol\":1728:1743  quests[questId] */\n      0x00\n        /* \"contracts/GameSystem.sol\":1735:1742  questId */\n      dup4\n        /* \"contracts/GameSystem.sol\":1728:1743  quests[questId] */\n      dup2\n      mstore\n      0x20\n      add\n      swap1\n      dup2\n      mstore\n      0x20\n      add\n      0x00\n      keccak256\n        /* \"contracts/GameSystem.sol\":1728:1750  quests[questId].reward */\n      0x00\n      add\n      sload\n        /* \"contracts/GameSystem.sol\":1721:1750  return quests[questId].reward */\n      swap1\n      pop\n        /* \"contracts/GameSystem.sol\":1633:1758  function getReward(uint256 questId) external view override returns (uint256) {... */\n      swap2\n      swap1\n      pop\n      jump\t// out\n        /* \"contracts/GameSystem.sol\":627:691  mapping(address => mapping(uint256 => bool)) public activeQuests */\n    tag_20:\n      mstore(0x20, 0x02)\n      dup2\n      0x00\n      mstore\n      mstore(0x20, keccak256(0x00, 0x40))\n      dup1\n      0x00\n      mstore\n      keccak256(0x00, 0x40)\n      0x00\n      swap2\n      pop\n      swap2\n      pop\n      swap1\n      sload\n      swap1\n      0x0100\n      exp\n      swap1\n      div\n      0xff\n      and\n      dup2\n      jump\t// out\n        /* \"contracts/GameSystem.sol\":1096:1625  function completeQuest(uint256 questId) external override {... */\n    tag_25:\n        /* \"contracts/GameSystem.sol\":1173:1185  activeQuests */\n      0x02\n        /* \"contracts/GameSystem.sol\":1173:1197  activeQuests[msg.sender] */\n      0x00\n        /* \"contracts/GameSystem.sol\":1186:1196  msg.sender */\n      caller\n        /* \"contracts/GameSystem.sol\":1173:1197  activeQuests[msg.sender] */\n      0xffffffffffffffffffffffffffffffffffffffff\n      and\n      0xffffffffffffffffffffffffffffffffffffffff\n      and\n      dup2\n      mstore\n      0x20\n      add\n      swap1\n      dup2\n      mstore\n      0x20\n      add\n      0x00\n      keccak256\n        /* \"contracts/GameSystem.sol\":1173:1206  activeQuests[msg.sender][questId] */\n      0x00\n        /* \"contracts/GameSystem.sol\":1198:1205  questId */\n      dup3\n        /* \"contracts/GameSystem.sol\":1173:1206  activeQuests[msg.sender][questId] */\n      dup2\n      mstore\n      0x20\n      add\n      swap1\n      dup2\n      mstore\n      0x20\n      add\n      0x00\n      keccak256\n      0x00\n      swap1\n      sload\n      swap1\n      0x0100\n      exp\n      swap1\n      div\n      0xff\n      and\n        /* \"contracts/GameSystem.sol\":1165:1227  require(activeQuests[msg.sender][questId], \"Quest not active\") */\n      tag_44\n      jumpi\n      mload(0x40)\n      0x08c379a000000000000000000000000000000000000000000000000000000000\n      dup2\n      mstore\n      0x04\n      add\n      tag_45\n      swap1\n      tag_46\n      jump\t// in\n    tag_45:\n      mload(0x40)\n      dup1\n      swap2\n      sub\n      swap1\n      revert\n    tag_44:\n        /* \"contracts/GameSystem.sol\":1240:1254  uint256 reward */\n      0x00\n        /* \"contracts/GameSystem.sol\":1257:1263  quests */\n      0x00\n        /* \"contracts/GameSystem.sol\":1257:1272  quests[questId] */\n      0x00\n        /* \"contracts/GameSystem.sol\":1264:1271  questId */\n      dup4\n        /* \"contracts/GameSystem.sol\":1257:1272  quests[questId] */\n      dup2\n      mstore\n      0x20\n      add\n      swap1\n      dup2\n      mstore\n      0x20\n      add\n      0x00\n      keccak256\n        /* \"contracts/GameSystem.sol\":1257:1279  quests[questId].reward */\n      0x00\n      add\n      sload\n        /* \"contracts/GameSystem.sol\":1240:1279  uint256 reward = quests[questId].reward */\n      swap1\n      pop\n        /* \"contracts/GameSystem.sol\":1320:1326  reward */\n      dup1\n        /* \"contracts/GameSystem.sol\":1292:1299  players */\n      0x01\n        /* \"contracts/GameSystem.sol\":1292:1311  players[msg.sender] */\n      0x00\n        /* \"contracts/GameSystem.sol\":1300:1310  msg.sender */\n      caller\n        /* \"contracts/GameSystem.sol\":1292:1311  players[msg.sender] */\n      0xffffffffffffffffffffffffffffffffffffffff\n      and\n      0xffffffffffffffffffffffffffffffffffffffff\n      and\n      dup2\n      mstore\n      0x20\n      add\n      swap1\n      dup2\n      mstore\n      0x20\n      add\n      0x00\n      keccak256\n        /* \"contracts/GameSystem.sol\":1292:1316  players[msg.sender].gold */\n      0x02\n      add\n      0x00\n        /* \"contracts/GameSystem.sol\":1292:1326  players[msg.sender].gold += reward */\n      dup3\n      dup3\n      sload\n      tag_47\n      swap2\n      swap1\n      tag_48\n      jump\t// in\n    tag_47:\n      swap3\n      pop\n      pop\n      dup2\n      swap1\n      sstore\n      pop\n        /* \"contracts/GameSystem.sol\":1371:1377  reward */\n      dup1\n        /* \"contracts/GameSystem.sol\":1337:1344  players */\n      0x01\n        /* \"contracts/GameSystem.sol\":1337:1356  players[msg.sender] */\n      0x00\n        /* \"contracts/GameSystem.sol\":1345:1355  msg.sender */\n      caller\n        /* \"contracts/GameSystem.sol\":1337:1356  players[msg.sender] */\n      0xffffffffffffffffffffffffffffffffffffffff\n      and\n      0xffffffffffffffffffffffffffffffffffffffff\n      and\n      dup2\n      mstore\n      0x20\n      add\n      swap1\n      dup2\n      mstore\n      0x20\n      add\n      0x00\n      keccak256\n        /* \"contracts/GameSystem.sol\":1337:1367  players[msg.sender].experience */\n      0x01\n      add\n      0x00\n        /* \"contracts/GameSystem.sol\":1337:1377  players[msg.sender].experience += reward */\n      dup3\n      dup3\n      sload\n      tag_49\n      swap2\n      swap1\n      tag_48\n      jump\t// in\n    tag_49:\n      swap3\n      pop\n      pop\n      dup2\n      swap1\n      sstore\n      pop\n        /* \"contracts/GameSystem.sol\":1456:1459  200 */\n      0xc8\n        /* \"contracts/GameSystem.sol\":1428:1435  players */\n      0x01\n        /* \"contracts/GameSystem.sol\":1428:1447  players[msg.sender] */\n      0x00\n        /* \"contracts/GameSystem.sol\":1436:1446  msg.sender */\n      caller\n        /* \"contracts/GameSystem.sol\":1428:1447  players[msg.sender] */\n      0xffffffffffffffffffffffffffffffffffffffff\n      and\n      0xffffffffffffffffffffffffffffffffffffffff\n      and\n      dup2\n      mstore\n      0x20\n      add\n      swap1\n      dup2\n      mstore\n      0x20\n      add\n      0x00\n      keccak256\n        /* \"contracts/GameSystem.sol\":1428:1453  players[msg.sender].level */\n      0x00\n      add\n      sload\n        /* \"contracts/GameSystem.sol\":1428:1459  players[msg.sender].level * 200 */\n      tag_50\n      swap2\n      swap1\n      tag_51\n      jump\t// in\n    tag_50:\n        /* \"contracts/GameSystem.sol\":1394:1401  players */\n      0x01\n        /* \"contracts/GameSystem.sol\":1394:1413  players[msg.sender] */\n      0x00\n        /* \"contracts/GameSystem.sol\":1402:1412  msg.sender */\n      caller\n        /* \"contracts/GameSystem.sol\":1394:1413  players[msg.sender] */\n      0xffffffffffffffffffffffffffffffffffffffff\n      and\n      0xffffffffffffffffffffffffffffffffffffffff\n      and\n      dup2\n      mstore\n      0x20\n      add\n      swap1\n      dup2\n      mstore\n      0x20\n      add\n      0x00\n      keccak256\n        /* \"contracts/GameSystem.sol\":1394:1424  players[msg.sender].experience */\n      0x01\n      add\n      sload\n        /* \"contracts/GameSystem.sol\":1394:1459  players[msg.sender].experience >= players[msg.sender].level * 200 */\n      lt\n        /* \"contracts/GameSystem.sol\":1390:1564  if (players[msg.sender].experience >= players[msg.sender].level * 200) {... */\n      tag_52\n      jumpi\n        /* \"contracts/GameSystem.sol\":1476:1483  players */\n      0x01\n        /* \"contracts/GameSystem.sol\":1476:1495  players[msg.sender] */\n      0x00\n        /* \"contracts/GameSystem.sol\":1484:1494  msg.sender */\n      caller\n        /* \"contracts/GameSystem.sol\":1476:1495  players[msg.sender] */\n      0xffffffffffffffffffffffffffffffffffffffff\n      and\n      0xffffffffffffffffffffffffffffffffffffffff\n      and\n      dup2\n      mstore\n      0x20\n      add\n      swap1\n      dup2\n      mstore\n      0x20\n      add\n      0x00\n      keccak256\n        /* \"contracts/GameSystem.sol\":1476:1501  players[msg.sender].level */\n      0x00\n      add\n      0x00\n        /* \"contracts/GameSystem.sol\":1476:1503  players[msg.sender].level++ */\n      dup2\n      sload\n      dup1\n      swap3\n      swap2\n      swap1\n      tag_53\n      swap1\n      tag_54\n      jump\t// in\n    tag_53:\n      swap2\n      swap1\n      pop\n      sstore\n      pop\n        /* \"contracts/GameSystem.sol\":1551:1552  0 */\n      0x00\n        /* \"contracts/GameSystem.sol\":1518:1525  players */\n      0x01\n        /* \"contracts/GameSystem.sol\":1518:1537  players[msg.sender] */\n      0x00\n        /* \"contracts/GameSystem.sol\":1526:1536  msg.sender */\n      caller\n        /* \"contracts/GameSystem.sol\":1518:1537  players[msg.sender] */\n      0xffffffffffffffffffffffffffffffffffffffff\n      and\n      0xffffffffffffffffffffffffffffffffffffffff\n      and\n      dup2\n      mstore\n      0x20\n      add\n      swap1\n      dup2\n      mstore\n      0x20\n      add\n      0x00\n      keccak256\n        /* \"contracts/GameSystem.sol\":1518:1548  players[msg.sender].experience */\n      0x01\n      add\n        /* \"contracts/GameSystem.sol\":1518:1552  players[msg.sender].experience = 0 */\n      dup2\n      swap1\n      sstore\n      pop\n        /* \"contracts/GameSystem.sol\":1390:1564  if (players[msg.sender].experience >= players[msg.sender].level * 200) {... */\n    tag_52:\n        /* \"contracts/GameSystem.sol\":1612:1617  false */\n      0x00\n        /* \"contracts/GameSystem.sol\":1576:1588  activeQuests */\n      0x02\n        /* \"contracts/GameSystem.sol\":1576:1600  activeQuests[msg.sender] */\n      0x00\n        /* \"contracts/GameSystem.sol\":1589:1599  msg.sender */\n      caller\n        /* \"contracts/GameSystem.sol\":1576:1600  activeQuests[msg.sender] */\n      0xffffffffffffffffffffffffffffffffffffffff\n      and\n      0xffffffffffffffffffffffffffffffffffffffff\n      and\n      dup2\n      mstore\n      0x20\n      add\n      swap1\n      dup2\n      mstore\n      0x20\n      add\n      0x00\n      keccak256\n        /* \"contracts/GameSystem.sol\":1576:1609  activeQuests[msg.sender][questId] */\n      0x00\n        /* \"contracts/GameSystem.sol\":1601:1608  questId */\n      dup5\n        /* \"contracts/GameSystem.sol\":1576:1609  activeQuests[msg.sender][questId] */\n      dup2\n      mstore\n      0x20\n      add\n      swap1\n      dup2\n      mstore\n      0x20\n      add\n      0x00\n      keccak256\n      0x00\n        /* \"contracts/GameSystem.sol\":1576:1617  activeQuests[msg.sender][questId] = false */\n      0x0100\n      exp\n      dup2\n      sload\n      dup2\n      0xff\n      mul\n      not\n      and\n      swap1\n      dup4\n      iszero\n      iszero\n      mul\n      or\n      swap1\n      sstore\n      pop\n        /* \"contracts/GameSystem.sol\":1154:1625  {... */\n      pop\n        /* \"contracts/GameSystem.sol\":1096:1625  function completeQuest(uint256 questId) external override {... */\n      pop\n      jump\t// out\n        /* \"contracts/GameSystem.sol\":1766:1857  function registerPlayer() external {... */\n    tag_27:\n        /* \"contracts/GameSystem.sol\":1834:1849  Player(1, 0, 0) */\n      mload(0x40)\n      dup1\n      0x60\n      add\n      0x40\n      mstore\n      dup1\n        /* \"contracts/GameSystem.sol\":1841:1842  1 */\n      0x01\n        /* \"contracts/GameSystem.sol\":1834:1849  Player(1, 0, 0) */\n      dup2\n      mstore\n      0x20\n      add\n        /* \"contracts/GameSystem.sol\":1844:1845  0 */\n      0x00\n        /* \"contracts/GameSystem.sol\":1834:1849  Player(1, 0, 0) */\n      dup2\n      mstore\n      0x20\n      add\n        /* \"contracts/GameSystem.sol\":1847:1848  0 */\n      0x00\n        /* \"contracts/GameSystem.sol\":1834:1849  Player(1, 0, 0) */\n      dup2\n      mstore\n      pop\n        /* \"contracts/GameSystem.sol\":1812:1819  players */\n      0x01\n        /* \"contracts/GameSystem.sol\":1812:1831  players[msg.sender] */\n      0x00\n        /* \"contracts/GameSystem.sol\":1820:1830  msg.sender */\n      caller\n        /* \"contracts/GameSystem.sol\":1812:1831  players[msg.sender] */\n      0xffffffffffffffffffffffffffffffffffffffff\n      and\n      0xffffffffffffffffffffffffffffffffffffffff\n      and\n      dup2\n      mstore\n      0x20\n      add\n      swap1\n      dup2\n      mstore\n      0x20\n      add\n      0x00\n      keccak256\n        /* \"contracts/GameSystem.sol\":1812:1849  players[msg.sender] = Player(1, 0, 0) */\n      0x00\n      dup3\n      add\n      mload\n      dup2\n      0x00\n      add\n      sstore\n      0x20\n      dup3\n      add\n      mload\n      dup2\n      0x01\n      add\n      sstore\n      0x40\n      dup3\n      add\n      mload\n      dup2\n      0x02\n      add\n      sstore\n      swap1\n      pop\n      pop\n        /* \"contracts/GameSystem.sol\":1766:1857  function registerPlayer() external {... */\n      jump\t// out\n        /* \"contracts/GameSystem.sol\":816:1088  function startQuest(uint256 questId) external override {... */\n    tag_30:\n        /* \"contracts/GameSystem.sol\":890:896  quests */\n      0x00\n        /* \"contracts/GameSystem.sol\":890:905  quests[questId] */\n      0x00\n        /* \"contracts/GameSystem.sol\":897:904  questId */\n      dup3\n        /* \"contracts/GameSystem.sol\":890:905  quests[questId] */\n      dup2\n      mstore\n      0x20\n      add\n      swap1\n      dup2\n      mstore\n      0x20\n      add\n      0x00\n      keccak256\n        /* \"contracts/GameSystem.sol\":890:912  quests[questId].exists */\n      0x02\n      add\n      0x00\n      swap1\n      sload\n      swap1\n      0x0100\n      exp\n      swap1\n      div\n      0xff\n      and\n        /* \"contracts/GameSystem.sol\":882:932  require(quests[questId].exists, \"Quest not found\") */\n      tag_57\n      jumpi\n      mload(0x40)\n      0x08c379a000000000000000000000000000000000000000000000000000000000\n      dup2\n      mstore\n      0x04\n      add\n      tag_58\n      swap1\n      tag_59\n      jump\t// in\n    tag_58:\n      mload(0x40)\n      dup1\n      swap2\n      sub\n      swap1\n      revert\n    tag_57:\n        /* \"contracts/GameSystem.sol\":980:986  quests */\n      0x00\n        /* \"contracts/GameSystem.sol\":980:995  quests[questId] */\n      0x00\n        /* \"contracts/GameSystem.sol\":987:994  questId */\n      dup3\n        /* \"contracts/GameSystem.sol\":980:995  quests[questId] */\n      dup2\n      mstore\n      0x20\n      add\n      swap1\n      dup2\n      mstore\n      0x20\n      add\n      0x00\n      keccak256\n        /* \"contracts/GameSystem.sol\":980:1009  quests[questId].requiredLevel */\n      0x01\n      add\n      sload\n        /* \"contracts/GameSystem.sol\":951:958  players */\n      0x01\n        /* \"contracts/GameSystem.sol\":951:970  players[msg.sender] */\n      0x00\n        /* \"contracts/GameSystem.sol\":959:969  msg.sender */\n      caller\n        /* \"contracts/GameSystem.sol\":951:970  players[msg.sender] */\n      0xffffffffffffffffffffffffffffffffffffffff\n      and\n      0xffffffffffffffffffffffffffffffffffffffff\n      and\n      dup2\n      mstore\n      0x20\n      add\n      swap1\n      dup2\n      mstore\n      0x20\n      add\n      0x00\n      keccak256\n        /* \"contracts/GameSystem.sol\":951:976  players[msg.sender].level */\n      0x00\n      add\n      sload\n        /* \"contracts/GameSystem.sol\":951:1009  players[msg.sender].level >= quests[questId].requiredLevel */\n      lt\n      iszero\n        /* \"contracts/GameSystem.sol\":943:1027  require(players[msg.sender].level >= quests[questId].requiredLevel, \"Level too low\") */\n      tag_60\n      jumpi\n      mload(0x40)\n      0x08c379a000000000000000000000000000000000000000000000000000000000\n      dup2\n      mstore\n      0x04\n      add\n      tag_61\n      swap1\n      tag_62\n      jump\t// in\n    tag_61:\n      mload(0x40)\n      dup1\n      swap2\n      sub\n      swap1\n      revert\n    tag_60:\n        /* \"contracts/GameSystem.sol\":1076:1080  true */\n      0x01\n        /* \"contracts/GameSystem.sol\":1040:1052  activeQuests */\n      0x02\n        /* \"contracts/GameSystem.sol\":1040:1064  activeQuests[msg.sender] */\n      0x00\n        /* \"contracts/GameSystem.sol\":1053:1063  msg.sender */\n      caller\n        /* \"contracts/GameSystem.sol\":1040:1064  activeQuests[msg.sender] */\n      0xffffffffffffffffffffffffffffffffffffffff\n      and\n      0xffffffffffffffffffffffffffffffffffffffff\n      and\n      dup2\n      mstore\n      0x20\n      add\n      swap1\n      dup2\n      mstore\n      0x20\n      add\n      0x00\n      keccak256\n        /* \"contracts/GameSystem.sol\":1040:1073  activeQuests[msg.sender][questId] */\n      0x00\n        /* \"contracts/GameSystem.sol\":1065:1072  questId */\n      dup4\n        /* \"contracts/GameSystem.sol\":1040:1073  activeQuests[msg.sender][questId] */\n      dup2\n      mstore\n      0x20\n      add\n      swap1\n      dup2\n      mstore\n      0x20\n      add\n      0x00\n      keccak256\n      0x00\n        /* \"contracts/GameSystem.sol\":1040:1080  activeQuests[msg.sender][questId] = true */\n      0x0100\n      exp\n      dup2\n      sload\n      dup2\n      0xff\n      mul\n      not\n      and\n      swap1\n      dup4\n      iszero\n      iszero\n      mul\n      or\n      swap1\n      sstore\n      pop\n        /* \"contracts/GameSystem.sol\":816:1088  function startQuest(uint256 questId) external override {... */\n      pop\n      jump\t// out\n        /* \"contracts/GameSystem.sol\":533:572  mapping(uint256 => Quest) public quests */\n    tag_33:\n      mstore(0x20, 0x00)\n      dup1\n      0x00\n      mstore\n      keccak256(0x00, 0x40)\n      0x00\n      swap2\n      pop\n      swap1\n      pop\n      dup1\n      0x00\n      add\n      sload\n      swap1\n      dup1\n      0x01\n      add\n      sload\n      swap1\n      dup1\n      0x02\n      add\n      0x00\n      swap1\n      sload\n      swap1\n      0x0100\n      exp\n      swap1\n      div\n      0xff\n      and\n      swap1\n      pop\n      dup4\n      jump\t// out\n        /* \"contracts/GameSystem.sol\":579:620  mapping(address => Player) public players */\n    tag_39:\n      mstore(0x20, 0x01)\n      dup1\n      0x00\n      mstore\n      keccak256(0x00, 0x40)\n      0x00\n      swap2\n      pop\n      swap1\n      pop\n      dup1\n      0x00\n      add\n      sload\n      swap1\n      dup1\n      0x01\n      add\n      sload\n      swap1\n      dup1\n      0x02\n      add\n      sload\n      swap1\n      pop\n      dup4\n      jump\t// out\n        /* \"#utility.yul\":88:205   */\n    tag_64:\n        /* \"#utility.yul\":197:198   */\n      0x00\n        /* \"#utility.yul\":194:195   */\n      0x00\n        /* \"#utility.yul\":187:199   */\n      revert\n        /* \"#utility.yul\":334:411   */\n    tag_66:\n        /* \"#utility.yul\":371:378   */\n      0x00\n        /* \"#utility.yul\":400:405   */\n      dup2\n        /* \"#utility.yul\":389:405   */\n      swap1\n      pop\n        /* \"#utility.yul\":334:411   */\n      swap2\n      swap1\n      pop\n      jump\t// out\n        /* \"#utility.yul\":417:539   */\n    tag_67:\n        /* \"#utility.yul\":490:514   */\n      tag_90\n        /* \"#utility.yul\":508:513   */\n      dup2\n        /* \"#utility.yul\":490:514   */\n      tag_66\n      jump\t// in\n    tag_90:\n        /* \"#utility.yul\":483:488   */\n      dup2\n        /* \"#utility.yul\":480:515   */\n      eq\n        /* \"#utility.yul\":470:533   */\n      tag_91\n      jumpi\n        /* \"#utility.yul\":529:530   */\n      0x00\n        /* \"#utility.yul\":526:527   */\n      0x00\n        /* \"#utility.yul\":519:531   */\n      revert\n        /* \"#utility.yul\":470:533   */\n    tag_91:\n        /* \"#utility.yul\":417:539   */\n      pop\n      jump\t// out\n        /* \"#utility.yul\":545:684   */\n    tag_68:\n        /* \"#utility.yul\":591:596   */\n      0x00\n        /* \"#utility.yul\":629:635   */\n      dup2\n        /* \"#utility.yul\":616:636   */\n      calldataload\n        /* \"#utility.yul\":607:636   */\n      swap1\n      pop\n        /* \"#utility.yul\":645:678   */\n      tag_93\n        /* \"#utility.yul\":672:677   */\n      dup2\n        /* \"#utility.yul\":645:678   */\n      tag_67\n      jump\t// in\n    tag_93:\n        /* \"#utility.yul\":545:684   */\n      swap3\n      swap2\n      pop\n      pop\n      jump\t// out\n        /* \"#utility.yul\":690:1019   */\n    tag_13:\n        /* \"#utility.yul\":749:755   */\n      0x00\n        /* \"#utility.yul\":798:800   */\n      0x20\n        /* \"#utility.yul\":786:795   */\n      dup3\n        /* \"#utility.yul\":777:784   */\n      dup5\n        /* \"#utility.yul\":773:796   */\n      sub\n        /* \"#utility.yul\":769:801   */\n      slt\n        /* \"#utility.yul\":766:885   */\n      iszero\n      tag_95\n      jumpi\n        /* \"#utility.yul\":804:883   */\n      tag_96\n      tag_64\n      jump\t// in\n    tag_96:\n        /* \"#utility.yul\":766:885   */\n    tag_95:\n        /* \"#utility.yul\":924:925   */\n      0x00\n        /* \"#utility.yul\":949:1002   */\n      tag_97\n        /* \"#utility.yul\":994:1001   */\n      dup5\n        /* \"#utility.yul\":985:991   */\n      dup3\n        /* \"#utility.yul\":974:983   */\n      dup6\n        /* \"#utility.yul\":970:992   */\n      add\n        /* \"#utility.yul\":949:1002   */\n      tag_68\n      jump\t// in\n    tag_97:\n        /* \"#utility.yul\":939:1002   */\n      swap2\n      pop\n        /* \"#utility.yul\":895:1012   */\n      pop\n        /* \"#utility.yul\":690:1019   */\n      swap3\n      swap2\n      pop\n      pop\n      jump\t// out\n        /* \"#utility.yul\":1025:1143   */\n    tag_69:\n        /* \"#utility.yul\":1112:1136   */\n      tag_99\n        /* \"#utility.yul\":1130:1135   */\n      dup2\n        /* \"#utility.yul\":1112:1136   */\n      tag_66\n      jump\t// in\n    tag_99:\n        /* \"#utility.yul\":1107:1110   */\n      dup3\n        /* \"#utility.yul\":1100:1137   */\n      mstore\n        /* \"#utility.yul\":1025:1143   */\n      pop\n      pop\n      jump\t// out\n        /* \"#utility.yul\":1149:1371   */\n    tag_16:\n        /* \"#utility.yul\":1242:1246   */\n      0x00\n        /* \"#utility.yul\":1280:1282   */\n      0x20\n        /* \"#utility.yul\":1269:1278   */\n      dup3\n        /* \"#utility.yul\":1265:1283   */\n      add\n        /* \"#utility.yul\":1257:1283   */\n      swap1\n      pop\n        /* \"#utility.yul\":1293:1364   */\n      tag_101\n        /* \"#utility.yul\":1361:1362   */\n      0x00\n        /* \"#utility.yul\":1350:1359   */\n      dup4\n        /* \"#utility.yul\":1346:1363   */\n      add\n        /* \"#utility.yul\":1337:1343   */\n      dup5\n        /* \"#utility.yul\":1293:1364   */\n      tag_69\n      jump\t// in\n    tag_101:\n        /* \"#utility.yul\":1149:1371   */\n      swap3\n      swap2\n      pop\n      pop\n      jump\t// out\n        /* \"#utility.yul\":1377:1503   */\n    tag_70:\n        /* \"#utility.yul\":1414:1421   */\n      0x00\n        /* \"#utility.yul\":1454:1496   */\n      0xffffffffffffffffffffffffffffffffffffffff\n        /* \"#utility.yul\":1447:1452   */\n      dup3\n        /* \"#utility.yul\":1443:1497   */\n      and\n        /* \"#utility.yul\":1432:1497   */\n      swap1\n      pop\n        /* \"#utility.yul\":1377:1503   */\n      swap2\n      swap1\n      pop\n      jump\t// out\n        /* \"#utility.yul\":1509:1605   */\n    tag_71:\n        /* \"#utility.yul\":1546:1553   */\n      0x00\n        /* \"#utility.yul\":1575:1599   */\n      tag_104\n        /* \"#utility.yul\":1593:1598   */\n      dup3\n        /* \"#utility.yul\":1575:1599   */\n      tag_70\n      jump\t// in\n    tag_104:\n        /* \"#utility.yul\":1564:1599   */\n      swap1\n      pop\n        /* \"#utility.yul\":1509:1605   */\n      swap2\n      swap1\n      pop\n      jump\t// out\n        /* \"#utility.yul\":1611:1733   */\n    tag_72:\n        /* \"#utility.yul\":1684:1708   */\n      tag_106\n        /* \"#utility.yul\":1702:1707   */\n      dup2\n        /* \"#utility.yul\":1684:1708   */\n      tag_71\n      jump\t// in\n    tag_106:\n        /* \"#utility.yul\":1677:1682   */\n      dup2\n        /* \"#utility.yul\":1674:1709   */\n      eq\n        /* \"#utility.yul\":1664:1727   */\n      tag_107\n      jumpi\n        /* \"#utility.yul\":1723:1724   */\n      0x00\n        /* \"#utility.yul\":1720:1721   */\n      0x00\n        /* \"#utility.yul\":1713:1725   */\n      revert\n        /* \"#utility.yul\":1664:1727   */\n    tag_107:\n        /* \"#utility.yul\":1611:1733   */\n      pop\n      jump\t// out\n        /* \"#utility.yul\":1739:1878   */\n    tag_73:\n        /* \"#utility.yul\":1785:1790   */\n      0x00\n        /* \"#utility.yul\":1823:1829   */\n      dup2\n        /* \"#utility.yul\":1810:1830   */\n      calldataload\n        /* \"#utility.yul\":1801:1830   */\n      swap1\n      pop\n        /* \"#utility.yul\":1839:1872   */\n      tag_109\n        /* \"#utility.yul\":1866:1871   */\n      dup2\n        /* \"#utility.yul\":1839:1872   */\n      tag_72\n      jump\t// in\n    tag_109:\n        /* \"#utility.yul\":1739:1878   */\n      swap3\n      swap2\n      pop\n      pop\n      jump\t// out\n        /* \"#utility.yul\":1884:2358   */\n    tag_19:\n        /* \"#utility.yul\":1952:1958   */\n      0x00\n        /* \"#utility.yul\":1960:1966   */\n      0x00\n        /* \"#utility.yul\":2009:2011   */\n      0x40\n        /* \"#utility.yul\":1997:2006   */\n      dup4\n        /* \"#utility.yul\":1988:1995   */\n      dup6\n        /* \"#utility.yul\":1984:2007   */\n      sub\n        /* \"#utility.yul\":1980:2012   */\n      slt\n        /* \"#utility.yul\":1977:2096   */\n      iszero\n      tag_111\n      jumpi\n        /* \"#utility.yul\":2015:2094   */\n      tag_112\n      tag_64\n      jump\t// in\n    tag_112:\n        /* \"#utility.yul\":1977:2096   */\n    tag_111:\n        /* \"#utility.yul\":2135:2136   */\n      0x00\n        /* \"#utility.yul\":2160:2213   */\n      tag_113\n        /* \"#utility.yul\":2205:2212   */\n      dup6\n        /* \"#utility.yul\":2196:2202   */\n      dup3\n        /* \"#utility.yul\":2185:2194   */\n      dup7\n        /* \"#utility.yul\":2181:2203   */\n      add\n        /* \"#utility.yul\":2160:2213   */\n      tag_73\n      jump\t// in\n    tag_113:\n        /* \"#utility.yul\":2150:2213   */\n      swap3\n      pop\n        /* \"#utility.yul\":2106:2223   */\n      pop\n        /* \"#utility.yul\":2262:2264   */\n      0x20\n        /* \"#utility.yul\":2288:2341   */\n      tag_114\n        /* \"#utility.yul\":2333:2340   */\n      dup6\n        /* \"#utility.yul\":2324:2330   */\n      dup3\n        /* \"#utility.yul\":2313:2322   */\n      dup7\n        /* \"#utility.yul\":2309:2331   */\n      add\n        /* \"#utility.yul\":2288:2341   */\n      tag_68\n      jump\t// in\n    tag_114:\n        /* \"#utility.yul\":2278:2341   */\n      swap2\n      pop\n        /* \"#utility.yul\":2233:2351   */\n      pop\n        /* \"#utility.yul\":1884:2358   */\n      swap3\n      pop\n      swap3\n      swap1\n      pop\n      jump\t// out\n        /* \"#utility.yul\":2364:2454   */\n    tag_74:\n        /* \"#utility.yul\":2398:2405   */\n      0x00\n        /* \"#utility.yul\":2441:2446   */\n      dup2\n        /* \"#utility.yul\":2434:2447   */\n      iszero\n        /* \"#utility.yul\":2427:2448   */\n      iszero\n        /* \"#utility.yul\":2416:2448   */\n      swap1\n      pop\n        /* \"#utility.yul\":2364:2454   */\n      swap2\n      swap1\n      pop\n      jump\t// out\n        /* \"#utility.yul\":2460:2569   */\n    tag_75:\n        /* \"#utility.yul\":2541:2562   */\n      tag_117\n        /* \"#utility.yul\":2556:2561   */\n      dup2\n        /* \"#utility.yul\":2541:2562   */\n      tag_74\n      jump\t// in\n    tag_117:\n        /* \"#utility.yul\":2536:2539   */\n      dup3\n        /* \"#utility.yul\":2529:2563   */\n      mstore\n        /* \"#utility.yul\":2460:2569   */\n      pop\n      pop\n      jump\t// out\n        /* \"#utility.yul\":2575:2785   */\n    tag_22:\n        /* \"#utility.yul\":2662:2666   */\n      0x00\n        /* \"#utility.yul\":2700:2702   */\n      0x20\n        /* \"#utility.yul\":2689:2698   */\n      dup3\n        /* \"#utility.yul\":2685:2703   */\n      add\n        /* \"#utility.yul\":2677:2703   */\n      swap1\n      pop\n        /* \"#utility.yul\":2713:2778   */\n      tag_119\n        /* \"#utility.yul\":2775:2776   */\n      0x00\n        /* \"#utility.yul\":2764:2773   */\n      dup4\n        /* \"#utility.yul\":2760:2777   */\n      add\n        /* \"#utility.yul\":2751:2757   */\n      dup5\n        /* \"#utility.yul\":2713:2778   */\n      tag_75\n      jump\t// in\n    tag_119:\n        /* \"#utility.yul\":2575:2785   */\n      swap3\n      swap2\n      pop\n      pop\n      jump\t// out\n        /* \"#utility.yul\":2791:3221   */\n    tag_35:\n        /* \"#utility.yul\":2934:2938   */\n      0x00\n        /* \"#utility.yul\":2972:2974   */\n      0x60\n        /* \"#utility.yul\":2961:2970   */\n      dup3\n        /* \"#utility.yul\":2957:2975   */\n      add\n        /* \"#utility.yul\":2949:2975   */\n      swap1\n      pop\n        /* \"#utility.yul\":2985:3056   */\n      tag_121\n        /* \"#utility.yul\":3053:3054   */\n      0x00\n        /* \"#utility.yul\":3042:3051   */\n      dup4\n        /* \"#utility.yul\":3038:3055   */\n      add\n        /* \"#utility.yul\":3029:3035   */\n      dup7\n        /* \"#utility.yul\":2985:3056   */\n      tag_69\n      jump\t// in\n    tag_121:\n        /* \"#utility.yul\":3066:3138   */\n      tag_122\n        /* \"#utility.yul\":3134:3136   */\n      0x20\n        /* \"#utility.yul\":3123:3132   */\n      dup4\n        /* \"#utility.yul\":3119:3137   */\n      add\n        /* \"#utility.yul\":3110:3116   */\n      dup6\n        /* \"#utility.yul\":3066:3138   */\n      tag_69\n      jump\t// in\n    tag_122:\n        /* \"#utility.yul\":3148:3214   */\n      tag_123\n        /* \"#utility.yul\":3210:3212   */\n      0x40\n        /* \"#utility.yul\":3199:3208   */\n      dup4\n        /* \"#utility.yul\":3195:3213   */\n      add\n        /* \"#utility.yul\":3186:3192   */\n      dup5\n        /* \"#utility.yul\":3148:3214   */\n      tag_75\n      jump\t// in\n    tag_123:\n        /* \"#utility.yul\":2791:3221   */\n      swap5\n      swap4\n      pop\n      pop\n      pop\n      pop\n      jump\t// out\n        /* \"#utility.yul\":3227:3556   */\n    tag_38:\n        /* \"#utility.yul\":3286:3292   */\n      0x00\n        /* \"#utility.yul\":3335:3337   */\n      0x20\n        /* \"#utility.yul\":3323:3332   */\n      dup3\n        /* \"#utility.yul\":3314:3321   */\n      dup5\n        /* \"#utility.yul\":3310:3333   */\n      sub\n        /* \"#utility.yul\":3306:3338   */\n      slt\n        /* \"#utility.yul\":3303:3422   */\n      iszero\n      tag_125\n      jumpi\n        /* \"#utility.yul\":3341:3420   */\n      tag_126\n      tag_64\n      jump\t// in\n    tag_126:\n        /* \"#utility.yul\":3303:3422   */\n    tag_125:\n        /* \"#utility.yul\":3461:3462   */\n      0x00\n        /* \"#utility.yul\":3486:3539   */\n      tag_127\n        /* \"#utility.yul\":3531:3538   */\n      dup5\n        /* \"#utility.yul\":3522:3528   */\n      dup3\n        /* \"#utility.yul\":3511:3520   */\n      dup6\n        /* \"#utility.yul\":3507:3529   */\n      add\n        /* \"#utility.yul\":3486:3539   */\n      tag_73\n      jump\t// in\n    tag_127:\n        /* \"#utility.yul\":3476:3539   */\n      swap2\n      pop\n        /* \"#utility.yul\":3432:3549   */\n      pop\n        /* \"#utility.yul\":3227:3556   */\n      swap3\n      swap2\n      pop\n      pop\n      jump\t// out\n        /* \"#utility.yul\":3562:4004   */\n    tag_41:\n        /* \"#utility.yul\":3711:3715   */\n      0x00\n        /* \"#utility.yul\":3749:3751   */\n      0x60\n        /* \"#utility.yul\":3738:3747   */\n      dup3\n        /* \"#utility.yul\":3734:3752   */\n      add\n        /* \"#utility.yul\":3726:3752   */\n      swap1\n      pop\n        /* \"#utility.yul\":3762:3833   */\n      tag_129\n        /* \"#utility.yul\":3830:3831   */\n      0x00\n        /* \"#utility.yul\":3819:3828   */\n      dup4\n        /* \"#utility.yul\":3815:3832   */\n      add\n        /* \"#utility.yul\":3806:3812   */\n      dup7\n        /* \"#utility.yul\":3762:3833   */\n      tag_69\n      jump\t// in\n    tag_129:\n        /* \"#utility.yul\":3843:3915   */\n      tag_130\n        /* \"#utility.yul\":3911:3913   */\n      0x20\n        /* \"#utility.yul\":3900:3909   */\n      dup4\n        /* \"#utility.yul\":3896:3914   */\n      add\n        /* \"#utility.yul\":3887:3893   */\n      dup6\n        /* \"#utility.yul\":3843:3915   */\n      tag_69\n      jump\t// in\n    tag_130:\n        /* \"#utility.yul\":3925:3997   */\n      tag_131\n        /* \"#utility.yul\":3993:3995   */\n      0x40\n        /* \"#utility.yul\":3982:3991   */\n      dup4\n        /* \"#utility.yul\":3978:3996   */\n      add\n        /* \"#utility.yul\":3969:3975   */\n      dup5\n        /* \"#utility.yul\":3925:3997   */\n      tag_69\n      jump\t// in\n    tag_131:\n        /* \"#utility.yul\":3562:4004   */\n      swap5\n      swap4\n      pop\n      pop\n      pop\n      pop\n      jump\t// out\n        /* \"#utility.yul\":4010:4179   */\n    tag_76:\n        /* \"#utility.yul\":4094:4105   */\n      0x00\n        /* \"#utility.yul\":4128:4134   */\n      dup3\n        /* \"#utility.yul\":4123:4126   */\n      dup3\n        /* \"#utility.yul\":4116:4135   */\n      mstore\n        /* \"#utility.yul\":4168:4172   */\n      0x20\n        /* \"#utility.yul\":4163:4166   */\n      dup3\n        /* \"#utility.yul\":4159:4173   */\n      add\n        /* \"#utility.yul\":4144:4173   */\n      swap1\n      pop\n        /* \"#utility.yul\":4010:4179   */\n      swap3\n      swap2\n      pop\n      pop\n      jump\t// out\n        /* \"#utility.yul\":4185:4351   */\n    tag_77:\n        /* \"#utility.yul\":4325:4343   */\n      0x5175657374206e6f742061637469766500000000000000000000000000000000\n        /* \"#utility.yul\":4321:4322   */\n      0x00\n        /* \"#utility.yul\":4313:4319   */\n      dup3\n        /* \"#utility.yul\":4309:4323   */\n      add\n        /* \"#utility.yul\":4302:4344   */\n      mstore\n        /* \"#utility.yul\":4185:4351   */\n      pop\n      jump\t// out\n        /* \"#utility.yul\":4357:4723   */\n    tag_78:\n        /* \"#utility.yul\":4499:4502   */\n      0x00\n        /* \"#utility.yul\":4520:4587   */\n      tag_135\n        /* \"#utility.yul\":4584:4586   */\n      0x10\n        /* \"#utility.yul\":4579:4582   */\n      dup4\n        /* \"#utility.yul\":4520:4587   */\n      tag_76\n      jump\t// in\n    tag_135:\n        /* \"#utility.yul\":4513:4587   */\n      swap2\n      pop\n        /* \"#utility.yul\":4596:4689   */\n      tag_136\n        /* \"#utility.yul\":4685:4688   */\n      dup3\n        /* \"#utility.yul\":4596:4689   */\n      tag_77\n      jump\t// in\n    tag_136:\n        /* \"#utility.yul\":4714:4716   */\n      0x20\n        /* \"#utility.yul\":4709:4712   */\n      dup3\n        /* \"#utility.yul\":4705:4717   */\n      add\n        /* \"#utility.yul\":4698:4717   */\n      swap1\n      pop\n        /* \"#utility.yul\":4357:4723   */\n      swap2\n      swap1\n      pop\n      jump\t// out\n        /* \"#utility.yul\":4729:5148   */\n    tag_46:\n        /* \"#utility.yul\":4895:4899   */\n      0x00\n        /* \"#utility.yul\":4933:4935   */\n      0x20\n        /* \"#utility.yul\":4922:4931   */\n      dup3\n        /* \"#utility.yul\":4918:4936   */\n      add\n        /* \"#utility.yul\":4910:4936   */\n      swap1\n      pop\n        /* \"#utility.yul\":4982:4991   */\n      dup2\n        /* \"#utility.yul\":4976:4980   */\n      dup2\n        /* \"#utility.yul\":4972:4992   */\n      sub\n        /* \"#utility.yul\":4968:4969   */\n      0x00\n        /* \"#utility.yul\":4957:4966   */\n      dup4\n        /* \"#utility.yul\":4953:4970   */\n      add\n        /* \"#utility.yul\":4946:4993   */\n      mstore\n        /* \"#utility.yul\":5010:5141   */\n      tag_138\n        /* \"#utility.yul\":5136:5140   */\n      dup2\n        /* \"#utility.yul\":5010:5141   */\n      tag_78\n      jump\t// in\n    tag_138:\n        /* \"#utility.yul\":5002:5141   */\n      swap1\n      pop\n        /* \"#utility.yul\":4729:5148   */\n      swap2\n      swap1\n      pop\n      jump\t// out\n        /* \"#utility.yul\":5154:5334   */\n    tag_79:\n        /* \"#utility.yul\":5202:5279   */\n      0x4e487b7100000000000000000000000000000000000000000000000000000000\n        /* \"#utility.yul\":5199:5200   */\n      0x00\n        /* \"#utility.yul\":5192:5280   */\n      mstore\n        /* \"#utility.yul\":5299:5303   */\n      0x11\n        /* \"#utility.yul\":5296:5297   */\n      0x04\n        /* \"#utility.yul\":5289:5304   */\n      mstore\n        /* \"#utility.yul\":5323:5327   */\n      0x24\n        /* \"#utility.yul\":5320:5321   */\n      0x00\n        /* \"#utility.yul\":5313:5328   */\n      revert\n        /* \"#utility.yul\":5340:5531   */\n    tag_48:\n        /* \"#utility.yul\":5380:5383   */\n      0x00\n        /* \"#utility.yul\":5399:5419   */\n      tag_141\n        /* \"#utility.yul\":5417:5418   */\n      dup3\n        /* \"#utility.yul\":5399:5419   */\n      tag_66\n      jump\t// in\n    tag_141:\n        /* \"#utility.yul\":5394:5419   */\n      swap2\n      pop\n        /* \"#utility.yul\":5433:5453   */\n      tag_142\n        /* \"#utility.yul\":5451:5452   */\n      dup4\n        /* \"#utility.yul\":5433:5453   */\n      tag_66\n      jump\t// in\n    tag_142:\n        /* \"#utility.yul\":5428:5453   */\n      swap3\n      pop\n        /* \"#utility.yul\":5476:5477   */\n      dup3\n        /* \"#utility.yul\":5473:5474   */\n      dup3\n        /* \"#utility.yul\":5469:5478   */\n      add\n        /* \"#utility.yul\":5462:5478   */\n      swap1\n      pop\n        /* \"#utility.yul\":5497:5500   */\n      dup1\n        /* \"#utility.yul\":5494:5495   */\n      dup3\n        /* \"#utility.yul\":5491:5501   */\n      gt\n        /* \"#utility.yul\":5488:5524   */\n      iszero\n      tag_143\n      jumpi\n        /* \"#utility.yul\":5504:5522   */\n      tag_144\n      tag_79\n      jump\t// in\n    tag_144:\n        /* \"#utility.yul\":5488:5524   */\n    tag_143:\n        /* \"#utility.yul\":5340:5531   */\n      swap3\n      swap2\n      pop\n      pop\n      jump\t// out\n        /* \"#utility.yul\":5537:5947   */\n    tag_51:\n        /* \"#utility.yul\":5577:5584   */\n      0x00\n        /* \"#utility.yul\":5600:5620   */\n      tag_146\n        /* \"#utility.yul\":5618:5619   */\n      dup3\n        /* \"#utility.yul\":5600:5620   */\n      tag_66\n      jump\t// in\n    tag_146:\n        /* \"#utility.yul\":5595:5620   */\n      swap2\n      pop\n        /* \"#utility.yul\":5634:5654   */\n      tag_147\n        /* \"#utility.yul\":5652:5653   */\n      dup4\n        /* \"#utility.yul\":5634:5654   */\n      tag_66\n      jump\t// in\n    tag_147:\n        /* \"#utility.yul\":5629:5654   */\n      swap3\n      pop\n        /* \"#utility.yul\":5689:5690   */\n      dup3\n        /* \"#utility.yul\":5686:5687   */\n      dup3\n        /* \"#utility.yul\":5682:5691   */\n      mul\n        /* \"#utility.yul\":5711:5741   */\n      tag_148\n        /* \"#utility.yul\":5729:5740   */\n      dup2\n        /* \"#utility.yul\":5711:5741   */\n      tag_66\n      jump\t// in\n    tag_148:\n        /* \"#utility.yul\":5700:5741   */\n      swap2\n      pop\n        /* \"#utility.yul\":5890:5891   */\n      dup3\n        /* \"#utility.yul\":5881:5888   */\n      dup3\n        /* \"#utility.yul\":5877:5892   */\n      div\n        /* \"#utility.yul\":5874:5875   */\n      dup5\n        /* \"#utility.yul\":5871:5893   */\n      eq\n        /* \"#utility.yul\":5851:5852   */\n      dup4\n        /* \"#utility.yul\":5844:5853   */\n      iszero\n        /* \"#utility.yul\":5824:5907   */\n      or\n        /* \"#utility.yul\":5801:5940   */\n      tag_149\n      jumpi\n        /* \"#utility.yul\":5920:5938   */\n      tag_150\n      tag_79\n      jump\t// in\n    tag_150:\n        /* \"#utility.yul\":5801:5940   */\n    tag_149:\n        /* \"#utility.yul\":5585:5947   */\n      pop\n        /* \"#utility.yul\":5537:5947   */\n      swap3\n      swap2\n      pop\n      pop\n      jump\t// out\n        /* \"#utility.yul\":5953:6186   */\n    tag_54:\n        /* \"#utility.yul\":5992:5995   */\n      0x00\n        /* \"#utility.yul\":6015:6039   */\n      tag_152\n        /* \"#utility.yul\":6033:6038   */\n      dup3\n        /* \"#utility.yul\":6015:6039   */\n      tag_66\n      jump\t// in\n    tag_152:\n        /* \"#utility.yul\":6006:6039   */\n      swap2\n      pop\n        /* \"#utility.yul\":6061:6127   */\n      0xffffffffffffffffffffffffffffffffffffffffffffffffffffffffffffffff\n        /* \"#utility.yul\":6054:6059   */\n      dup3\n        /* \"#utility.yul\":6051:6128   */\n      sub\n        /* \"#utility.yul\":6048:6151   */\n      tag_153\n      jumpi\n        /* \"#utility.yul\":6131:6149   */\n      tag_154\n      tag_79\n      jump\t// in\n    tag_154:\n        /* \"#utility.yul\":6048:6151   */\n    tag_153:\n        /* \"#utility.yul\":6178:6179   */\n      0x01\n        /* \"#utility.yul\":6171:6176   */\n      dup3\n        /* \"#utility.yul\":6167:6180   */\n      add\n        /* \"#utility.yul\":6160:6180   */\n      swap1\n      pop\n        /* \"#utility.yul\":5953:6186   */\n      swap2\n      swap1\n      pop\n      jump\t// out\n        /* \"#utility.yul\":6192:6357   */\n    tag_80:\n        /* \"#utility.yul\":6332:6349   */\n      0x5175657374206e6f7420666f756e640000000000000000000000000000000000\n        /* \"#utility.yul\":6328:6329   */\n      0x00\n        /* \"#utility.yul\":6320:6326   */\n      dup3\n        /* \"#utility.yul\":6316:6330   */\n      add\n        /* \"#utility.yul\":6309:6350   */\n      mstore\n        /* \"#utility.yul\":6192:6357   */\n      pop\n      jump\t// out\n        /* \"#utility.yul\":6363:6729   */\n    tag_81:\n        /* \"#utility.yul\":6505:6508   */\n      0x00\n        /* \"#utility.yul\":6526:6593   */\n      tag_157\n        /* \"#utility.yul\":6590:6592   */\n      0x0f\n        /* \"#utility.yul\":6585:6588   */\n      dup4\n        /* \"#utility.yul\":6526:6593   */\n      tag_76\n      jump\t// in\n    tag_157:\n        /* \"#utility.yul\":6519:6593   */\n      swap2\n      pop\n        /* \"#utility.yul\":6602:6695   */\n      tag_158\n        /* \"#utility.yul\":6691:6694   */\n      dup3\n        /* \"#utility.yul\":6602:6695   */\n      tag_80\n      jump\t// in\n    tag_158:\n        /* \"#utility.yul\":6720:6722   */\n      0x20\n        /* \"#utility.yul\":6715:6718   */\n      dup3\n        /* \"#utility.yul\":6711:6723   */\n      add\n        /* \"#utility.yul\":6704:6723   */\n      swap1\n      pop\n        /* \"#utility.yul\":6363:6729   */\n      swap2\n      swap1\n      pop\n      jump\t// out\n        /* \"#utility.yul\":6735:7154   */\n    tag_59:\n        /* \"#utility.yul\":6901:6905   */\n      0x00\n        /* \"#utility.yul\":6939:6941   */\n      0x20\n        /* \"#utility.yul\":6928:6937   */\n      dup3\n        /* \"#utility.yul\":6924:6942   */\n      add\n        /* \"#utility.yul\":6916:6942   */\n      swap1\n      pop\n        /* \"#utility.yul\":6988:6997   */\n      dup2\n        /* \"#utility.yul\":6982:6986   */\n      dup2\n        /* \"#utility.yul\":6978:6998   */\n      sub\n        /* \"#utility.yul\":6974:6975   */\n      0x00\n        /* \"#utility.yul\":6963:6972   */\n      dup4\n        /* \"#utility.yul\":6959:6976   */\n      add\n        /* \"#utility.yul\":6952:6999   */\n      mstore\n        /* \"#utility.yul\":7016:7147   */\n      tag_160\n        /* \"#utility.yul\":7142:7146   */\n      dup2\n        /* \"#utility.yul\":7016:7147   */\n      tag_81\n      jump\t// in\n    tag_160:\n        /* \"#utility.yul\":7008:7147   */\n      swap1\n      pop\n        /* \"#utility.yul\":6735:7154   */\n      swap2\n      swap1\n      pop\n      jump\t// out\n        /* \"#utility.yul\":7160:7323   */\n    tag_82:\n        /* \"#utility.yul\":7300:7315   */\n      0x4c6576656c20746f6f206c6f7700000000000000000000000000000000000000\n        /* \"#utility.yul\":7296:7297   */\n      0x00\n        /* \"#utility.yul\":7288:7294   */\n      dup3\n        /* \"#utility.yul\":7284:7298   */\n      add\n        /* \"#utility.yul\":7277:7316   */\n      mstore\n        /* \"#utility.yul\":7160:7323   */\n      pop\n      jump\t// out\n        /* \"#utility.yul\":7329:7695   */\n    tag_83:\n        /* \"#utility.yul\":7471:7474   */\n      0x00\n        /* \"#utility.yul\":7492:7559   */\n      tag_163\n        /* \"#utility.yul\":7556:7558   */\n      0x0d\n        /* \"#utility.yul\":7551:7554   */\n      dup4\n        /* \"#utility.yul\":7492:7559   */\n      tag_76\n      jump\t// in\n    tag_163:\n        /* \"#utility.yul\":7485:7559   */\n      swap2\n      pop\n        /* \"#utility.yul\":7568:7661   */\n      tag_164\n        /* \"#utility.yul\":7657:7660   */\n      dup3\n        /* \"#utility.yul\":7568:7661   */\n      tag_82\n      jump\t// in\n    tag_164:\n        /* \"#utility.yul\":7686:7688   */\n      0x20\n        /* \"#utility.yul\":7681:7684   */\n      dup3\n        /* \"#utility.yul\":7677:7689   */\n      add\n        /* \"#utility.yul\":7670:7689   */\n      swap1\n      pop\n        /* \"#utility.yul\":7329:7695   */\n      swap2\n      swap1\n      pop\n      jump\t// out\n        /* \"#utility.yul\":7701:8120   */\n    tag_62:\n        /* \"#utility.yul\":7867:7871   */\n      0x00\n        /* \"#utility.yul\":7905:7907   */\n      0x20\n        /* \"#utility.yul\":7894:7903   */\n      dup3\n        /* \"#utility.yul\":7890:7908   */\n      add\n        /* \"#utility.yul\":7882:7908   */\n      swap1\n      pop\n        /* \"#utility.yul\":7954:7963   */\n      dup2\n        /* \"#utility.yul\":7948:7952   */\n      dup2\n        /* \"#utility.yul\":7944:7964   */\n      sub\n        /* \"#utility.yul\":7940:7941   */\n      0x00\n        /* \"#utility.yul\":7929:7938   */\n      dup4\n        /* \"#utility.yul\":7925:7942   */\n      add\n        /* \"#utility.yul\":7918:7965   */\n      mstore\n        /* \"#utility.yul\":7982:8113   */\n      tag_166\n        /* \"#utility.yul\":8108:8112   */\n      dup2\n        /* \"#utility.yul\":7982:8113   */\n      tag_83\n      jump\t// in\n    tag_166:\n        /* \"#utility.yul\":7974:8113   */\n      swap1\n      pop\n        /* \"#utility.yul\":7701:8120   */\n      swap2\n      swap1\n      pop\n      jump\t// out\n\n    auxdata: 0xa2646970667358221220b74ed194d690380e66dd5c2baf9545f17056e8f10091a7ac1b80f5e89997ff5964736f6c634300081e0033\n}\n",
				"bytecode": {
					"linkReferences": {},
					"object": "6080604052348015600e575f5ffd5b5060405180606001604052806064815260200160018152602001600115158152505f5f600181526020019081526020015f205f820151815f0155602082015181600101556040820151816002015f6101000a81548160ff021916908315150217905550905050604051806060016040528061012c815260200160028152602001600115158152505f5f600281526020019081526020015f205f820151815f0155602082015181600101556040820151816002015f6101000a81548160ff021916908315150217905550905050610b33806100e75f395ff3fe608060405234801561000f575f5ffd5b506004361061007b575f3560e01c80635c07a4b0116100595780635c07a4b0146100fb5780639e56354414610105578063e085f98014610121578063e2eb41ff146101535761007b565b80631c4b774b1461007f5780633e4b76cc146100af578063528be0a9146100df575b5f5ffd5b6100996004803603810190610094919061071a565b610185565b6040516100a69190610754565b60405180910390f35b6100c960048036038101906100c491906107c7565b6101a0565b6040516100d6919061081f565b60405180910390f35b6100f960048036038101906100f4919061071a565b6101ca565b005b6101036104b7565b005b61011f600480360381019061011a919061071a565b610531565b005b61013b6004803603810190610136919061071a565b61068c565b60405161014a93929190610838565b60405180910390f35b61016d6004803603810190610168919061086d565b6106bd565b60405161017c93929190610898565b60405180910390f35b5f5f5f8381526020019081526020015f205f01549050919050565b6002602052815f5260405f20602052805f5260405f205f915091509054906101000a900460ff1681565b60025f3373ffffffffffffffffffffffffffffffffffffffff1673ffffffffffffffffffffffffffffffffffffffff1681526020019081526020015f205f8281526020019081526020015f205f9054906101000a900460ff16610262576040517f08c379a000000000000000000000000000000000000000000000000000000000815260040161025990610927565b60405180910390fd5b5f5f5f8381526020019081526020015f205f015490508060015f3373ffffffffffffffffffffffffffffffffffffffff1673ffffffffffffffffffffffffffffffffffffffff1681526020019081526020015f206002015f8282546102c79190610972565b925050819055508060015f3373ffffffffffffffffffffffffffffffffffffffff1673ffffffffffffffffffffffffffffffffffffffff1681526020019081526020015f206001015f82825461031d9190610972565b9250508190555060c860015f3373ffffffffffffffffffffffffffffffffffffffff1673ffffffffffffffffffffffffffffffffffffffff1681526020019081526020015f205f015461037091906109a5565b60015f3373ffffffffffffffffffffffffffffffffffffffff1673ffffffffffffffffffffffffffffffffffffffff1681526020019081526020015f2060010154106104505760015f3373ffffffffffffffffffffffffffffffffffffffff1673ffffffffffffffffffffffffffffffffffffffff1681526020019081526020015f205f015f815480929190610405906109e6565b91905055505f60015f3373ffffffffffffffffffffffffffffffffffffffff1673ffffffffffffffffffffffffffffffffffffffff1681526020019081526020015f20600101819055505b5f60025f3373ffffffffffffffffffffffffffffffffffffffff1673ffffffffffffffffffffffffffffffffffffffff1681526020019081526020015f205f8481526020019081526020015f205f6101000a81548160ff0219169083151502179055505050565b6040518060600160405280600181526020015f81526020015f81525060015f3373ffffffffffffffffffffffffffffffffffffffff1673ffffffffffffffffffffffffffffffffffffffff1681526020019081526020015f205f820151815f01556020820151816001015560408201518160020155905050565b5f5f8281526020019081526020015f206002015f9054906101000a900460ff16610590576040517f08c379a000000000000000000000000000000000000000000000000000000000815260040161058790610a77565b60405180910390fd5b5f5f8281526020019081526020015f206001015460015f3373ffffffffffffffffffffffffffffffffffffffff1673ffffffffffffffffffffffffffffffffffffffff1681526020019081526020015f205f01541015610625576040517f08c379a000000000000000000000000000000000000000000000000000000000815260040161061c90610adf565b60405180910390fd5b600160025f3373ffffffffffffffffffffffffffffffffffffffff1673ffffffffffffffffffffffffffffffffffffffff1681526020019081526020015f205f8381526020019081526020015f205f6101000a81548160ff02191690831515021790555050565b5f602052805f5260405f205f91509050805f015490806001015490806002015f9054906101000a900460ff16905083565b6001602052805f5260405f205f91509050805f0154908060010154908060020154905083565b5f5ffd5b5f819050919050565b6106f9816106e7565b8114610703575f5ffd5b50565b5f81359050610714816106f0565b92915050565b5f6020828403121561072f5761072e6106e3565b5b5f61073c84828501610706565b91505092915050565b61074e816106e7565b82525050565b5f6020820190506107675f830184610745565b92915050565b5f73ffffffffffffffffffffffffffffffffffffffff82169050919050565b5f6107968261076d565b9050919050565b6107a68161078c565b81146107b0575f5ffd5b50565b5f813590506107c18161079d565b92915050565b5f5f604083850312156107dd576107dc6106e3565b5b5f6107ea858286016107b3565b92505060206107fb85828601610706565b9150509250929050565b5f8115159050919050565b61081981610805565b82525050565b5f6020820190506108325f830184610810565b92915050565b5f60608201905061084b5f830186610745565b6108586020830185610745565b6108656040830184610810565b949350505050565b5f60208284031215610882576108816106e3565b5b5f61088f848285016107b3565b91505092915050565b5f6060820190506108ab5f830186610745565b6108b86020830185610745565b6108c56040830184610745565b949350505050565b5f82825260208201905092915050565b7f5175657374206e6f7420616374697665000000000000000000000000000000005f82015250565b5f6109116010836108cd565b915061091c826108dd565b602082019050919050565b5f6020820190508181035f83015261093e81610905565b9050919050565b7f4e487b71000000000000000000000000000000000000000000000000000000005f52601160045260245ffd5b5f61097c826106e7565b9150610987836106e7565b925082820190508082111561099f5761099e610945565b5b92915050565b5f6109af826106e7565b91506109ba836106e7565b92508282026109c8816106e7565b915082820484148315176109df576109de610945565b5b5092915050565b5f6109f0826106e7565b91507fffffffffffffffffffffffffffffffffffffffffffffffffffffffffffffffff8203610a2257610a21610945565b5b600182019050919050565b7f5175657374206e6f7420666f756e6400000000000000000000000000000000005f82015250565b5f610a61600f836108cd565b9150610a6c82610a2d565b602082019050919050565b5f6020820190508181035f830152610a8e81610a55565b9050919050565b7f4c6576656c20746f6f206c6f77000000000000000000000000000000000000005f82015250565b5f610ac9600d836108cd565b9150610ad482610a95565b602082019050919050565b5f6020820190508181035f830152610af681610abd565b905091905056fea2646970667358221220b74ed194d690380e66dd5c2baf9545f17056e8f10091a7ac1b80f5e89997ff5964736f6c634300081e0033",
					"opcodes": "PUSH1 0x80 PUSH1 0x40 MSTORE CALLVALUE DUP1 ISZERO PUSH1 0xE JUMPI PUSH0 PUSH0 REVERT JUMPDEST POP PUSH1 0x40 MLOAD DUP1 PUSH1 0x60 ADD PUSH1 0x40 MSTORE DUP1 PUSH1 0x64 DUP2 MSTORE PUSH1 0x20 ADD PUSH1 0x1 DUP2 MSTORE PUSH1 0x20 ADD PUSH1 0x1 ISZERO ISZERO DUP2 MSTORE POP PUSH0 PUSH0 PUSH1 0x1 DUP2 MSTORE PUSH1 0x20 ADD SWAP1 DUP2 MSTORE PUSH1 0x20 ADD PUSH0 KECCAK256 PUSH0 DUP3 ADD MLOAD DUP2 PUSH0 ADD SSTORE PUSH1 0x20 DUP3 ADD MLOAD DUP2 PUSH1 0x1 ADD SSTORE PUSH1 0x40 DUP3 ADD MLOAD DUP2 PUSH1 0x2 ADD PUSH0 PUSH2 0x100 EXP DUP2 SLOAD DUP2 PUSH1 0xFF MUL NOT AND SWAP1 DUP4 ISZERO ISZERO MUL OR SWAP1 SSTORE POP SWAP1 POP POP PUSH1 0x40 MLOAD DUP1 PUSH1 0x60 ADD PUSH1 0x40 MSTORE DUP1 PUSH2 0x12C DUP2 MSTORE PUSH1 0x20 ADD PUSH1 0x2 DUP2 MSTORE PUSH1 0x20 ADD PUSH1 0x1 ISZERO ISZERO DUP2 MSTORE POP PUSH0 PUSH0 PUSH1 0x2 DUP2 MSTORE PUSH1 0x20 ADD SWAP1 DUP2 MSTORE PUSH1 0x20 ADD PUSH0 KECCAK256 PUSH0 DUP3 ADD MLOAD DUP2 PUSH0 ADD SSTORE PUSH1 0x20 DUP3 ADD MLOAD DUP2 PUSH1 0x1 ADD SSTORE PUSH1 0x40 DUP3 ADD MLOAD DUP2 PUSH1 0x2 ADD PUSH0 PUSH2 0x100 EXP DUP2 SLOAD DUP2 PUSH1 0xFF MUL NOT AND SWAP1 DUP4 ISZERO ISZERO MUL OR SWAP1 SSTORE POP SWAP1 POP POP PUSH2 0xB33 DUP1 PUSH2 0xE7 PUSH0 CODECOPY PUSH0 RETURN INVALID PUSH1 0x80 PUSH1 0x40 MSTORE CALLVALUE DUP1 ISZERO PUSH2 0xF JUMPI PUSH0 PUSH0 REVERT JUMPDEST POP PUSH1 0x4 CALLDATASIZE LT PUSH2 0x7B JUMPI PUSH0 CALLDATALOAD PUSH1 0xE0 SHR DUP1 PUSH4 0x5C07A4B0 GT PUSH2 0x59 JUMPI DUP1 PUSH4 0x5C07A4B0 EQ PUSH2 0xFB JUMPI DUP1 PUSH4 0x9E563544 EQ PUSH2 0x105 JUMPI DUP1 PUSH4 0xE085F980 EQ PUSH2 0x121 JUMPI DUP1 PUSH4 0xE2EB41FF EQ PUSH2 0x153 JUMPI PUSH2 0x7B JUMP JUMPDEST DUP1 PUSH4 0x1C4B774B EQ PUSH2 0x7F JUMPI DUP1 PUSH4 0x3E4B76CC EQ PUSH2 0xAF JUMPI DUP1 PUSH4 0x528BE0A9 EQ PUSH2 0xDF JUMPI JUMPDEST PUSH0 PUSH0 REVERT JUMPDEST PUSH2 0x99 PUSH1 0x4 DUP1 CALLDATASIZE SUB DUP2 ADD SWAP1 PUSH2 0x94 SWAP2 SWAP1 PUSH2 0x71A JUMP JUMPDEST PUSH2 0x185 JUMP JUMPDEST PUSH1 0x40 MLOAD PUSH2 0xA6 SWAP2 SWAP1 PUSH2 0x754 JUMP JUMPDEST PUSH1 0x40 MLOAD DUP1 SWAP2 SUB SWAP1 RETURN JUMPDEST PUSH2 0xC9 PUSH1 0x4 DUP1 CALLDATASIZE SUB DUP2 ADD SWAP1 PUSH2 0xC4 SWAP2 SWAP1 PUSH2 0x7C7 JUMP JUMPDEST PUSH2 0x1A0 JUMP JUMPDEST PUSH1 0x40 MLOAD PUSH2 0xD6 SWAP2 SWAP1 PUSH2 0x81F JUMP JUMPDEST PUSH1 0x40 MLOAD DUP1 SWAP2 SUB SWAP1 RETURN JUMPDEST PUSH2 0xF9 PUSH1 0x4 DUP1 CALLDATASIZE SUB DUP2 ADD SWAP1 PUSH2 0xF4 SWAP2 SWAP1 PUSH2 0x71A JUMP JUMPDEST PUSH2 0x1CA JUMP JUMPDEST STOP JUMPDEST PUSH2 0x103 PUSH2 0x4B7 JUMP JUMPDEST STOP JUMPDEST PUSH2 0x11F PUSH1 0x4 DUP1 CALLDATASIZE SUB DUP2 ADD SWAP1 PUSH2 0x11A SWAP2 SWAP1 PUSH2 0x71A JUMP JUMPDEST PUSH2 0x531 JUMP JUMPDEST STOP JUMPDEST PUSH2 0x13B PUSH1 0x4 DUP1 CALLDATASIZE SUB DUP2 ADD SWAP1 PUSH2 0x136 SWAP2 SWAP1 PUSH2 0x71A JUMP JUMPDEST PUSH2 0x68C JUMP JUMPDEST PUSH1 0x40 MLOAD PUSH2 0x14A SWAP4 SWAP3 SWAP2 SWAP1 PUSH2 0x838 JUMP JUMPDEST PUSH1 0x40 MLOAD DUP1 SWAP2 SUB SWAP1 RETURN JUMPDEST PUSH2 0x16D PUSH1 0x4 DUP1 CALLDATASIZE SUB DUP2 ADD SWAP1 PUSH2 0x168 SWAP2 SWAP1 PUSH2 0x86D JUMP JUMPDEST PUSH2 0x6BD JUMP JUMPDEST PUSH1 0x40 MLOAD PUSH2 0x17C SWAP4 SWAP3 SWAP2 SWAP1 PUSH2 0x898 JUMP JUMPDEST PUSH1 0x40 MLOAD DUP1 SWAP2 SUB SWAP1 RETURN JUMPDEST PUSH0 PUSH0 PUSH0 DUP4 DUP2 MSTORE PUSH1 0x20 ADD SWAP1 DUP2 MSTORE PUSH1 0x20 ADD PUSH0 KECCAK256 PUSH0 ADD SLOAD SWAP1 POP SWAP2 SWAP1 POP JUMP JUMPDEST PUSH1 0x2 PUSH1 0x20 MSTORE DUP2 PUSH0 MSTORE PUSH1 0x40 PUSH0 KECCAK256 PUSH1 0x20 MSTORE DUP1 PUSH0 MSTORE PUSH1 0x40 PUSH0 KECCAK256 PUSH0 SWAP2 POP SWAP2 POP SWAP1 SLOAD SWAP1 PUSH2 0x100 EXP SWAP1 DIV PUSH1 0xFF AND DUP2 JUMP JUMPDEST PUSH1 0x2 PUSH0 CALLER PUSH20 0xFFFFFFFFFFFFFFFFFFFFFFFFFFFFFFFFFFFFFFFF AND PUSH20 0xFFFFFFFFFFFFFFFFFFFFFFFFFFFFFFFFFFFFFFFF AND DUP2 MSTORE PUSH1 0x20 ADD SWAP1 DUP2 MSTORE PUSH1 0x20 ADD PUSH0 KECCAK256 PUSH0 DUP3 DUP2 MSTORE PUSH1 0x20 ADD SWAP1 DUP2 MSTORE PUSH1 0x20 ADD PUSH0 KECCAK256 PUSH0 SWAP1 SLOAD SWAP1 PUSH2 0x100 EXP SWAP1 DIV PUSH1 0xFF AND PUSH2 0x262 JUMPI PUSH1 0x40 MLOAD PUSH32 0x8C379A000000000000000000000000000000000000000000000000000000000 DUP2 MSTORE PUSH1 0x4 ADD PUSH2 0x259 SWAP1 PUSH2 0x927 JUMP JUMPDEST PUSH1 0x40 MLOAD DUP1 SWAP2 SUB SWAP1 REVERT JUMPDEST PUSH0 PUSH0 PUSH0 DUP4 DUP2 MSTORE PUSH1 0x20 ADD SWAP1 DUP2 MSTORE PUSH1 0x20 ADD PUSH0 KECCAK256 PUSH0 ADD SLOAD SWAP1 POP DUP1 PUSH1 0x1 PUSH0 CALLER PUSH20 0xFFFFFFFFFFFFFFFFFFFFFFFFFFFFFFFFFFFFFFFF AND PUSH20 0xFFFFFFFFFFFFFFFFFFFFFFFFFFFFFFFFFFFFFFFF AND DUP2 MSTORE PUSH1 0x20 ADD SWAP1 DUP2 MSTORE PUSH1 0x20 ADD PUSH0 KECCAK256 PUSH1 0x2 ADD PUSH0 DUP3 DUP3 SLOAD PUSH2 0x2C7 SWAP2 SWAP1 PUSH2 0x972 JUMP JUMPDEST SWAP3 POP POP DUP2 SWAP1 SSTORE POP DUP1 PUSH1 0x1 PUSH0 CALLER PUSH20 0xFFFFFFFFFFFFFFFFFFFFFFFFFFFFFFFFFFFFFFFF AND PUSH20 0xFFFFFFFFFFFFFFFFFFFFFFFFFFFFFFFFFFFFFFFF AND DUP2 MSTORE PUSH1 0x20 ADD SWAP1 DUP2 MSTORE PUSH1 0x20 ADD PUSH0 KECCAK256 PUSH1 0x1 ADD PUSH0 DUP3 DUP3 SLOAD PUSH2 0x31D SWAP2 SWAP1 PUSH2 0x972 JUMP JUMPDEST SWAP3 POP POP DUP2 SWAP1 SSTORE POP PUSH1 0xC8 PUSH1 0x1 PUSH0 CALLER PUSH20 0xFFFFFFFFFFFFFFFFFFFFFFFFFFFFFFFFFFFFFFFF AND PUSH20 0xFFFFFFFFFFFFFFFFFFFFFFFFFFFFFFFFFFFFFFFF AND DUP2 MSTORE PUSH1 0x20 ADD SWAP1 DUP2 MSTORE PUSH1 0x20 ADD PUSH0 KECCAK256 PUSH0 ADD SLOAD PUSH2 0x370 SWAP2 SWAP1 PUSH2 0x9A5 JUMP JUMPDEST PUSH1 0x1 PUSH0 CALLER PUSH20 0xFFFFFFFFFFFFFFFFFFFFFFFFFFFFFFFFFFFFFFFF AND PUSH20 0xFFFFFFFFFFFFFFFFFFFFFFFFFFFFFFFFFFFFFFFF AND DUP2 MSTORE PUSH1 0x20 ADD SWAP1 DUP2 MSTORE PUSH1 0x20 ADD PUSH0 KECCAK256 PUSH1 0x1 ADD SLOAD LT PUSH2 0x450 JUMPI PUSH1 0x1 PUSH0 CALLER PUSH20 0xFFFFFFFFFFFFFFFFFFFFFFFFFFFFFFFFFFFFFFFF AND PUSH20 0xFFFFFFFFFFFFFFFFFFFFFFFFFFFFFFFFFFFFFFFF AND DUP2 MSTORE PUSH1 0x20 ADD SWAP1 DUP2 MSTORE PUSH1 0x20 ADD PUSH0 KECCAK256 PUSH0 ADD PUSH0 DUP2 SLOAD DUP1 SWAP3 SWAP2 SWAP1 PUSH2 0x405 SWAP1 PUSH2 0x9E6 JUMP JUMPDEST SWAP2 SWAP1 POP SSTORE POP PUSH0 PUSH1 0x1 PUSH0 CALLER PUSH20 0xFFFFFFFFFFFFFFFFFFFFFFFFFFFFFFFFFFFFFFFF AND PUSH20 0xFFFFFFFFFFFFFFFFFFFFFFFFFFFFFFFFFFFFFFFF AND DUP2 MSTORE PUSH1 0x20 ADD SWAP1 DUP2 MSTORE PUSH1 0x20 ADD PUSH0 KECCAK256 PUSH1 0x1 ADD DUP2 SWAP1 SSTORE POP JUMPDEST PUSH0 PUSH1 0x2 PUSH0 CALLER PUSH20 0xFFFFFFFFFFFFFFFFFFFFFFFFFFFFFFFFFFFFFFFF AND PUSH20 0xFFFFFFFFFFFFFFFFFFFFFFFFFFFFFFFFFFFFFFFF AND DUP2 MSTORE PUSH1 0x20 ADD SWAP1 DUP2 MSTORE PUSH1 0x20 ADD PUSH0 KECCAK256 PUSH0 DUP5 DUP2 MSTORE PUSH1 0x20 ADD SWAP1 DUP2 MSTORE PUSH1 0x20 ADD PUSH0 KECCAK256 PUSH0 PUSH2 0x100 EXP DUP2 SLOAD DUP2 PUSH1 0xFF MUL NOT AND SWAP1 DUP4 ISZERO ISZERO MUL OR SWAP1 SSTORE POP POP POP JUMP JUMPDEST PUSH1 0x40 MLOAD DUP1 PUSH1 0x60 ADD PUSH1 0x40 MSTORE DUP1 PUSH1 0x1 DUP2 MSTORE PUSH1 0x20 ADD PUSH0 DUP2 MSTORE PUSH1 0x20 ADD PUSH0 DUP2 MSTORE POP PUSH1 0x1 PUSH0 CALLER PUSH20 0xFFFFFFFFFFFFFFFFFFFFFFFFFFFFFFFFFFFFFFFF AND PUSH20 0xFFFFFFFFFFFFFFFFFFFFFFFFFFFFFFFFFFFFFFFF AND DUP2 MSTORE PUSH1 0x20 ADD SWAP1 DUP2 MSTORE PUSH1 0x20 ADD PUSH0 KECCAK256 PUSH0 DUP3 ADD MLOAD DUP2 PUSH0 ADD SSTORE PUSH1 0x20 DUP3 ADD MLOAD DUP2 PUSH1 0x1 ADD SSTORE PUSH1 0x40 DUP3 ADD MLOAD DUP2 PUSH1 0x2 ADD SSTORE SWAP1 POP POP JUMP JUMPDEST PUSH0 PUSH0 DUP3 DUP2 MSTORE PUSH1 0x20 ADD SWAP1 DUP2 MSTORE PUSH1 0x20 ADD PUSH0 KECCAK256 PUSH1 0x2 ADD PUSH0 SWAP1 SLOAD SWAP1 PUSH2 0x100 EXP SWAP1 DIV PUSH1 0xFF AND PUSH2 0x590 JUMPI PUSH1 0x40 MLOAD PUSH32 0x8C379A000000000000000000000000000000000000000000000000000000000 DUP2 MSTORE PUSH1 0x4 ADD PUSH2 0x587 SWAP1 PUSH2 0xA77 JUMP JUMPDEST PUSH1 0x40 MLOAD DUP1 SWAP2 SUB SWAP1 REVERT JUMPDEST PUSH0 PUSH0 DUP3 DUP2 MSTORE PUSH1 0x20 ADD SWAP1 DUP2 MSTORE PUSH1 0x20 ADD PUSH0 KECCAK256 PUSH1 0x1 ADD SLOAD PUSH1 0x1 PUSH0 CALLER PUSH20 0xFFFFFFFFFFFFFFFFFFFFFFFFFFFFFFFFFFFFFFFF AND PUSH20 0xFFFFFFFFFFFFFFFFFFFFFFFFFFFFFFFFFFFFFFFF AND DUP2 MSTORE PUSH1 0x20 ADD SWAP1 DUP2 MSTORE PUSH1 0x20 ADD PUSH0 KECCAK256 PUSH0 ADD SLOAD LT ISZERO PUSH2 0x625 JUMPI PUSH1 0x40 MLOAD PUSH32 0x8C379A000000000000000000000000000000000000000000000000000000000 DUP2 MSTORE PUSH1 0x4 ADD PUSH2 0x61C SWAP1 PUSH2 0xADF JUMP JUMPDEST PUSH1 0x40 MLOAD DUP1 SWAP2 SUB SWAP1 REVERT JUMPDEST PUSH1 0x1 PUSH1 0x2 PUSH0 CALLER PUSH20 0xFFFFFFFFFFFFFFFFFFFFFFFFFFFFFFFFFFFFFFFF AND PUSH20 0xFFFFFFFFFFFFFFFFFFFFFFFFFFFFFFFFFFFFFFFF AND DUP2 MSTORE PUSH1 0x20 ADD SWAP1 DUP2 MSTORE PUSH1 0x20 ADD PUSH0 KECCAK256 PUSH0 DUP4 DUP2 MSTORE PUSH1 0x20 ADD SWAP1 DUP2 MSTORE PUSH1 0x20 ADD PUSH0 KECCAK256 PUSH0 PUSH2 0x100 EXP DUP2 SLOAD DUP2 PUSH1 0xFF MUL NOT AND SWAP1 DUP4 ISZERO ISZERO MUL OR SWAP1 SSTORE POP POP JUMP JUMPDEST PUSH0 PUSH1 0x20 MSTORE DUP1 PUSH0 MSTORE PUSH1 0x40 PUSH0 KECCAK256 PUSH0 SWAP2 POP SWAP1 POP DUP1 PUSH0 ADD SLOAD SWAP1 DUP1 PUSH1 0x1 ADD SLOAD SWAP1 DUP1 PUSH1 0x2 ADD PUSH0 SWAP1 SLOAD SWAP1 PUSH2 0x100 EXP SWAP1 DIV PUSH1 0xFF AND SWAP1 POP DUP4 JUMP JUMPDEST PUSH1 0x1 PUSH1 0x20 MSTORE DUP1 PUSH0 MSTORE PUSH1 0x40 PUSH0 KECCAK256 PUSH0 SWAP2 POP SWAP1 POP DUP1 PUSH0 ADD SLOAD SWAP1 DUP1 PUSH1 0x1 ADD SLOAD SWAP1 DUP1 PUSH1 0x2 ADD SLOAD SWAP1 POP DUP4 JUMP JUMPDEST PUSH0 PUSH0 REVERT JUMPDEST PUSH0 DUP2 SWAP1 POP SWAP2 SWAP1 POP JUMP JUMPDEST PUSH2 0x6F9 DUP2 PUSH2 0x6E7 JUMP JUMPDEST DUP2 EQ PUSH2 0x703 JUMPI PUSH0 PUSH0 REVERT JUMPDEST POP JUMP JUMPDEST PUSH0 DUP2 CALLDATALOAD SWAP1 POP PUSH2 0x714 DUP2 PUSH2 0x6F0 JUMP JUMPDEST SWAP3 SWAP2 POP POP JUMP JUMPDEST PUSH0 PUSH1 0x20 DUP3 DUP5 SUB SLT ISZERO PUSH2 0x72F JUMPI PUSH2 0x72E PUSH2 0x6E3 JUMP JUMPDEST JUMPDEST PUSH0 PUSH2 0x73C DUP5 DUP3 DUP6 ADD PUSH2 0x706 JUMP JUMPDEST SWAP2 POP POP SWAP3 SWAP2 POP POP JUMP JUMPDEST PUSH2 0x74E DUP2 PUSH2 0x6E7 JUMP JUMPDEST DUP3 MSTORE POP POP JUMP JUMPDEST PUSH0 PUSH1 0x20 DUP3 ADD SWAP1 POP PUSH2 0x767 PUSH0 DUP4 ADD DUP5 PUSH2 0x745 JUMP JUMPDEST SWAP3 SWAP2 POP POP JUMP JUMPDEST PUSH0 PUSH20 0xFFFFFFFFFFFFFFFFFFFFFFFFFFFFFFFFFFFFFFFF DUP3 AND SWAP1 POP SWAP2 SWAP1 POP JUMP JUMPDEST PUSH0 PUSH2 0x796 DUP3 PUSH2 0x76D JUMP JUMPDEST SWAP1 POP SWAP2 SWAP1 POP JUMP JUMPDEST PUSH2 0x7A6 DUP2 PUSH2 0x78C JUMP JUMPDEST DUP2 EQ PUSH2 0x7B0 JUMPI PUSH0 PUSH0 REVERT JUMPDEST POP JUMP JUMPDEST PUSH0 DUP2 CALLDATALOAD SWAP1 POP PUSH2 0x7C1 DUP2 PUSH2 0x79D JUMP JUMPDEST SWAP3 SWAP2 POP POP JUMP JUMPDEST PUSH0 PUSH0 PUSH1 0x40 DUP4 DUP6 SUB SLT ISZERO PUSH2 0x7DD JUMPI PUSH2 0x7DC PUSH2 0x6E3 JUMP JUMPDEST JUMPDEST PUSH0 PUSH2 0x7EA DUP6 DUP3 DUP7 ADD PUSH2 0x7B3 JUMP JUMPDEST SWAP3 POP POP PUSH1 0x20 PUSH2 0x7FB DUP6 DUP3 DUP7 ADD PUSH2 0x706 JUMP JUMPDEST SWAP2 POP POP SWAP3 POP SWAP3 SWAP1 POP JUMP JUMPDEST PUSH0 DUP2 ISZERO ISZERO SWAP1 POP SWAP2 SWAP1 POP JUMP JUMPDEST PUSH2 0x819 DUP2 PUSH2 0x805 JUMP JUMPDEST DUP3 MSTORE POP POP JUMP JUMPDEST PUSH0 PUSH1 0x20 DUP3 ADD SWAP1 POP PUSH2 0x832 PUSH0 DUP4 ADD DUP5 PUSH2 0x810 JUMP JUMPDEST SWAP3 SWAP2 POP POP JUMP JUMPDEST PUSH0 PUSH1 0x60 DUP3 ADD SWAP1 POP PUSH2 0x84B PUSH0 DUP4 ADD DUP7 PUSH2 0x745 JUMP JUMPDEST PUSH2 0x858 PUSH1 0x20 DUP4 ADD DUP6 PUSH2 0x745 JUMP JUMPDEST PUSH2 0x865 PUSH1 0x40 DUP4 ADD DUP5 PUSH2 0x810 JUMP JUMPDEST SWAP5 SWAP4 POP POP POP POP JUMP JUMPDEST PUSH0 PUSH1 0x20 DUP3 DUP5 SUB SLT ISZERO PUSH2 0x882 JUMPI PUSH2 0x881 PUSH2 0x6E3 JUMP JUMPDEST JUMPDEST PUSH0 PUSH2 0x88F DUP5 DUP3 DUP6 ADD PUSH2 0x7B3 JUMP JUMPDEST SWAP2 POP POP SWAP3 SWAP2 POP POP JUMP JUMPDEST PUSH0 PUSH1 0x60 DUP3 ADD SWAP1 POP PUSH2 0x8AB PUSH0 DUP4 ADD DUP7 PUSH2 0x745 JUMP JUMPDEST PUSH2 0x8B8 PUSH1 0x20 DUP4 ADD DUP6 PUSH2 0x745 JUMP JUMPDEST PUSH2 0x8C5 PUSH1 0x40 DUP4 ADD DUP5 PUSH2 0x745 JUMP JUMPDEST SWAP5 SWAP4 POP POP POP POP JUMP JUMPDEST PUSH0 DUP3 DUP3 MSTORE PUSH1 0x20 DUP3 ADD SWAP1 POP SWAP3 SWAP2 POP POP JUMP JUMPDEST PUSH32 0x5175657374206E6F742061637469766500000000000000000000000000000000 PUSH0 DUP3 ADD MSTORE POP JUMP JUMPDEST PUSH0 PUSH2 0x911 PUSH1 0x10 DUP4 PUSH2 0x8CD JUMP JUMPDEST SWAP2 POP PUSH2 0x91C DUP3 PUSH2 0x8DD JUMP JUMPDEST PUSH1 0x20 DUP3 ADD SWAP1 POP SWAP2 SWAP1 POP JUMP JUMPDEST PUSH0 PUSH1 0x20 DUP3 ADD SWAP1 POP DUP2 DUP2 SUB PUSH0 DUP4 ADD MSTORE PUSH2 0x93E DUP2 PUSH2 0x905 JUMP JUMPDEST SWAP1 POP SWAP2 SWAP1 POP JUMP JUMPDEST PUSH32 0x4E487B7100000000000000000000000000000000000000000000000000000000 PUSH0 MSTORE PUSH1 0x11 PUSH1 0x4 MSTORE PUSH1 0x24 PUSH0 REVERT JUMPDEST PUSH0 PUSH2 0x97C DUP3 PUSH2 0x6E7 JUMP JUMPDEST SWAP2 POP PUSH2 0x987 DUP4 PUSH2 0x6E7 JUMP JUMPDEST SWAP3 POP DUP3 DUP3 ADD SWAP1 POP DUP1 DUP3 GT ISZERO PUSH2 0x99F JUMPI PUSH2 0x99E PUSH2 0x945 JUMP JUMPDEST JUMPDEST SWAP3 SWAP2 POP POP JUMP JUMPDEST PUSH0 PUSH2 0x9AF DUP3 PUSH2 0x6E7 JUMP JUMPDEST SWAP2 POP PUSH2 0x9BA DUP4 PUSH2 0x6E7 JUMP JUMPDEST SWAP3 POP DUP3 DUP3 MUL PUSH2 0x9C8 DUP2 PUSH2 0x6E7 JUMP JUMPDEST SWAP2 POP DUP3 DUP3 DIV DUP5 EQ DUP4 ISZERO OR PUSH2 0x9DF JUMPI PUSH2 0x9DE PUSH2 0x945 JUMP JUMPDEST JUMPDEST POP SWAP3 SWAP2 POP POP JUMP JUMPDEST PUSH0 PUSH2 0x9F0 DUP3 PUSH2 0x6E7 JUMP JUMPDEST SWAP2 POP PUSH32 0xFFFFFFFFFFFFFFFFFFFFFFFFFFFFFFFFFFFFFFFFFFFFFFFFFFFFFFFFFFFFFFFF DUP3 SUB PUSH2 0xA22 JUMPI PUSH2 0xA21 PUSH2 0x945 JUMP JUMPDEST JUMPDEST PUSH1 0x1 DUP3 ADD SWAP1 POP SWAP2 SWAP1 POP JUMP JUMPDEST PUSH32 0x5175657374206E6F7420666F756E640000000000000000000000000000000000 PUSH0 DUP3 ADD MSTORE POP JUMP JUMPDEST PUSH0 PUSH2 0xA61 PUSH1 0xF DUP4 PUSH2 0x8CD JUMP JUMPDEST SWAP2 POP PUSH2 0xA6C DUP3 PUSH2 0xA2D JUMP JUMPDEST PUSH1 0x20 DUP3 ADD SWAP1 POP SWAP2 SWAP1 POP JUMP JUMPDEST PUSH0 PUSH1 0x20 DUP3 ADD SWAP1 POP DUP2 DUP2 SUB PUSH0 DUP4 ADD MSTORE PUSH2 0xA8E DUP2 PUSH2 0xA55 JUMP JUMPDEST SWAP1 POP SWAP2 SWAP1 POP JUMP JUMPDEST PUSH32 0x4C6576656C20746F6F206C6F7700000000000000000000000000000000000000 PUSH0 DUP3 ADD MSTORE POP JUMP JUMPDEST PUSH0 PUSH2 0xAC9 PUSH1 0xD DUP4 PUSH2 0x8CD JUMP JUMPDEST SWAP2 POP PUSH2 0xAD4 DUP3 PUSH2 0xA95 JUMP JUMPDEST PUSH1 0x20 DUP3 ADD SWAP1 POP SWAP2 SWAP1 POP JUMP JUMPDEST PUSH0 PUSH1 0x20 DUP3 ADD SWAP1 POP DUP2 DUP2 SUB PUSH0 DUP4 ADD MSTORE PUSH2 0xAF6 DUP2 PUSH2 0xABD JUMP JUMPDEST SWAP1 POP SWAP2 SWAP1 POP JUMP INVALID LOG2 PUSH5 0x6970667358 0x22 SLT KECCAK256 0xB7 0x4E DATALOADN 0x94D6 SWAP1 CODESIZE 0xE PUSH7 0xDD5C2BAF9545F1 PUSH17 0x56E8F10091A7AC1B80F5E89997FF596473 PUSH16 0x6C634300081E00330000000000000000 "
				},
				"gasEstimates": {
					"creation": {
						"codeDepositCost": "573400",
						"executionCost": "137958",
						"totalCost": "711358"
					},
					"external": {
						"activeQuests(address,uint256)": "3093",
						"completeQuest(uint256)": "infinite",
						"getReward(uint256)": "infinite",
						"players(address)": "infinite",
						"quests(uint256)": "infinite",
						"registerPlayer()": "32476",
						"startQuest(uint256)": "31484"
					}
				},
				"methodIdentifiers": {
					"activeQuests(address,uint256)": "3e4b76cc",
					"completeQuest(uint256)": "528be0a9",
					"getReward(uint256)": "1c4b774b",
					"players(address)": "e2eb41ff",
					"quests(uint256)": "e085f980",
					"registerPlayer()": "5c07a4b0",
					"startQuest(uint256)": "9e563544"
				}
			},
			"storageLayout": {
				"storage": [
					{
						"astId": 40,
						"contract": "contracts/GameSystem.sol:QuestManager",
						"label": "quests",
						"offset": 0,
						"slot": "0",
						"type": "t_mapping(t_uint256,t_struct(Quest)28_storage)"
					},
					{
						"astId": 45,
						"contract": "contracts/GameSystem.sol:QuestManager",
						"label": "players",
						"offset": 0,
						"slot": "1",
						"type": "t_mapping(t_address,t_struct(Player)35_storage)"
					},
					{
						"astId": 51,
						"contract": "contracts/GameSystem.sol:QuestManager",
						"label": "activeQuests",
						"offset": 0,
						"slot": "2",
						"type": "t_mapping(t_address,t_mapping(t_uint256,t_bool))"
					}
				],
				"types": {
					"t_address": {
						"encoding": "inplace",
						"label": "address",
						"numberOfBytes": "20"
					},
					"t_bool": {
						"encoding": "inplace",
						"label": "bool",
						"numberOfBytes": "1"
					},
					"t_mapping(t_address,t_mapping(t_uint256,t_bool))": {
						"encoding": "mapping",
						"key": "t_address",
						"label": "mapping(address => mapping(uint256 => bool))",
						"numberOfBytes": "32",
						"value": "t_mapping(t_uint256,t_bool)"
					},
					"t_mapping(t_address,t_struct(Player)35_storage)": {
						"encoding": "mapping",
						"key": "t_address",
						"label": "mapping(address => struct QuestManager.Player)",
						"numberOfBytes": "32",
						"value": "t_struct(Player)35_storage"
					},
					"t_mapping(t_uint256,t_bool)": {
						"encoding": "mapping",
						"key": "t_uint256",
						"label": "mapping(uint256 => bool)",
						"numberOfBytes": "32",
						"value": "t_bool"
					},
					"t_mapping(t_uint256,t_struct(Quest)28_storage)": {
						"encoding": "mapping",
						"key": "t_uint256",
						"label": "mapping(uint256 => struct QuestManager.Quest)",
						"numberOfBytes": "32",
						"value": "t_struct(Quest)28_storage"
					},
					"t_struct(Player)35_storage": {
						"encoding": "inplace",
						"label": "struct QuestManager.Player",
						"members": [
							{
								"astId": 30,
								"contract": "contracts/GameSystem.sol:QuestManager",
								"label": "level",
								"offset": 0,
								"slot": "0",
								"type": "t_uint256"
							},
							{
								"astId": 32,
								"contract": "contracts/GameSystem.sol:QuestManager",
								"label": "experience",
								"offset": 0,
								"slot": "1",
								"type": "t_uint256"
							},
							{
								"astId": 34,
								"contract": "contracts/GameSystem.sol:QuestManager",
								"label": "gold",
								"offset": 0,
								"slot": "2",
								"type": "t_uint256"
							}
						],
						"numberOfBytes": "96"
					},
					"t_struct(Quest)28_storage": {
						"encoding": "inplace",
						"label": "struct QuestManager.Quest",
						"members": [
							{
								"astId": 23,
								"contract": "contracts/GameSystem.sol:QuestManager",
								"label": "reward",
								"offset": 0,
								"slot": "0",
								"type": "t_uint256"
							},
							{
								"astId": 25,
								"contract": "contracts/GameSystem.sol:QuestManager",
								"label": "requiredLevel",
								"offset": 0,
								"slot": "1",
								"type": "t_uint256"
							},
							{
								"astId": 27,
								"contract": "contracts/GameSystem.sol:QuestManager",
								"label": "exists",
								"offset": 0,
								"slot": "2",
								"type": "t_bool"
							}
						],
						"numberOfBytes": "96"
					},
					"t_uint256": {
						"encoding": "inplace",
						"label": "uint256",
						"numberOfBytes": "32"
					}
				}
			},
			"userdoc": {
				"kind": "user",
				"methods": {},
				"version": 1
			}
		}
	}
}