{
	"contracts/GameSystem.sol": {
		"ResourceManager": {
			"abi": [
				{
					"inputs": [],
					"name": "getEnergy",
					"outputs": [
						{
							"internalType": "uint256",
							"name": "",
							"type": "uint256"
						}
					],
					"stateMutability": "view",
					"type": "function"
				},
				{
					"inputs": [
						{
							"internalType": "address",
							"name": "",
							"type": "address"
						}
					],
					"name": "playerResources",
					"outputs": [
						{
							"internalType": "uint256",
							"name": "energy",
							"type": "uint256"
						},
						{
							"internalType": "uint256",
							"name": "gold",
							"type": "uint256"
						},
						{
							"internalType": "uint256",
							"name": "level",
							"type": "uint256"
						}
					],
					"stateMutability": "view",
					"type": "function"
				},
				{
					"inputs": [],
					"name": "register",
					"outputs": [],
					"stateMutability": "nonpayable",
					"type": "function"
				},
				{
					"inputs": [],
					"name": "upgradeLevel",
					"outputs": [],
					"stateMutability": "nonpayable",
					"type": "function"
				}
			],
			"devdoc": {
				"kind": "dev",
				"methods": {},
				"version": 1
			},
			"evm": {
				"assembly": "    /* \"contracts/GameSystem.sol\":2353:3100  contract ResourceManager {... */\n  mstore(0x40, 0x80)\n  callvalue\n  dup1\n  iszero\n  tag_1\n  jumpi\n  revert(0x00, 0x00)\ntag_1:\n  pop\n  dataSize(sub_0)\n  dup1\n  dataOffset(sub_0)\n  0x00\n  codecopy\n  0x00\n  return\nstop\n\nsub_0: assembly {\n        /* \"contracts/GameSystem.sol\":2353:3100  contract ResourceManager {... */\n      mstore(0x40, 0x80)\n      callvalue\n      dup1\n      iszero\n      tag_1\n      jumpi\n      revert(0x00, 0x00)\n    tag_1:\n      pop\n      jumpi(tag_2, lt(calldatasize, 0x04))\n      shr(0xe0, calldataload(0x00))\n      dup1\n      0x02dd3e52\n      eq\n      tag_3\n      jumpi\n      dup1\n      0x1aa3a008\n      eq\n      tag_4\n      jumpi\n      dup1\n      0x1eeb2d4f\n      eq\n      tag_5\n      jumpi\n      dup1\n      0xc02e7057\n      eq\n      tag_6\n      jumpi\n    tag_2:\n      revert(0x00, 0x00)\n        /* \"contracts/GameSystem.sol\":2882:3097  function upgradeLevel() external {... */\n    tag_3:\n      tag_7\n      tag_8\n      jump\t// in\n    tag_7:\n      stop\n        /* \"contracts/GameSystem.sol\":2593:2693  function register() external {... */\n    tag_4:\n      tag_9\n      tag_10\n      jump\t// in\n    tag_9:\n      stop\n        /* \"contracts/GameSystem.sol\":2532:2584  mapping(address => Resources) public playerResources */\n    tag_5:\n      tag_11\n      0x04\n      dup1\n      calldatasize\n      sub\n      dup2\n      add\n      swap1\n      tag_12\n      swap2\n      swap1\n      tag_13\n      jump\t// in\n    tag_12:\n      tag_14\n      jump\t// in\n    tag_11:\n      mload(0x40)\n      tag_15\n      swap4\n      swap3\n      swap2\n      swap1\n      tag_16\n      jump\t// in\n    tag_15:\n      mload(0x40)\n      dup1\n      swap2\n      sub\n      swap1\n      return\n        /* \"contracts/GameSystem.sol\":2701:2874  function getEnergy() external view returns (uint256) {... */\n    tag_6:\n      tag_17\n      tag_18\n      jump\t// in\n    tag_17:\n      mload(0x40)\n      tag_19\n      swap2\n      swap1\n      tag_20\n      jump\t// in\n    tag_19:\n      mload(0x40)\n      dup1\n      swap2\n      sub\n      swap1\n      return\n        /* \"contracts/GameSystem.sol\":2882:3097  function upgradeLevel() external {... */\n    tag_8:\n        /* \"contracts/GameSystem.sol\":2926:2945  Resources storage r */\n      0x00\n        /* \"contracts/GameSystem.sol\":2948:2963  playerResources */\n      0x00\n        /* \"contracts/GameSystem.sol\":2948:2975  playerResources[msg.sender] */\n      0x00\n        /* \"contracts/GameSystem.sol\":2964:2974  msg.sender */\n      caller\n        /* \"contracts/GameSystem.sol\":2948:2975  playerResources[msg.sender] */\n      0xffffffffffffffffffffffffffffffffffffffff\n      and\n      0xffffffffffffffffffffffffffffffffffffffff\n      and\n      dup2\n      mstore\n      0x20\n      add\n      swap1\n      dup2\n      mstore\n      0x20\n      add\n      0x00\n      keccak256\n        /* \"contracts/GameSystem.sol\":2926:2975  Resources storage r = playerResources[msg.sender] */\n      swap1\n      pop\n        /* \"contracts/GameSystem.sol\":2988:3000  uint256 cost */\n      0x00\n        /* \"contracts/GameSystem.sol\":3003:3024  r.level.upgradeCost() */\n      tag_22\n        /* \"contracts/GameSystem.sol\":3003:3004  r */\n      dup3\n        /* \"contracts/GameSystem.sol\":3003:3010  r.level */\n      0x02\n      add\n      sload\n        /* \"contracts/GameSystem.sol\":3003:3022  r.level.upgradeCost */\n      tag_23\n        /* \"contracts/GameSystem.sol\":3003:3024  r.level.upgradeCost() */\n      jump\t// in\n    tag_22:\n        /* \"contracts/GameSystem.sol\":2988:3024  uint256 cost = r.level.upgradeCost() */\n      swap1\n      pop\n        /* \"contracts/GameSystem.sol\":3044:3069  r.gold.optimizeGold(cost) */\n      tag_24\n        /* \"contracts/GameSystem.sol\":3064:3068  cost */\n      dup2\n        /* \"contracts/GameSystem.sol\":3044:3045  r */\n      dup4\n        /* \"contracts/GameSystem.sol\":3044:3050  r.gold */\n      0x01\n      add\n      sload\n        /* \"contracts/GameSystem.sol\":3044:3063  r.gold.optimizeGold */\n      tag_25\n      swap1\n        /* \"contracts/GameSystem.sol\":3044:3069  r.gold.optimizeGold(cost) */\n      swap2\n      swap1\n      0xffffffff\n      and\n      jump\t// in\n    tag_24:\n        /* \"contracts/GameSystem.sol\":3035:3036  r */\n      dup3\n        /* \"contracts/GameSystem.sol\":3035:3041  r.gold */\n      0x01\n      add\n        /* \"contracts/GameSystem.sol\":3035:3069  r.gold = r.gold.optimizeGold(cost) */\n      dup2\n      swap1\n      sstore\n      pop\n        /* \"contracts/GameSystem.sol\":3080:3081  r */\n      dup2\n        /* \"contracts/GameSystem.sol\":3080:3087  r.level */\n      0x02\n      add\n      0x00\n        /* \"contracts/GameSystem.sol\":3080:3089  r.level++ */\n      dup2\n      sload\n      dup1\n      swap3\n      swap2\n      swap1\n      tag_26\n      swap1\n      tag_27\n      jump\t// in\n    tag_26:\n      swap2\n      swap1\n      pop\n      sstore\n      pop\n        /* \"contracts/GameSystem.sol\":2915:3097  {... */\n      pop\n      pop\n        /* \"contracts/GameSystem.sol\":2882:3097  function upgradeLevel() external {... */\n      jump\t// out\n        /* \"contracts/GameSystem.sol\":2593:2693  function register() external {... */\n    tag_10:\n        /* \"contracts/GameSystem.sol\":2663:2685  Resources(100, 500, 1) */\n      mload(0x40)\n      dup1\n      0x60\n      add\n      0x40\n      mstore\n      dup1\n        /* \"contracts/GameSystem.sol\":2673:2676  100 */\n      0x64\n        /* \"contracts/GameSystem.sol\":2663:2685  Resources(100, 500, 1) */\n      dup2\n      mstore\n      0x20\n      add\n        /* \"contracts/GameSystem.sol\":2678:2681  500 */\n      0x01f4\n        /* \"contracts/GameSystem.sol\":2663:2685  Resources(100, 500, 1) */\n      dup2\n      mstore\n      0x20\n      add\n        /* \"contracts/GameSystem.sol\":2683:2684  1 */\n      0x01\n        /* \"contracts/GameSystem.sol\":2663:2685  Resources(100, 500, 1) */\n      dup2\n      mstore\n      pop\n        /* \"contracts/GameSystem.sol\":2633:2648  playerResources */\n      0x00\n        /* \"contracts/GameSystem.sol\":2633:2660  playerResources[msg.sender] */\n      0x00\n        /* \"contracts/GameSystem.sol\":2649:2659  msg.sender */\n      caller\n        /* \"contracts/GameSystem.sol\":2633:2660  playerResources[msg.sender] */\n      0xffffffffffffffffffffffffffffffffffffffff\n      and\n      0xffffffffffffffffffffffffffffffffffffffff\n      and\n      dup2\n      mstore\n      0x20\n      add\n      swap1\n      dup2\n      mstore\n      0x20\n      add\n      0x00\n      keccak256\n        /* \"contracts/GameSystem.sol\":2633:2685  playerResources[msg.sender] = Resources(100, 500, 1) */\n      0x00\n      dup3\n      add\n      mload\n      dup2\n      0x00\n      add\n      sstore\n      0x20\n      dup3\n      add\n      mload\n      dup2\n      0x01\n      add\n      sstore\n      0x40\n      dup3\n      add\n      mload\n      dup2\n      0x02\n      add\n      sstore\n      swap1\n      pop\n      pop\n        /* \"contracts/GameSystem.sol\":2593:2693  function register() external {... */\n      jump\t// out\n        /* \"contracts/GameSystem.sol\":2532:2584  mapping(address => Resources) public playerResources */\n    tag_14:\n      mstore(0x20, 0x00)\n      dup1\n      0x00\n      mstore\n      keccak256(0x00, 0x40)\n      0x00\n      swap2\n      pop\n      swap1\n      pop\n      dup1\n      0x00\n      add\n      sload\n      swap1\n      dup1\n      0x01\n      add\n      sload\n      swap1\n      dup1\n      0x02\n      add\n      sload\n      swap1\n      pop\n      dup4\n      jump\t// out\n        /* \"contracts/GameSystem.sol\":2701:2874  function getEnergy() external view returns (uint256) {... */\n    tag_18:\n        /* \"contracts/GameSystem.sol\":2745:2752  uint256 */\n      0x00\n        /* \"contracts/GameSystem.sol\":2765:2784  Resources storage r */\n      0x00\n        /* \"contracts/GameSystem.sol\":2787:2802  playerResources */\n      0x00\n        /* \"contracts/GameSystem.sol\":2787:2814  playerResources[msg.sender] */\n      0x00\n        /* \"contracts/GameSystem.sol\":2803:2813  msg.sender */\n      caller\n        /* \"contracts/GameSystem.sol\":2787:2814  playerResources[msg.sender] */\n      0xffffffffffffffffffffffffffffffffffffffff\n      and\n      0xffffffffffffffffffffffffffffffffffffffff\n      and\n      dup2\n      mstore\n      0x20\n      add\n      swap1\n      dup2\n      mstore\n      0x20\n      add\n      0x00\n      keccak256\n        /* \"contracts/GameSystem.sol\":2765:2814  Resources storage r = playerResources[msg.sender] */\n      swap1\n      pop\n        /* \"contracts/GameSystem.sol\":2832:2866  r.energy.distributeEnergy(r.level) */\n      tag_30\n        /* \"contracts/GameSystem.sol\":2858:2859  r */\n      dup2\n        /* \"contracts/GameSystem.sol\":2858:2865  r.level */\n      0x02\n      add\n      sload\n        /* \"contracts/GameSystem.sol\":2832:2833  r */\n      dup3\n        /* \"contracts/GameSystem.sol\":2832:2840  r.energy */\n      0x00\n      add\n      sload\n        /* \"contracts/GameSystem.sol\":2832:2857  r.energy.distributeEnergy */\n      tag_31\n      swap1\n        /* \"contracts/GameSystem.sol\":2832:2866  r.energy.distributeEnergy(r.level) */\n      swap2\n      swap1\n      0xffffffff\n      and\n      jump\t// in\n    tag_30:\n        /* \"contracts/GameSystem.sol\":2825:2866  return r.energy.distributeEnergy(r.level) */\n      swap2\n      pop\n      pop\n        /* \"contracts/GameSystem.sol\":2701:2874  function getEnergy() external view returns (uint256) {... */\n      swap1\n      jump\t// out\n        /* \"contracts/GameSystem.sol\":2049:2168  function upgradeCost(uint256 currentLevel) internal pure returns (uint256) {... */\n    tag_23:\n        /* \"contracts/GameSystem.sol\":2115:2122  uint256 */\n      0x00\n        /* \"contracts/GameSystem.sol\":2157:2160  100 */\n      0x64\n        /* \"contracts/GameSystem.sol\":2142:2154  currentLevel */\n      dup3\n        /* \"contracts/GameSystem.sol\":2142:2160  currentLevel * 100 */\n      tag_33\n      swap2\n      swap1\n      tag_34\n      jump\t// in\n    tag_33:\n        /* \"contracts/GameSystem.sol\":2135:2160  return currentLevel * 100 */\n      swap1\n      pop\n        /* \"contracts/GameSystem.sol\":2049:2168  function upgradeCost(uint256 currentLevel) internal pure returns (uint256) {... */\n      swap2\n      swap1\n      pop\n      jump\t// out\n        /* \"contracts/GameSystem.sol\":2176:2346  function optimizeGold(uint256 gold, uint256 cost) internal pure returns (uint256) {... */\n    tag_25:\n        /* \"contracts/GameSystem.sol\":2249:2256  uint256 */\n      0x00\n        /* \"contracts/GameSystem.sol\":2285:2289  cost */\n      dup2\n        /* \"contracts/GameSystem.sol\":2277:2281  gold */\n      dup4\n        /* \"contracts/GameSystem.sol\":2277:2289  gold >= cost */\n      lt\n      iszero\n        /* \"contracts/GameSystem.sol\":2269:2309  require(gold >= cost, \"Not enough gold\") */\n      tag_36\n      jumpi\n      mload(0x40)\n      0x08c379a000000000000000000000000000000000000000000000000000000000\n      dup2\n      mstore\n      0x04\n      add\n      tag_37\n      swap1\n      tag_38\n      jump\t// in\n    tag_37:\n      mload(0x40)\n      dup1\n      swap2\n      sub\n      swap1\n      revert\n    tag_36:\n        /* \"contracts/GameSystem.sol\":2334:2338  cost */\n      dup2\n        /* \"contracts/GameSystem.sol\":2327:2331  gold */\n      dup4\n        /* \"contracts/GameSystem.sol\":2327:2338  gold - cost */\n      tag_39\n      swap2\n      swap1\n      tag_40\n      jump\t// in\n    tag_39:\n        /* \"contracts/GameSystem.sol\":2320:2338  return gold - cost */\n      swap1\n      pop\n        /* \"contracts/GameSystem.sol\":2176:2346  function optimizeGold(uint256 gold, uint256 cost) internal pure returns (uint256) {... */\n      swap3\n      swap2\n      pop\n      pop\n      jump\t// out\n        /* \"contracts/GameSystem.sol\":1897:2041  function distributeEnergy(uint256 baseEnergy, uint256 level) internal pure returns (uint256) {... */\n    tag_31:\n        /* \"contracts/GameSystem.sol\":1981:1988  uint256 */\n      0x00\n        /* \"contracts/GameSystem.sol\":2030:2032  10 */\n      0x0a\n        /* \"contracts/GameSystem.sol\":2022:2027  level */\n      dup3\n        /* \"contracts/GameSystem.sol\":2022:2032  level * 10 */\n      tag_42\n      swap2\n      swap1\n      tag_34\n      jump\t// in\n    tag_42:\n        /* \"contracts/GameSystem.sol\":2008:2018  baseEnergy */\n      dup4\n        /* \"contracts/GameSystem.sol\":2008:2033  baseEnergy + (level * 10) */\n      tag_43\n      swap2\n      swap1\n      tag_44\n      jump\t// in\n    tag_43:\n        /* \"contracts/GameSystem.sol\":2001:2033  return baseEnergy + (level * 10) */\n      swap1\n      pop\n        /* \"contracts/GameSystem.sol\":1897:2041  function distributeEnergy(uint256 baseEnergy, uint256 level) internal pure returns (uint256) {... */\n      swap3\n      swap2\n      pop\n      pop\n      jump\t// out\n        /* \"#utility.yul\":88:205   */\n    tag_46:\n        /* \"#utility.yul\":197:198   */\n      0x00\n        /* \"#utility.yul\":194:195   */\n      0x00\n        /* \"#utility.yul\":187:199   */\n      revert\n        /* \"#utility.yul\":334:460   */\n    tag_48:\n        /* \"#utility.yul\":371:378   */\n      0x00\n        /* \"#utility.yul\":411:453   */\n      0xffffffffffffffffffffffffffffffffffffffff\n        /* \"#utility.yul\":404:409   */\n      dup3\n        /* \"#utility.yul\":400:454   */\n      and\n        /* \"#utility.yul\":389:454   */\n      swap1\n      pop\n        /* \"#utility.yul\":334:460   */\n      swap2\n      swap1\n      pop\n      jump\t// out\n        /* \"#utility.yul\":466:562   */\n    tag_49:\n        /* \"#utility.yul\":503:510   */\n      0x00\n        /* \"#utility.yul\":532:556   */\n      tag_64\n        /* \"#utility.yul\":550:555   */\n      dup3\n        /* \"#utility.yul\":532:556   */\n      tag_48\n      jump\t// in\n    tag_64:\n        /* \"#utility.yul\":521:556   */\n      swap1\n      pop\n        /* \"#utility.yul\":466:562   */\n      swap2\n      swap1\n      pop\n      jump\t// out\n        /* \"#utility.yul\":568:690   */\n    tag_50:\n        /* \"#utility.yul\":641:665   */\n      tag_66\n        /* \"#utility.yul\":659:664   */\n      dup2\n        /* \"#utility.yul\":641:665   */\n      tag_49\n      jump\t// in\n    tag_66:\n        /* \"#utility.yul\":634:639   */\n      dup2\n        /* \"#utility.yul\":631:666   */\n      eq\n        /* \"#utility.yul\":621:684   */\n      tag_67\n      jumpi\n        /* \"#utility.yul\":680:681   */\n      0x00\n        /* \"#utility.yul\":677:678   */\n      0x00\n        /* \"#utility.yul\":670:682   */\n      revert\n        /* \"#utility.yul\":621:684   */\n    tag_67:\n        /* \"#utility.yul\":568:690   */\n      pop\n      jump\t// out\n        /* \"#utility.yul\":696:835   */\n    tag_51:\n        /* \"#utility.yul\":742:747   */\n      0x00\n        /* \"#utility.yul\":780:786   */\n      dup2\n        /* \"#utility.yul\":767:787   */\n      calldataload\n        /* \"#utility.yul\":758:787   */\n      swap1\n      pop\n        /* \"#utility.yul\":796:829   */\n      tag_69\n        /* \"#utility.yul\":823:828   */\n      dup2\n        /* \"#utility.yul\":796:829   */\n      tag_50\n      jump\t// in\n    tag_69:\n        /* \"#utility.yul\":696:835   */\n      swap3\n      swap2\n      pop\n      pop\n      jump\t// out\n        /* \"#utility.yul\":841:1170   */\n    tag_13:\n        /* \"#utility.yul\":900:906   */\n      0x00\n        /* \"#utility.yul\":949:951   */\n      0x20\n        /* \"#utility.yul\":937:946   */\n      dup3\n        /* \"#utility.yul\":928:935   */\n      dup5\n        /* \"#utility.yul\":924:947   */\n      sub\n        /* \"#utility.yul\":920:952   */\n      slt\n        /* \"#utility.yul\":917:1036   */\n      iszero\n      tag_71\n      jumpi\n        /* \"#utility.yul\":955:1034   */\n      tag_72\n      tag_46\n      jump\t// in\n    tag_72:\n        /* \"#utility.yul\":917:1036   */\n    tag_71:\n        /* \"#utility.yul\":1075:1076   */\n      0x00\n        /* \"#utility.yul\":1100:1153   */\n      tag_73\n        /* \"#utility.yul\":1145:1152   */\n      dup5\n        /* \"#utility.yul\":1136:1142   */\n      dup3\n        /* \"#utility.yul\":1125:1134   */\n      dup6\n        /* \"#utility.yul\":1121:1143   */\n      add\n        /* \"#utility.yul\":1100:1153   */\n      tag_51\n      jump\t// in\n    tag_73:\n        /* \"#utility.yul\":1090:1153   */\n      swap2\n      pop\n        /* \"#utility.yul\":1046:1163   */\n      pop\n        /* \"#utility.yul\":841:1170   */\n      swap3\n      swap2\n      pop\n      pop\n      jump\t// out\n        /* \"#utility.yul\":1176:1253   */\n    tag_52:\n        /* \"#utility.yul\":1213:1220   */\n      0x00\n        /* \"#utility.yul\":1242:1247   */\n      dup2\n        /* \"#utility.yul\":1231:1247   */\n      swap1\n      pop\n        /* \"#utility.yul\":1176:1253   */\n      swap2\n      swap1\n      pop\n      jump\t// out\n        /* \"#utility.yul\":1259:1377   */\n    tag_53:\n        /* \"#utility.yul\":1346:1370   */\n      tag_76\n        /* \"#utility.yul\":1364:1369   */\n      dup2\n        /* \"#utility.yul\":1346:1370   */\n      tag_52\n      jump\t// in\n    tag_76:\n        /* \"#utility.yul\":1341:1344   */\n      dup3\n        /* \"#utility.yul\":1334:1371   */\n      mstore\n        /* \"#utility.yul\":1259:1377   */\n      pop\n      pop\n      jump\t// out\n        /* \"#utility.yul\":1383:1825   */\n    tag_16:\n        /* \"#utility.yul\":1532:1536   */\n      0x00\n        /* \"#utility.yul\":1570:1572   */\n      0x60\n        /* \"#utility.yul\":1559:1568   */\n      dup3\n        /* \"#utility.yul\":1555:1573   */\n      add\n        /* \"#utility.yul\":1547:1573   */\n      swap1\n      pop\n        /* \"#utility.yul\":1583:1654   */\n      tag_78\n        /* \"#utility.yul\":1651:1652   */\n      0x00\n        /* \"#utility.yul\":1640:1649   */\n      dup4\n        /* \"#utility.yul\":1636:1653   */\n      add\n        /* \"#utility.yul\":1627:1633   */\n      dup7\n        /* \"#utility.yul\":1583:1654   */\n      tag_53\n      jump\t// in\n    tag_78:\n        /* \"#utility.yul\":1664:1736   */\n      tag_79\n        /* \"#utility.yul\":1732:1734   */\n      0x20\n        /* \"#utility.yul\":1721:1730   */\n      dup4\n        /* \"#utility.yul\":1717:1735   */\n      add\n        /* \"#utility.yul\":1708:1714   */\n      dup6\n        /* \"#utility.yul\":1664:1736   */\n      tag_53\n      jump\t// in\n    tag_79:\n        /* \"#utility.yul\":1746:1818   */\n      tag_80\n        /* \"#utility.yul\":1814:1816   */\n      0x40\n        /* \"#utility.yul\":1803:1812   */\n      dup4\n        /* \"#utility.yul\":1799:1817   */\n      add\n        /* \"#utility.yul\":1790:1796   */\n      dup5\n        /* \"#utility.yul\":1746:1818   */\n      tag_53\n      jump\t// in\n    tag_80:\n        /* \"#utility.yul\":1383:1825   */\n      swap5\n      swap4\n      pop\n      pop\n      pop\n      pop\n      jump\t// out\n        /* \"#utility.yul\":1831:2053   */\n    tag_20:\n        /* \"#utility.yul\":1924:1928   */\n      0x00\n        /* \"#utility.yul\":1962:1964   */\n      0x20\n        /* \"#utility.yul\":1951:1960   */\n      dup3\n        /* \"#utility.yul\":1947:1965   */\n      add\n        /* \"#utility.yul\":1939:1965   */\n      swap1\n      pop\n        /* \"#utility.yul\":1975:2046   */\n      tag_82\n        /* \"#utility.yul\":2043:2044   */\n      0x00\n        /* \"#utility.yul\":2032:2041   */\n      dup4\n        /* \"#utility.yul\":2028:2045   */\n      add\n        /* \"#utility.yul\":2019:2025   */\n      dup5\n        /* \"#utility.yul\":1975:2046   */\n      tag_53\n      jump\t// in\n    tag_82:\n        /* \"#utility.yul\":1831:2053   */\n      swap3\n      swap2\n      pop\n      pop\n      jump\t// out\n        /* \"#utility.yul\":2059:2239   */\n    tag_54:\n        /* \"#utility.yul\":2107:2184   */\n      0x4e487b7100000000000000000000000000000000000000000000000000000000\n        /* \"#utility.yul\":2104:2105   */\n      0x00\n        /* \"#utility.yul\":2097:2185   */\n      mstore\n        /* \"#utility.yul\":2204:2208   */\n      0x11\n        /* \"#utility.yul\":2201:2202   */\n      0x04\n        /* \"#utility.yul\":2194:2209   */\n      mstore\n        /* \"#utility.yul\":2228:2232   */\n      0x24\n        /* \"#utility.yul\":2225:2226   */\n      0x00\n        /* \"#utility.yul\":2218:2233   */\n      revert\n        /* \"#utility.yul\":2245:2478   */\n    tag_27:\n        /* \"#utility.yul\":2284:2287   */\n      0x00\n        /* \"#utility.yul\":2307:2331   */\n      tag_85\n        /* \"#utility.yul\":2325:2330   */\n      dup3\n        /* \"#utility.yul\":2307:2331   */\n      tag_52\n      jump\t// in\n    tag_85:\n        /* \"#utility.yul\":2298:2331   */\n      swap2\n      pop\n        /* \"#utility.yul\":2353:2419   */\n      0xffffffffffffffffffffffffffffffffffffffffffffffffffffffffffffffff\n        /* \"#utility.yul\":2346:2351   */\n      dup3\n        /* \"#utility.yul\":2343:2420   */\n      sub\n        /* \"#utility.yul\":2340:2443   */\n      tag_86\n      jumpi\n        /* \"#utility.yul\":2423:2441   */\n      tag_87\n      tag_54\n      jump\t// in\n    tag_87:\n        /* \"#utility.yul\":2340:2443   */\n    tag_86:\n        /* \"#utility.yul\":2470:2471   */\n      0x01\n        /* \"#utility.yul\":2463:2468   */\n      dup3\n        /* \"#utility.yul\":2459:2472   */\n      add\n        /* \"#utility.yul\":2452:2472   */\n      swap1\n      pop\n        /* \"#utility.yul\":2245:2478   */\n      swap2\n      swap1\n      pop\n      jump\t// out\n        /* \"#utility.yul\":2484:2894   */\n    tag_34:\n        /* \"#utility.yul\":2524:2531   */\n      0x00\n        /* \"#utility.yul\":2547:2567   */\n      tag_89\n        /* \"#utility.yul\":2565:2566   */\n      dup3\n        /* \"#utility.yul\":2547:2567   */\n      tag_52\n      jump\t// in\n    tag_89:\n        /* \"#utility.yul\":2542:2567   */\n      swap2\n      pop\n        /* \"#utility.yul\":2581:2601   */\n      tag_90\n        /* \"#utility.yul\":2599:2600   */\n      dup4\n        /* \"#utility.yul\":2581:2601   */\n      tag_52\n      jump\t// in\n    tag_90:\n        /* \"#utility.yul\":2576:2601   */\n      swap3\n      pop\n        /* \"#utility.yul\":2636:2637   */\n      dup3\n        /* \"#utility.yul\":2633:2634   */\n      dup3\n        /* \"#utility.yul\":2629:2638   */\n      mul\n        /* \"#utility.yul\":2658:2688   */\n      tag_91\n        /* \"#utility.yul\":2676:2687   */\n      dup2\n        /* \"#utility.yul\":2658:2688   */\n      tag_52\n      jump\t// in\n    tag_91:\n        /* \"#utility.yul\":2647:2688   */\n      swap2\n      pop\n        /* \"#utility.yul\":2837:2838   */\n      dup3\n        /* \"#utility.yul\":2828:2835   */\n      dup3\n        /* \"#utility.yul\":2824:2839   */\n      div\n        /* \"#utility.yul\":2821:2822   */\n      dup5\n        /* \"#utility.yul\":2818:2840   */\n      eq\n        /* \"#utility.yul\":2798:2799   */\n      dup4\n        /* \"#utility.yul\":2791:2800   */\n      iszero\n        /* \"#utility.yul\":2771:2854   */\n      or\n        /* \"#utility.yul\":2748:2887   */\n      tag_92\n      jumpi\n        /* \"#utility.yul\":2867:2885   */\n      tag_93\n      tag_54\n      jump\t// in\n    tag_93:\n        /* \"#utility.yul\":2748:2887   */\n    tag_92:\n        /* \"#utility.yul\":2532:2894   */\n      pop\n        /* \"#utility.yul\":2484:2894   */\n      swap3\n      swap2\n      pop\n      pop\n      jump\t// out\n        /* \"#utility.yul\":2900:3069   */\n    tag_55:\n        /* \"#utility.yul\":2984:2995   */\n      0x00\n        /* \"#utility.yul\":3018:3024   */\n      dup3\n        /* \"#utility.yul\":3013:3016   */\n      dup3\n        /* \"#utility.yul\":3006:3025   */\n      mstore\n        /* \"#utility.yul\":3058:3062   */\n      0x20\n        /* \"#utility.yul\":3053:3056   */\n      dup3\n        /* \"#utility.yul\":3049:3063   */\n      add\n        /* \"#utility.yul\":3034:3063   */\n      swap1\n      pop\n        /* \"#utility.yul\":2900:3069   */\n      swap3\n      swap2\n      pop\n      pop\n      jump\t// out\n        /* \"#utility.yul\":3075:3240   */\n    tag_56:\n        /* \"#utility.yul\":3215:3232   */\n      0x4e6f7420656e6f75676820676f6c640000000000000000000000000000000000\n        /* \"#utility.yul\":3211:3212   */\n      0x00\n        /* \"#utility.yul\":3203:3209   */\n      dup3\n        /* \"#utility.yul\":3199:3213   */\n      add\n        /* \"#utility.yul\":3192:3233   */\n      mstore\n        /* \"#utility.yul\":3075:3240   */\n      pop\n      jump\t// out\n        /* \"#utility.yul\":3246:3612   */\n    tag_57:\n        /* \"#utility.yul\":3388:3391   */\n      0x00\n        /* \"#utility.yul\":3409:3476   */\n      tag_97\n        /* \"#utility.yul\":3473:3475   */\n      0x0f\n        /* \"#utility.yul\":3468:3471   */\n      dup4\n        /* \"#utility.yul\":3409:3476   */\n      tag_55\n      jump\t// in\n    tag_97:\n        /* \"#utility.yul\":3402:3476   */\n      swap2\n      pop\n        /* \"#utility.yul\":3485:3578   */\n      tag_98\n        /* \"#utility.yul\":3574:3577   */\n      dup3\n        /* \"#utility.yul\":3485:3578   */\n      tag_56\n      jump\t// in\n    tag_98:\n        /* \"#utility.yul\":3603:3605   */\n      0x20\n        /* \"#utility.yul\":3598:3601   */\n      dup3\n        /* \"#utility.yul\":3594:3606   */\n      add\n        /* \"#utility.yul\":3587:3606   */\n      swap1\n      pop\n        /* \"#utility.yul\":3246:3612   */\n      swap2\n      swap1\n      pop\n      jump\t// out\n        /* \"#utility.yul\":3618:4037   */\n    tag_38:\n        /* \"#utility.yul\":3784:3788   */\n      0x00\n        /* \"#utility.yul\":3822:3824   */\n      0x20\n        /* \"#utility.yul\":3811:3820   */\n      dup3\n        /* \"#utility.yul\":3807:3825   */\n      add\n        /* \"#utility.yul\":3799:3825   */\n      swap1\n      pop\n        /* \"#utility.yul\":3871:3880   */\n      dup2\n        /* \"#utility.yul\":3865:3869   */\n      dup2\n        /* \"#utility.yul\":3861:3881   */\n      sub\n        /* \"#utility.yul\":3857:3858   */\n      0x00\n        /* \"#utility.yul\":3846:3855   */\n      dup4\n        /* \"#utility.yul\":3842:3859   */\n      add\n        /* \"#utility.yul\":3835:3882   */\n      mstore\n        /* \"#utility.yul\":3899:4030   */\n      tag_100\n        /* \"#utility.yul\":4025:4029   */\n      dup2\n        /* \"#utility.yul\":3899:4030   */\n      tag_57\n      jump\t// in\n    tag_100:\n        /* \"#utility.yul\":3891:4030   */\n      swap1\n      pop\n        /* \"#utility.yul\":3618:4037   */\n      swap2\n      swap1\n      pop\n      jump\t// out\n        /* \"#utility.yul\":4043:4237   */\n    tag_40:\n        /* \"#utility.yul\":4083:4087   */\n      0x00\n        /* \"#utility.yul\":4103:4123   */\n      tag_102\n        /* \"#utility.yul\":4121:4122   */\n      dup3\n        /* \"#utility.yul\":4103:4123   */\n      tag_52\n      jump\t// in\n    tag_102:\n        /* \"#utility.yul\":4098:4123   */\n      swap2\n      pop\n        /* \"#utility.yul\":4137:4157   */\n      tag_103\n        /* \"#utility.yul\":4155:4156   */\n      dup4\n        /* \"#utility.yul\":4137:4157   */\n      tag_52\n      jump\t// in\n    tag_103:\n        /* \"#utility.yul\":4132:4157   */\n      swap3\n      pop\n        /* \"#utility.yul\":4181:4182   */\n      dup3\n        /* \"#utility.yul\":4178:4179   */\n      dup3\n        /* \"#utility.yul\":4174:4183   */\n      sub\n        /* \"#utility.yul\":4166:4183   */\n      swap1\n      pop\n        /* \"#utility.yul\":4205:4206   */\n      dup2\n        /* \"#utility.yul\":4199:4203   */\n      dup2\n        /* \"#utility.yul\":4196:4207   */\n      gt\n        /* \"#utility.yul\":4193:4230   */\n      iszero\n      tag_104\n      jumpi\n        /* \"#utility.yul\":4210:4228   */\n      tag_105\n      tag_54\n      jump\t// in\n    tag_105:\n        /* \"#utility.yul\":4193:4230   */\n    tag_104:\n        /* \"#utility.yul\":4043:4237   */\n      swap3\n      swap2\n      pop\n      pop\n      jump\t// out\n        /* \"#utility.yul\":4243:4434   */\n    tag_44:\n        /* \"#utility.yul\":4283:4286   */\n      0x00\n        /* \"#utility.yul\":4302:4322   */\n      tag_107\n        /* \"#utility.yul\":4320:4321   */\n      dup3\n        /* \"#utility.yul\":4302:4322   */\n      tag_52\n      jump\t// in\n    tag_107:\n        /* \"#utility.yul\":4297:4322   */\n      swap2\n      pop\n        /* \"#utility.yul\":4336:4356   */\n      tag_108\n        /* \"#utility.yul\":4354:4355   */\n      dup4\n        /* \"#utility.yul\":4336:4356   */\n      tag_52\n      jump\t// in\n    tag_108:\n        /* \"#utility.yul\":4331:4356   */\n      swap3\n      pop\n        /* \"#utility.yul\":4379:4380   */\n      dup3\n        /* \"#utility.yul\":4376:4377   */\n      dup3\n        /* \"#utility.yul\":4372:4381   */\n      add\n        /* \"#utility.yul\":4365:4381   */\n      swap1\n      pop\n        /* \"#utility.yul\":4400:4403   */\n      dup1\n        /* \"#utility.yul\":4397:4398   */\n      dup3\n        /* \"#utility.yul\":4394:4404   */\n      gt\n        /* \"#utility.yul\":4391:4427   */\n      iszero\n      tag_109\n      jumpi\n        /* \"#utility.yul\":4407:4425   */\n      tag_110\n      tag_54\n      jump\t// in\n    tag_110:\n        /* \"#utility.yul\":4391:4427   */\n    tag_109:\n        /* \"#utility.yul\":4243:4434   */\n      swap3\n      swap2\n      pop\n      pop\n      jump\t// out\n\n    auxdata: 0xa2646970667358221220f54704924bd43cad18dd0046e6c02d79ee130d4f2e9323fc4f678553d4d3b97464736f6c634300081e0033\n}\n",
				"bytecode": {
					"linkReferences": {},
					"object": "6080604052348015600e575f5ffd5b506105848061001c5f395ff3fe608060405234801561000f575f5ffd5b506004361061004a575f3560e01c806302dd3e521461004e5780631aa3a008146100585780631eeb2d4f14610062578063c02e705714610094575b5f5ffd5b6100566100b2565b005b61006061013d565b005b61007c6004803603810190610077919061032a565b6101b9565b60405161008b9392919061036d565b60405180910390f35b61009c6101de565b6040516100a991906103a2565b60405180910390f35b5f5f5f3373ffffffffffffffffffffffffffffffffffffffff1673ffffffffffffffffffffffffffffffffffffffff1681526020019081526020015f2090505f6100ff826002015461023e565b905061011881836001015461025390919063ffffffff16565b8260010181905550816002015f815480929190610134906103e8565b91905055505050565b6040518060600160405280606481526020016101f4815260200160018152505f5f3373ffffffffffffffffffffffffffffffffffffffff1673ffffffffffffffffffffffffffffffffffffffff1681526020019081526020015f205f820151815f01556020820151816001015560408201518160020155905050565b5f602052805f5260405f205f91509050805f0154908060010154908060020154905083565b5f5f5f5f3373ffffffffffffffffffffffffffffffffffffffff1673ffffffffffffffffffffffffffffffffffffffff1681526020019081526020015f2090506102388160020154825f01546102ab90919063ffffffff16565b91505090565b5f60648261024c919061042f565b9050919050565b5f81831015610297576040517f08c379a000000000000000000000000000000000000000000000000000000000815260040161028e906104ca565b60405180910390fd5b81836102a391906104e8565b905092915050565b5f600a826102b9919061042f565b836102c4919061051b565b905092915050565b5f5ffd5b5f73ffffffffffffffffffffffffffffffffffffffff82169050919050565b5f6102f9826102d0565b9050919050565b610309816102ef565b8114610313575f5ffd5b50565b5f8135905061032481610300565b92915050565b5f6020828403121561033f5761033e6102cc565b5b5f61034c84828501610316565b91505092915050565b5f819050919050565b61036781610355565b82525050565b5f6060820190506103805f83018661035e565b61038d602083018561035e565b61039a604083018461035e565b949350505050565b5f6020820190506103b55f83018461035e565b92915050565b7f4e487b71000000000000000000000000000000000000000000000000000000005f52601160045260245ffd5b5f6103f282610355565b91507fffffffffffffffffffffffffffffffffffffffffffffffffffffffffffffffff8203610424576104236103bb565b5b600182019050919050565b5f61043982610355565b915061044483610355565b925082820261045281610355565b91508282048414831517610469576104686103bb565b5b5092915050565b5f82825260208201905092915050565b7f4e6f7420656e6f75676820676f6c6400000000000000000000000000000000005f82015250565b5f6104b4600f83610470565b91506104bf82610480565b602082019050919050565b5f6020820190508181035f8301526104e1816104a8565b9050919050565b5f6104f282610355565b91506104fd83610355565b9250828203905081811115610515576105146103bb565b5b92915050565b5f61052582610355565b915061053083610355565b9250828201905080821115610548576105476103bb565b5b9291505056fea2646970667358221220f54704924bd43cad18dd0046e6c02d79ee130d4f2e9323fc4f678553d4d3b97464736f6c634300081e0033",
					"opcodes": "PUSH1 0x80 PUSH1 0x40 MSTORE CALLVALUE DUP1 ISZERO PUSH1 0xE JUMPI PUSH0 PUSH0 REVERT JUMPDEST POP PUSH2 0x584 DUP1 PUSH2 0x1C PUSH0 CODECOPY PUSH0 RETURN INVALID PUSH1 0x80 PUSH1 0x40 MSTORE CALLVALUE DUP1 ISZERO PUSH2 0xF JUMPI PUSH0 PUSH0 REVERT JUMPDEST POP PUSH1 0x4 CALLDATASIZE LT PUSH2 0x4A JUMPI PUSH0 CALLDATALOAD PUSH1 0xE0 SHR DUP1 PUSH4 0x2DD3E52 EQ PUSH2 0x4E JUMPI DUP1 PUSH4 0x1AA3A008 EQ PUSH2 0x58 JUMPI DUP1 PUSH4 0x1EEB2D4F EQ PUSH2 0x62 JUMPI DUP1 PUSH4 0xC02E7057 EQ PUSH2 0x94 JUMPI JUMPDEST PUSH0 PUSH0 REVERT JUMPDEST PUSH2 0x56 PUSH2 0xB2 JUMP JUMPDEST STOP JUMPDEST PUSH2 0x60 PUSH2 0x13D JUMP JUMPDEST STOP JUMPDEST PUSH2 0x7C PUSH1 0x4 DUP1 CALLDATASIZE SUB DUP2 ADD SWAP1 PUSH2 0x77 SWAP2 SWAP1 PUSH2 0x32A JUMP JUMPDEST PUSH2 0x1B9 JUMP JUMPDEST PUSH1 0x40 MLOAD PUSH2 0x8B SWAP4 SWAP3 SWAP2 SWAP1 PUSH2 0x36D JUMP JUMPDEST PUSH1 0x40 MLOAD DUP1 SWAP2 SUB SWAP1 RETURN JUMPDEST PUSH2 0x9C PUSH2 0x1DE JUMP JUMPDEST PUSH1 0x40 MLOAD PUSH2 0xA9 SWAP2 SWAP1 PUSH2 0x3A2 JUMP JUMPDEST PUSH1 0x40 MLOAD DUP1 SWAP2 SUB SWAP1 RETURN JUMPDEST PUSH0 PUSH0 PUSH0 CALLER PUSH20 0xFFFFFFFFFFFFFFFFFFFFFFFFFFFFFFFFFFFFFFFF AND PUSH20 0xFFFFFFFFFFFFFFFFFFFFFFFFFFFFFFFFFFFFFFFF AND DUP2 MSTORE PUSH1 0x20 ADD SWAP1 DUP2 MSTORE PUSH1 0x20 ADD PUSH0 KECCAK256 SWAP1 POP PUSH0 PUSH2 0xFF DUP3 PUSH1 0x2 ADD SLOAD PUSH2 0x23E JUMP JUMPDEST SWAP1 POP PUSH2 0x118 DUP2 DUP4 PUSH1 0x1 ADD SLOAD PUSH2 0x253 SWAP1 SWAP2 SWAP1 PUSH4 0xFFFFFFFF AND JUMP JUMPDEST DUP3 PUSH1 0x1 ADD DUP2 SWAP1 SSTORE POP DUP2 PUSH1 0x2 ADD PUSH0 DUP2 SLOAD DUP1 SWAP3 SWAP2 SWAP1 PUSH2 0x134 SWAP1 PUSH2 0x3E8 JUMP JUMPDEST SWAP2 SWAP1 POP SSTORE POP POP POP JUMP JUMPDEST PUSH1 0x40 MLOAD DUP1 PUSH1 0x60 ADD PUSH1 0x40 MSTORE DUP1 PUSH1 0x64 DUP2 MSTORE PUSH1 0x20 ADD PUSH2 0x1F4 DUP2 MSTORE PUSH1 0x20 ADD PUSH1 0x1 DUP2 MSTORE POP PUSH0 PUSH0 CALLER PUSH20 0xFFFFFFFFFFFFFFFFFFFFFFFFFFFFFFFFFFFFFFFF AND PUSH20 0xFFFFFFFFFFFFFFFFFFFFFFFFFFFFFFFFFFFFFFFF AND DUP2 MSTORE PUSH1 0x20 ADD SWAP1 DUP2 MSTORE PUSH1 0x20 ADD PUSH0 KECCAK256 PUSH0 DUP3 ADD MLOAD DUP2 PUSH0 ADD SSTORE PUSH1 0x20 DUP3 ADD MLOAD DUP2 PUSH1 0x1 ADD SSTORE PUSH1 0x40 DUP3 ADD MLOAD DUP2 PUSH1 0x2 ADD SSTORE SWAP1 POP POP JUMP JUMPDEST PUSH0 PUSH1 0x20 MSTORE DUP1 PUSH0 MSTORE PUSH1 0x40 PUSH0 KECCAK256 PUSH0 SWAP2 POP SWAP1 POP DUP1 PUSH0 ADD SLOAD SWAP1 DUP1 PUSH1 0x1 ADD SLOAD SWAP1 DUP1 PUSH1 0x2 ADD SLOAD SWAP1 POP DUP4 JUMP JUMPDEST PUSH0 PUSH0 PUSH0 PUSH0 CALLER PUSH20 0xFFFFFFFFFFFFFFFFFFFFFFFFFFFFFFFFFFFFFFFF AND PUSH20 0xFFFFFFFFFFFFFFFFFFFFFFFFFFFFFFFFFFFFFFFF AND DUP2 MSTORE PUSH1 0x20 ADD SWAP1 DUP2 MSTORE PUSH1 0x20 ADD PUSH0 KECCAK256 SWAP1 POP PUSH2 0x238 DUP2 PUSH1 0x2 ADD SLOAD DUP3 PUSH0 ADD SLOAD PUSH2 0x2AB SWAP1 SWAP2 SWAP1 PUSH4 0xFFFFFFFF AND JUMP JUMPDEST SWAP2 POP POP SWAP1 JUMP JUMPDEST PUSH0 PUSH1 0x64 DUP3 PUSH2 0x24C SWAP2 SWAP1 PUSH2 0x42F JUMP JUMPDEST SWAP1 POP SWAP2 SWAP1 POP JUMP JUMPDEST PUSH0 DUP2 DUP4 LT ISZERO PUSH2 0x297 JUMPI PUSH1 0x40 MLOAD PUSH32 0x8C379A000000000000000000000000000000000000000000000000000000000 DUP2 MSTORE PUSH1 0x4 ADD PUSH2 0x28E SWAP1 PUSH2 0x4CA JUMP JUMPDEST PUSH1 0x40 MLOAD DUP1 SWAP2 SUB SWAP1 REVERT JUMPDEST DUP2 DUP4 PUSH2 0x2A3 SWAP2 SWAP1 PUSH2 0x4E8 JUMP JUMPDEST SWAP1 POP SWAP3 SWAP2 POP POP JUMP JUMPDEST PUSH0 PUSH1 0xA DUP3 PUSH2 0x2B9 SWAP2 SWAP1 PUSH2 0x42F JUMP JUMPDEST DUP4 PUSH2 0x2C4 SWAP2 SWAP1 PUSH2 0x51B JUMP JUMPDEST SWAP1 POP SWAP3 SWAP2 POP POP JUMP JUMPDEST PUSH0 PUSH0 REVERT JUMPDEST PUSH0 PUSH20 0xFFFFFFFFFFFFFFFFFFFFFFFFFFFFFFFFFFFFFFFF DUP3 AND SWAP1 POP SWAP2 SWAP1 POP JUMP JUMPDEST PUSH0 PUSH2 0x2F9 DUP3 PUSH2 0x2D0 JUMP JUMPDEST SWAP1 POP SWAP2 SWAP1 POP JUMP JUMPDEST PUSH2 0x309 DUP2 PUSH2 0x2EF JUMP JUMPDEST DUP2 EQ PUSH2 0x313 JUMPI PUSH0 PUSH0 REVERT JUMPDEST POP JUMP JUMPDEST PUSH0 DUP2 CALLDATALOAD SWAP1 POP PUSH2 0x324 DUP2 PUSH2 0x300 JUMP JUMPDEST SWAP3 SWAP2 POP POP JUMP JUMPDEST PUSH0 PUSH1 0x20 DUP3 DUP5 SUB SLT ISZERO PUSH2 0x33F JUMPI PUSH2 0x33E PUSH2 0x2CC JUMP JUMPDEST JUMPDEST PUSH0 PUSH2 0x34C DUP5 DUP3 DUP6 ADD PUSH2 0x316 JUMP JUMPDEST SWAP2 POP POP SWAP3 SWAP2 POP POP JUMP JUMPDEST PUSH0 DUP2 SWAP1 POP SWAP2 SWAP1 POP JUMP JUMPDEST PUSH2 0x367 DUP2 PUSH2 0x355 JUMP JUMPDEST DUP3 MSTORE POP POP JUMP JUMPDEST PUSH0 PUSH1 0x60 DUP3 ADD SWAP1 POP PUSH2 0x380 PUSH0 DUP4 ADD DUP7 PUSH2 0x35E JUMP JUMPDEST PUSH2 0x38D PUSH1 0x20 DUP4 ADD DUP6 PUSH2 0x35E JUMP JUMPDEST PUSH2 0x39A PUSH1 0x40 DUP4 ADD DUP5 PUSH2 0x35E JUMP JUMPDEST SWAP5 SWAP4 POP POP POP POP JUMP JUMPDEST PUSH0 PUSH1 0x20 DUP3 ADD SWAP1 POP PUSH2 0x3B5 PUSH0 DUP4 ADD DUP5 PUSH2 0x35E JUMP JUMPDEST SWAP3 SWAP2 POP POP JUMP JUMPDEST PUSH32 0x4E487B7100000000000000000000000000000000000000000000000000000000 PUSH0 MSTORE PUSH1 0x11 PUSH1 0x4 MSTORE PUSH1 0x24 PUSH0 REVERT JUMPDEST PUSH0 PUSH2 0x3F2 DUP3 PUSH2 0x355 JUMP JUMPDEST SWAP2 POP PUSH32 0xFFFFFFFFFFFFFFFFFFFFFFFFFFFFFFFFFFFFFFFFFFFFFFFFFFFFFFFFFFFFFFFF DUP3 SUB PUSH2 0x424 JUMPI PUSH2 0x423 PUSH2 0x3BB JUMP JUMPDEST JUMPDEST PUSH1 0x1 DUP3 ADD SWAP1 POP SWAP2 SWAP1 POP JUMP JUMPDEST PUSH0 PUSH2 0x439 DUP3 PUSH2 0x355 JUMP JUMPDEST SWAP2 POP PUSH2 0x444 DUP4 PUSH2 0x355 JUMP JUMPDEST SWAP3 POP DUP3 DUP3 MUL PUSH2 0x452 DUP2 PUSH2 0x355 JUMP JUMPDEST SWAP2 POP DUP3 DUP3 DIV DUP5 EQ DUP4 ISZERO OR PUSH2 0x469 JUMPI PUSH2 0x468 PUSH2 0x3BB JUMP JUMPDEST JUMPDEST POP SWAP3 SWAP2 POP POP JUMP JUMPDEST PUSH0 DUP3 DUP3 MSTORE PUSH1 0x20 DUP3 ADD SWAP1 POP SWAP3 SWAP2 POP POP JUMP JUMPDEST PUSH32 0x4E6F7420656E6F75676820676F6C640000000000000000000000000000000000 PUSH0 DUP3 ADD MSTORE POP JUMP JUMPDEST PUSH0 PUSH2 0x4B4 PUSH1 0xF DUP4 PUSH2 0x470 JUMP JUMPDEST SWAP2 POP PUSH2 0x4BF DUP3 PUSH2 0x480 JUMP JUMPDEST PUSH1 0x20 DUP3 ADD SWAP1 POP SWAP2 SWAP1 POP JUMP JUMPDEST PUSH0 PUSH1 0x20 DUP3 ADD SWAP1 POP DUP2 DUP2 SUB PUSH0 DUP4 ADD MSTORE PUSH2 0x4E1 DUP2 PUSH2 0x4A8 JUMP JUMPDEST SWAP1 POP SWAP2 SWAP1 POP JUMP JUMPDEST PUSH0 PUSH2 0x4F2 DUP3 PUSH2 0x355 JUMP JUMPDEST SWAP2 POP PUSH2 0x4FD DUP4 PUSH2 0x355 JUMP JUMPDEST SWAP3 POP DUP3 DUP3 SUB SWAP1 POP DUP2 DUP2 GT ISZERO PUSH2 0x515 JUMPI PUSH2 0x514 PUSH2 0x3BB JUMP JUMPDEST JUMPDEST SWAP3 SWAP2 POP POP JUMP JUMPDEST PUSH0 PUSH2 0x525 DUP3 PUSH2 0x355 JUMP JUMPDEST SWAP2 POP PUSH2 0x530 DUP4 PUSH2 0x355 JUMP JUMPDEST SWAP3 POP DUP3 DUP3 ADD SWAP1 POP DUP1 DUP3 GT ISZERO PUSH2 0x548 JUMPI PUSH2 0x547 PUSH2 0x3BB JUMP JUMPDEST JUMPDEST SWAP3 SWAP2 POP POP JUMP INVALID LOG2 PUSH5 0x6970667358 0x22 SLT KECCAK256 CREATE2 SELFBALANCE DIV SWAP3 0x4B 0xD4 EXTCODECOPY 0xAD XOR 0xDD STOP CHAINID DUPN 0xC0 0x2D PUSH26 0xEE130D4F2E9323FC4F678553D4D3B97464736F6C634300081E00 CALLER "
				},
				"gasEstimates": {
					"creation": {
						"codeDepositCost": "282400",
						"executionCost": "322",
						"totalCost": "282722"
					},
					"external": {
						"getEnergy()": "infinite",
						"playerResources(address)": "infinite",
						"register()": "66677",
						"upgradeLevel()": "infinite"
					}
				},
				"methodIdentifiers": {
					"getEnergy()": "c02e7057",
					"playerResources(address)": "1eeb2d4f",
					"register()": "1aa3a008",
					"upgradeLevel()": "02dd3e52"
				}
			},
			"storageLayout": {
				"storage": [
					{
						"astId": 288,
						"contract": "contracts/GameSystem.sol:ResourceManager",
						"label": "playerResources",
						"offset": 0,
						"slot": "0",
						"type": "t_mapping(t_address,t_struct(Resources)283_storage)"
					}
				],
				"types": {
					"t_address": {
						"encoding": "inplace",
						"label": "address",
						"numberOfBytes": "20"
					},
					"t_mapping(t_address,t_struct(Resources)283_storage)": {
						"encoding": "mapping",
						"key": "t_address",
						"label": "mapping(address => struct ResourceManager.Resources)",
						"numberOfBytes": "32",
						"value": "t_struct(Resources)283_storage"
					},
					"t_struct(Resources)283_storage": {
						"encoding": "inplace",
						"label": "struct ResourceManager.Resources",
						"members": [
							{
								"astId": 278,
								"contract": "contracts/GameSystem.sol:ResourceManager",
								"label": "energy",
								"offset": 0,
								"slot": "0",
								"type": "t_uint256"
							},
							{
								"astId": 280,
								"contract": "contracts/GameSystem.sol:ResourceManager",
								"label": "gold",
								"offset": 0,
								"slot": "1",
								"type": "t_uint256"
							},
							{
								"astId": 282,
								"contract": "contracts/GameSystem.sol:ResourceManager",
								"label": "level",
								"offset": 0,
								"slot": "2",
								"type": "t_uint256"
							}
						],
						"numberOfBytes": "96"
					},
					"t_uint256": {
						"encoding": "inplace",
						"label": "uint256",
						"numberOfBytes": "32"
					}
				}
			},
			"userdoc": {
				"kind": "user",
				"methods": {},
				"version": 1
			}
		}
	}
}