{
	"data": {
		"bytecode": {
			"linkReferences": {},
			"object": "608060405262278d006002553480156015575f5ffd5b5060405161071b38038061071b83398181016040528101906035919060b2565b335f5f6101000a81548173ffffffffffffffffffffffffffffffffffffffff021916908373ffffffffffffffffffffffffffffffffffffffff160217905550806001819055505060d8565b5f5ffd5b5f819050919050565b6094816084565b8114609d575f5ffd5b50565b5f8151905060ac81608d565b92915050565b5f6020828403121560c45760c36080565b5b5f60cf8482850160a0565b91505092915050565b610636806100e55f395ff3fe60806040526004361061006f575f3560e01c80638f449a051161004d5780638f449a0514610103578063a035b1fe1461010d578063a2b40d1914610137578063b92ae87c1461015f5761006f565b80630fb5a6b4146100735780633a06db1e1461009d5780638da5cb5b146100d9575b5f5ffd5b34801561007e575f5ffd5b5061008761019b565b604051610094919061036e565b60405180910390f35b3480156100a8575f5ffd5b506100c360048036038101906100be91906103e5565b6101a1565b6040516100d0919061036e565b60405180910390f35b3480156100e4575f5ffd5b506100ed6101b6565b6040516100fa919061041f565b60405180910390f35b61010b6101da565b005b348015610118575f5ffd5b50610121610270565b60405161012e919061036e565b60405180910390f35b348015610142575f5ffd5b5061015d60048036038101906101589190610462565b610276565b005b34801561016a575f5ffd5b50610185600480360381019061018091906103e5565b61030e565b60405161019291906104a7565b60405180910390f35b60025481565b6003602052805f5260405f205f915090505481565b5f5f9054906101000a900473ffffffffffffffffffffffffffffffffffffffff1681565b60015434101561021f576040517f08c379a00000000000000000000000000000000000000000000000000000000081526004016102169061051a565b60405180910390fd5b6002544261022d9190610565565b60035f3373ffffffffffffffffffffffffffffffffffffffff1673ffffffffffffffffffffffffffffffffffffffff1681526020019081526020015f2081905550565b60015481565b5f5f9054906101000a900473ffffffffffffffffffffffffffffffffffffffff1673ffffffffffffffffffffffffffffffffffffffff163373ffffffffffffffffffffffffffffffffffffffff1614610304576040517f08c379a00000000000000000000000000000000000000000000000000000000081526004016102fb906105e2565b60405180910390fd5b8060018190555050565b5f4260035f8473ffffffffffffffffffffffffffffffffffffffff1673ffffffffffffffffffffffffffffffffffffffff1681526020019081526020015f2054119050919050565b5f819050919050565b61036881610356565b82525050565b5f6020820190506103815f83018461035f565b92915050565b5f5ffd5b5f73ffffffffffffffffffffffffffffffffffffffff82169050919050565b5f6103b48261038b565b9050919050565b6103c4816103aa565b81146103ce575f5ffd5b50565b5f813590506103df816103bb565b92915050565b5f602082840312156103fa576103f9610387565b5b5f610407848285016103d1565b91505092915050565b610419816103aa565b82525050565b5f6020820190506104325f830184610410565b92915050565b61044181610356565b811461044b575f5ffd5b50565b5f8135905061045c81610438565b92915050565b5f6020828403121561047757610476610387565b5b5f6104848482850161044e565b91505092915050565b5f8115159050919050565b6104a18161048d565b82525050565b5f6020820190506104ba5f830184610498565b92915050565b5f82825260208201905092915050565b7f4e6f7420656e6f756768204554480000000000000000000000000000000000005f82015250565b5f610504600e836104c0565b915061050f826104d0565b602082019050919050565b5f6020820190508181035f830152610531816104f8565b9050919050565b7f4e487b71000000000000000000000000000000000000000000000000000000005f52601160045260245ffd5b5f61056f82610356565b915061057a83610356565b925082820190508082111561059257610591610538565b5b92915050565b7f4f6e6c79206f776e6572000000000000000000000000000000000000000000005f82015250565b5f6105cc600a836104c0565b91506105d782610598565b602082019050919050565b5f6020820190508181035f8301526105f9816105c0565b905091905056fea26469706673582212201e8daa14dc4dad24f8b62849cddc5373d7bd6b5b50ad39f435dcbec26b538dda64736f6c634300081e0033",
			"opcodes": "PUSH1 0x80 PUSH1 0x40 MSTORE PUSH3 0x278D00 PUSH1 0x2 SSTORE CALLVALUE DUP1 ISZERO PUSH1 0x15 JUMPI PUSH0 PUSH0 REVERT JUMPDEST POP PUSH1 0x40 MLOAD PUSH2 0x71B CODESIZE SUB DUP1 PUSH2 0x71B DUP4 CODECOPY DUP2 DUP2 ADD PUSH1 0x40 MSTORE DUP2 ADD SWAP1 PUSH1 0x35 SWAP2 SWAP1 PUSH1 0xB2 JUMP JUMPDEST CALLER PUSH0 PUSH0 PUSH2 0x100 EXP DUP2 SLOAD DUP2 PUSH20 0xFFFFFFFFFFFFFFFFFFFFFFFFFFFFFFFFFFFFFFFF MUL NOT AND SWAP1 DUP4 PUSH20 0xFFFFFFFFFFFFFFFFFFFFFFFFFFFFFFFFFFFFFFFF AND MUL OR SWAP1 SSTORE POP DUP1 PUSH1 0x1 DUP2 SWAP1 SSTORE POP POP PUSH1 0xD8 JUMP JUMPDEST PUSH0 PUSH0 REVERT JUMPDEST PUSH0 DUP2 SWAP1 POP SWAP2 SWAP1 POP JUMP JUMPDEST PUSH1 0x94 DUP2 PUSH1 0x84 JUMP JUMPDEST DUP2 EQ PUSH1 0x9D JUMPI PUSH0 PUSH0 REVERT JUMPDEST POP JUMP JUMPDEST PUSH0 DUP2 MLOAD SWAP1 POP PUSH1 0xAC DUP2 PUSH1 0x8D JUMP JUMPDEST SWAP3 SWAP2 POP POP JUMP JUMPDEST PUSH0 PUSH1 0x20 DUP3 DUP5 SUB SLT ISZERO PUSH1 0xC4 JUMPI PUSH1 0xC3 PUSH1 0x80 JUMP JUMPDEST JUMPDEST PUSH0 PUSH1 0xCF DUP5 DUP3 DUP6 ADD PUSH1 0xA0 JUMP JUMPDEST SWAP2 POP POP SWAP3 SWAP2 POP POP JUMP JUMPDEST PUSH2 0x636 DUP1 PUSH2 0xE5 PUSH0 CODECOPY PUSH0 RETURN INVALID PUSH1 0x80 PUSH1 0x40 MSTORE PUSH1 0x4 CALLDATASIZE LT PUSH2 0x6F JUMPI PUSH0 CALLDATALOAD PUSH1 0xE0 SHR DUP1 PUSH4 0x8F449A05 GT PUSH2 0x4D JUMPI DUP1 PUSH4 0x8F449A05 EQ PUSH2 0x103 JUMPI DUP1 PUSH4 0xA035B1FE EQ PUSH2 0x10D JUMPI DUP1 PUSH4 0xA2B40D19 EQ PUSH2 0x137 JUMPI DUP1 PUSH4 0xB92AE87C EQ PUSH2 0x15F JUMPI PUSH2 0x6F JUMP JUMPDEST DUP1 PUSH4 0xFB5A6B4 EQ PUSH2 0x73 JUMPI DUP1 PUSH4 0x3A06DB1E EQ PUSH2 0x9D JUMPI DUP1 PUSH4 0x8DA5CB5B EQ PUSH2 0xD9 JUMPI JUMPDEST PUSH0 PUSH0 REVERT JUMPDEST CALLVALUE DUP1 ISZERO PUSH2 0x7E JUMPI PUSH0 PUSH0 REVERT JUMPDEST POP PUSH2 0x87 PUSH2 0x19B JUMP JUMPDEST PUSH1 0x40 MLOAD PUSH2 0x94 SWAP2 SWAP1 PUSH2 0x36E JUMP JUMPDEST PUSH1 0x40 MLOAD DUP1 SWAP2 SUB SWAP1 RETURN JUMPDEST CALLVALUE DUP1 ISZERO PUSH2 0xA8 JUMPI PUSH0 PUSH0 REVERT JUMPDEST POP PUSH2 0xC3 PUSH1 0x4 DUP1 CALLDATASIZE SUB DUP2 ADD SWAP1 PUSH2 0xBE SWAP2 SWAP1 PUSH2 0x3E5 JUMP JUMPDEST PUSH2 0x1A1 JUMP JUMPDEST PUSH1 0x40 MLOAD PUSH2 0xD0 SWAP2 SWAP1 PUSH2 0x36E JUMP JUMPDEST PUSH1 0x40 MLOAD DUP1 SWAP2 SUB SWAP1 RETURN JUMPDEST CALLVALUE DUP1 ISZERO PUSH2 0xE4 JUMPI PUSH0 PUSH0 REVERT JUMPDEST POP PUSH2 0xED PUSH2 0x1B6 JUMP JUMPDEST PUSH1 0x40 MLOAD PUSH2 0xFA SWAP2 SWAP1 PUSH2 0x41F JUMP JUMPDEST PUSH1 0x40 MLOAD DUP1 SWAP2 SUB SWAP1 RETURN JUMPDEST PUSH2 0x10B PUSH2 0x1DA JUMP JUMPDEST STOP JUMPDEST CALLVALUE DUP1 ISZERO PUSH2 0x118 JUMPI PUSH0 PUSH0 REVERT JUMPDEST POP PUSH2 0x121 PUSH2 0x270 JUMP JUMPDEST PUSH1 0x40 MLOAD PUSH2 0x12E SWAP2 SWAP1 PUSH2 0x36E JUMP JUMPDEST PUSH1 0x40 MLOAD DUP1 SWAP2 SUB SWAP1 RETURN JUMPDEST CALLVALUE DUP1 ISZERO PUSH2 0x142 JUMPI PUSH0 PUSH0 REVERT JUMPDEST POP PUSH2 0x15D PUSH1 0x4 DUP1 CALLDATASIZE SUB DUP2 ADD SWAP1 PUSH2 0x158 SWAP2 SWAP1 PUSH2 0x462 JUMP JUMPDEST PUSH2 0x276 JUMP JUMPDEST STOP JUMPDEST CALLVALUE DUP1 ISZERO PUSH2 0x16A JUMPI PUSH0 PUSH0 REVERT JUMPDEST POP PUSH2 0x185 PUSH1 0x4 DUP1 CALLDATASIZE SUB DUP2 ADD SWAP1 PUSH2 0x180 SWAP2 SWAP1 PUSH2 0x3E5 JUMP JUMPDEST PUSH2 0x30E JUMP JUMPDEST PUSH1 0x40 MLOAD PUSH2 0x192 SWAP2 SWAP1 PUSH2 0x4A7 JUMP JUMPDEST PUSH1 0x40 MLOAD DUP1 SWAP2 SUB SWAP1 RETURN JUMPDEST PUSH1 0x2 SLOAD DUP2 JUMP JUMPDEST PUSH1 0x3 PUSH1 0x20 MSTORE DUP1 PUSH0 MSTORE PUSH1 0x40 PUSH0 KECCAK256 PUSH0 SWAP2 POP SWAP1 POP SLOAD DUP2 JUMP JUMPDEST PUSH0 PUSH0 SWAP1 SLOAD SWAP1 PUSH2 0x100 EXP SWAP1 DIV PUSH20 0xFFFFFFFFFFFFFFFFFFFFFFFFFFFFFFFFFFFFFFFF AND DUP2 JUMP JUMPDEST PUSH1 0x1 SLOAD CALLVALUE LT ISZERO PUSH2 0x21F JUMPI PUSH1 0x40 MLOAD PUSH32 0x8C379A000000000000000000000000000000000000000000000000000000000 DUP2 MSTORE PUSH1 0x4 ADD PUSH2 0x216 SWAP1 PUSH2 0x51A JUMP JUMPDEST PUSH1 0x40 MLOAD DUP1 SWAP2 SUB SWAP1 REVERT JUMPDEST PUSH1 0x2 SLOAD TIMESTAMP PUSH2 0x22D SWAP2 SWAP1 PUSH2 0x565 JUMP JUMPDEST PUSH1 0x3 PUSH0 CALLER PUSH20 0xFFFFFFFFFFFFFFFFFFFFFFFFFFFFFFFFFFFFFFFF AND PUSH20 0xFFFFFFFFFFFFFFFFFFFFFFFFFFFFFFFFFFFFFFFF AND DUP2 MSTORE PUSH1 0x20 ADD SWAP1 DUP2 MSTORE PUSH1 0x20 ADD PUSH0 KECCAK256 DUP2 SWAP1 SSTORE POP JUMP JUMPDEST PUSH1 0x1 SLOAD DUP2 JUMP JUMPDEST PUSH0 PUSH0 SWAP1 SLOAD SWAP1 PUSH2 0x100 EXP SWAP1 DIV PUSH20 0xFFFFFFFFFFFFFFFFFFFFFFFFFFFFFFFFFFFFFFFF AND PUSH20 0xFFFFFFFFFFFFFFFFFFFFFFFFFFFFFFFFFFFFFFFF AND CALLER PUSH20 0xFFFFFFFFFFFFFFFFFFFFFFFFFFFFFFFFFFFFFFFF AND EQ PUSH2 0x304 JUMPI PUSH1 0x40 MLOAD PUSH32 0x8C379A000000000000000000000000000000000000000000000000000000000 DUP2 MSTORE PUSH1 0x4 ADD PUSH2 0x2FB SWAP1 PUSH2 0x5E2 JUMP JUMPDEST PUSH1 0x40 MLOAD DUP1 SWAP2 SUB SWAP1 REVERT JUMPDEST DUP1 PUSH1 0x1 DUP2 SWAP1 SSTORE POP POP JUMP JUMPDEST PUSH0 TIMESTAMP PUSH1 0x3 PUSH0 DUP5 PUSH20 0xFFFFFFFFFFFFFFFFFFFFFFFFFFFFFFFFFFFFFFFF AND PUSH20 0xFFFFFFFFFFFFFFFFFFFFFFFFFFFFFFFFFFFFFFFF AND DUP2 MSTORE PUSH1 0x20 ADD SWAP1 DUP2 MSTORE PUSH1 0x20 ADD PUSH0 KECCAK256 SLOAD GT SWAP1 POP SWAP2 SWAP1 POP JUMP JUMPDEST PUSH0 DUP2 SWAP1 POP SWAP2 SWAP1 POP JUMP JUMPDEST PUSH2 0x368 DUP2 PUSH2 0x356 JUMP JUMPDEST DUP3 MSTORE POP POP JUMP JUMPDEST PUSH0 PUSH1 0x20 DUP3 ADD SWAP1 POP PUSH2 0x381 PUSH0 DUP4 ADD DUP5 PUSH2 0x35F JUMP JUMPDEST SWAP3 SWAP2 POP POP JUMP JUMPDEST PUSH0 PUSH0 REVERT JUMPDEST PUSH0 PUSH20 0xFFFFFFFFFFFFFFFFFFFFFFFFFFFFFFFFFFFFFFFF DUP3 AND SWAP1 POP SWAP2 SWAP1 POP JUMP JUMPDEST PUSH0 PUSH2 0x3B4 DUP3 PUSH2 0x38B JUMP JUMPDEST SWAP1 POP SWAP2 SWAP1 POP JUMP JUMPDEST PUSH2 0x3C4 DUP2 PUSH2 0x3AA JUMP JUMPDEST DUP2 EQ PUSH2 0x3CE JUMPI PUSH0 PUSH0 REVERT JUMPDEST POP JUMP JUMPDEST PUSH0 DUP2 CALLDATALOAD SWAP1 POP PUSH2 0x3DF DUP2 PUSH2 0x3BB JUMP JUMPDEST SWAP3 SWAP2 POP POP JUMP JUMPDEST PUSH0 PUSH1 0x20 DUP3 DUP5 SUB SLT ISZERO PUSH2 0x3FA JUMPI PUSH2 0x3F9 PUSH2 0x387 JUMP JUMPDEST JUMPDEST PUSH0 PUSH2 0x407 DUP5 DUP3 DUP6 ADD PUSH2 0x3D1 JUMP JUMPDEST SWAP2 POP POP SWAP3 SWAP2 POP POP JUMP JUMPDEST PUSH2 0x419 DUP2 PUSH2 0x3AA JUMP JUMPDEST DUP3 MSTORE POP POP JUMP JUMPDEST PUSH0 PUSH1 0x20 DUP3 ADD SWAP1 POP PUSH2 0x432 PUSH0 DUP4 ADD DUP5 PUSH2 0x410 JUMP JUMPDEST SWAP3 SWAP2 POP POP JUMP JUMPDEST PUSH2 0x441 DUP2 PUSH2 0x356 JUMP JUMPDEST DUP2 EQ PUSH2 0x44B JUMPI PUSH0 PUSH0 REVERT JUMPDEST POP JUMP JUMPDEST PUSH0 DUP2 CALLDATALOAD SWAP1 POP PUSH2 0x45C DUP2 PUSH2 0x438 JUMP JUMPDEST SWAP3 SWAP2 POP POP JUMP JUMPDEST PUSH0 PUSH1 0x20 DUP3 DUP5 SUB SLT ISZERO PUSH2 0x477 JUMPI PUSH2 0x476 PUSH2 0x387 JUMP JUMPDEST JUMPDEST PUSH0 PUSH2 0x484 DUP5 DUP3 DUP6 ADD PUSH2 0x44E JUMP JUMPDEST SWAP2 POP POP SWAP3 SWAP2 POP POP JUMP JUMPDEST PUSH0 DUP2 ISZERO ISZERO SWAP1 POP SWAP2 SWAP1 POP JUMP JUMPDEST PUSH2 0x4A1 DUP2 PUSH2 0x48D JUMP JUMPDEST DUP3 MSTORE POP POP JUMP JUMPDEST PUSH0 PUSH1 0x20 DUP3 ADD SWAP1 POP PUSH2 0x4BA PUSH0 DUP4 ADD DUP5 PUSH2 0x498 JUMP JUMPDEST SWAP3 SWAP2 POP POP JUMP JUMPDEST PUSH0 DUP3 DUP3 MSTORE PUSH1 0x20 DUP3 ADD SWAP1 POP SWAP3 SWAP2 POP POP JUMP JUMPDEST PUSH32 0x4E6F7420656E6F75676820455448000000000000000000000000000000000000 PUSH0 DUP3 ADD MSTORE POP JUMP JUMPDEST PUSH0 PUSH2 0x504 PUSH1 0xE DUP4 PUSH2 0x4C0 JUMP JUMPDEST SWAP2 POP PUSH2 0x50F DUP3 PUSH2 0x4D0 JUMP JUMPDEST PUSH1 0x20 DUP3 ADD SWAP1 POP SWAP2 SWAP1 POP JUMP JUMPDEST PUSH0 PUSH1 0x20 DUP3 ADD SWAP1 POP DUP2 DUP2 SUB PUSH0 DUP4 ADD MSTORE PUSH2 0x531 DUP2 PUSH2 0x4F8 JUMP JUMPDEST SWAP1 POP SWAP2 SWAP1 POP JUMP JUMPDEST PUSH32 0x4E487B7100000000000000000000000000000000000000000000000000000000 PUSH0 MSTORE PUSH1 0x11 PUSH1 0x4 MSTORE PUSH1 0x24 PUSH0 REVERT JUMPDEST PUSH0 PUSH2 0x56F DUP3 PUSH2 0x356 JUMP JUMPDEST SWAP2 POP PUSH2 0x57A DUP4 PUSH2 0x356 JUMP JUMPDEST SWAP3 POP DUP3 DUP3 ADD SWAP1 POP DUP1 DUP3 GT ISZERO PUSH2 0x592 JUMPI PUSH2 0x591 PUSH2 0x538 JUMP JUMPDEST JUMPDEST SWAP3 SWAP2 POP POP JUMP JUMPDEST PUSH32 0x4F6E6C79206F776E657200000000000000000000000000000000000000000000 PUSH0 DUP3 ADD MSTORE POP JUMP JUMPDEST PUSH0 PUSH2 0x5CC PUSH1 0xA DUP4 PUSH2 0x4C0 JUMP JUMPDEST SWAP2 POP PUSH2 0x5D7 DUP3 PUSH2 0x598 JUMP JUMPDEST PUSH1 0x20 DUP3 ADD SWAP1 POP SWAP2 SWAP1 POP JUMP JUMPDEST PUSH0 PUSH1 0x20 DUP3 ADD SWAP1 POP DUP2 DUP2 SUB PUSH0 DUP4 ADD MSTORE PUSH2 0x5F9 DUP2 PUSH2 0x5C0 JUMP JUMPDEST SWAP1 POP SWAP2 SWAP1 POP JUMP INVALID LOG2 PUSH5 0x6970667358 0x22 SLT KECCAK256 0x1E DUP14 0xAA EQ 0xDC 0x4D 0xAD 0x24 EXTCALL 0xB6 0x28 BLOBHASH 0xCD 0xDC MSTORE8 PUSH20 0xD7BD6B5B50AD39F435DCBEC26B538DDA64736F6C PUSH4 0x4300081E STOP CALLER "
		},
		"gasEstimates": {
			"creation": {
				"codeDepositCost": "318000",
				"executionCost": "infinite",
				"totalCost": "infinite"
			},
			"external": {
				"changePrice(uint256)": "24727",
				"duration()": "2426",
				"isSubscribed(address)": "2906",
				"owner()": "2552",
				"price()": "2447",
				"subscribe()": "infinite",
				"subscriptionEnd(address)": "2825"
			}
		},
		"methodIdentifiers": {
			"changePrice(uint256)": "a2b40d19",
			"duration()": "0fb5a6b4",
			"isSubscribed(address)": "b92ae87c",
			"owner()": "8da5cb5b",
			"price()": "a035b1fe",
			"subscribe()": "8f449a05",
			"subscriptionEnd(address)": "3a06db1e"
		}
	},
	"abi": [
		{
			"inputs": [
				{
					"internalType": "uint256",
					"name": "_price",
					"type": "uint256"
				}
			],
			"stateMutability": "nonpayable",
			"type": "constructor"
		},
		{
			"inputs": [
				{
					"internalType": "uint256",
					"name": "_newPrice",
					"type": "uint256"
				}
			],
			"name": "changePrice",
			"outputs": [],
			"stateMutability": "nonpayable",
			"type": "function"
		},
		{
			"inputs": [],
			"name": "duration",
			"outputs": [
				{
					"internalType": "uint256",
					"name": "",
					"type": "uint256"
				}
			],
			"stateMutability": "view",
			"type": "function"
		},
		{
			"inputs": [
				{
					"internalType": "address",
					"name": "user",
					"type": "address"
				}
			],
			"name": "isSubscribed",
			"outputs": [
				{
					"internalType": "bool",
					"name": "",
					"type": "bool"
				}
			],
			"stateMutability": "view",
			"type": "function"
		},
		{
			"inputs": [],
			"name": "owner",
			"outputs": [
				{
					"internalType": "address",
					"name": "",
					"type": "address"
				}
			],
			"stateMutability": "view",
			"type": "function"
		},
		{
			"inputs": [],
			"name": "price",
			"outputs": [
				{
					"internalType": "uint256",
					"name": "",
					"type": "uint256"
				}
			],
			"stateMutability": "view",
			"type": "function"
		},
		{
			"inputs": [],
			"name": "subscribe",
			"outputs": [],
			"stateMutability": "payable",
			"type": "function"
		},
		{
			"inputs": [
				{
					"internalType": "address",
					"name": "",
					"type": "address"
				}
			],
			"name": "subscriptionEnd",
			"outputs": [
				{
					"internalType": "uint256",
					"name": "",
					"type": "uint256"
				}
			],
			"stateMutability": "view",
			"type": "function"
		}
	]
}