{
	"data": {
		"bytecode": {
			"linkReferences": {},
			"object": "6080604052348015600e575f5ffd5b50610b2d8061001c5f395ff3fe608060405234801561000f575f5ffd5b506004361061003f575f3560e01c806304a87e3814610043578063560f319214610061578063672385621461007d575b5f5ffd5b61004b610099565b60405161005891906103eb565b60405180910390f35b61007b6004803603810190610076919061044f565b61016c565b005b610097600480360381019061009291906105a6565b610234565b005b60605f805480602002602001604051908101604052809291908181526020015f905b82821015610163578382905f5260205f200180546100d89061061a565b80601f01602080910402602001604051908101604052809291908181526020018280546101049061061a565b801561014f5780601f106101265761010080835404028352916020019161014f565b820191905f5260205f20905b81548152906001019060200180831161013257829003601f168201915b5050505050815260200190600101906100bb565b50505050905090565b5f8054905081106101b2576040517f08c379a00000000000000000000000000000000000000000000000000000000081526004016101a9906106a4565b60405180910390fd5b5f60015f805490506101c491906106ef565b815481106101d5576101d4610722565b5b905f5260205f20015f82815481106101f0576101ef610722565b5b905f5260205f200190816102049190610916565b505f805480610216576102156109fb565b5b600190038181905f5260205f20015f61022f9190610268565b905550565b5f81908060018154018082558091505060019003905f5260205f20015f9091909190915090816102649190610a28565b5050565b5080546102749061061a565b5f825580601f1061028557506102a2565b601f0160209004905f5260205f20908101906102a191906102a5565b5b50565b5b808211156102bc575f815f9055506001016102a6565b5090565b5f81519050919050565b5f82825260208201905092915050565b5f819050602082019050919050565b5f81519050919050565b5f82825260208201905092915050565b8281835e5f83830152505050565b5f601f19601f8301169050919050565b5f61032b826102e9565b61033581856102f3565b9350610345818560208601610303565b61034e81610311565b840191505092915050565b5f6103648383610321565b905092915050565b5f602082019050919050565b5f610382826102c0565b61038c81856102ca565b93508360208202850161039e856102da565b805f5b858110156103d957848403895281516103ba8582610359565b94506103c58361036c565b925060208a019950506001810190506103a1565b50829750879550505050505092915050565b5f6020820190508181035f8301526104038184610378565b905092915050565b5f604051905090565b5f5ffd5b5f5ffd5b5f819050919050565b61042e8161041c565b8114610438575f5ffd5b50565b5f8135905061044981610425565b92915050565b5f6020828403121561046457610463610414565b5b5f6104718482850161043b565b91505092915050565b5f5ffd5b5f5ffd5b7f4e487b71000000000000000000000000000000000000000000000000000000005f52604160045260245ffd5b6104b882610311565b810181811067ffffffffffffffff821117156104d7576104d6610482565b5b80604052505050565b5f6104e961040b565b90506104f582826104af565b919050565b5f67ffffffffffffffff82111561051457610513610482565b5b61051d82610311565b9050602081019050919050565b828183375f83830152505050565b5f61054a610545846104fa565b6104e0565b9050828152602081018484840111156105665761056561047e565b5b61057184828561052a565b509392505050565b5f82601f83011261058d5761058c61047a565b5b813561059d848260208601610538565b91505092915050565b5f602082840312156105bb576105ba610414565b5b5f82013567ffffffffffffffff8111156105d8576105d7610418565b5b6105e484828501610579565b91505092915050565b7f4e487b71000000000000000000000000000000000000000000000000000000005f52602260045260245ffd5b5f600282049050600182168061063157607f821691505b602082108103610644576106436105ed565b5b50919050565b5f82825260208201905092915050565b7f496e76616c696420696e646578000000000000000000000000000000000000005f82015250565b5f61068e600d8361064a565b91506106998261065a565b602082019050919050565b5f6020820190508181035f8301526106bb81610682565b9050919050565b7f4e487b71000000000000000000000000000000000000000000000000000000005f52601160045260245ffd5b5f6106f98261041c565b91506107048361041c565b925082820390508181111561071c5761071b6106c2565b5b92915050565b7f4e487b71000000000000000000000000000000000000000000000000000000005f52603260045260245ffd5b5f8154905061075d8161061a565b9050919050565b5f819050815f5260205f209050919050565b5f819050815f5260205f209050919050565b5f6020601f8301049050919050565b5f82821b905092915050565b5f600883026107d27fffffffffffffffffffffffffffffffffffffffffffffffffffffffffffffffff82610797565b6107dc8683610797565b95508019841693508086168417925050509392505050565b5f819050919050565b5f61081761081261080d8461041c565b6107f4565b61041c565b9050919050565b5f819050919050565b610830836107fd565b61084461083c8261081e565b8484546107a3565b825550505050565b5f5f905090565b61085b61084c565b610866818484610827565b505050565b5b818110156108895761087e5f82610853565b60018101905061086c565b5050565b601f8211156108ce5761089f81610764565b6108a884610788565b810160208510156108b7578190505b6108cb6108c385610788565b83018261086b565b50505b505050565b5f82821c905092915050565b5f6108ee5f19846008026108d3565b1980831691505092915050565b5f61090683836108df565b9150826002028217905092915050565b8181036109245750506109f9565b61092d8261074f565b67ffffffffffffffff81111561094657610945610482565b5b610950825461061a565b61095b82828561088d565b5f601f831160018114610988575f8415610976578287015490505b61098085826108fb565b8655506109f2565b601f19841661099687610776565b96506109a186610764565b5f5b828110156109c8578489015482556001820191506001850194506020810190506109a3565b868310156109e557848901546109e1601f8916826108df565b8355505b6001600288020188555050505b5050505050505b565b7f4e487b71000000000000000000000000000000000000000000000000000000005f52603160045260245ffd5b610a31826102e9565b67ffffffffffffffff811115610a4a57610a49610482565b5b610a54825461061a565b610a5f82828561088d565b5f60209050601f831160018114610a90575f8415610a7e578287015190505b610a8885826108fb565b865550610aef565b601f198416610a9e86610764565b5f5b82811015610ac557848901518255600182019150602085019450602081019050610aa0565b86831015610ae25784890151610ade601f8916826108df565b8355505b6001600288020188555050505b50505050505056fea26469706673582212209ab2f2c67caf8421d348f910f6d549dcacd63869f23ecf0b7d9e027967550d0764736f6c634300081e0033",
			"opcodes": "PUSH1 0x80 PUSH1 0x40 MSTORE CALLVALUE DUP1 ISZERO PUSH1 0xE JUMPI PUSH0 PUSH0 REVERT JUMPDEST POP PUSH2 0xB2D DUP1 PUSH2 0x1C PUSH0 CODECOPY PUSH0 RETURN INVALID PUSH1 0x80 PUSH1 0x40 MSTORE CALLVALUE DUP1 ISZERO PUSH2 0xF JUMPI PUSH0 PUSH0 REVERT JUMPDEST POP PUSH1 0x4 CALLDATASIZE LT PUSH2 0x3F JUMPI PUSH0 CALLDATALOAD PUSH1 0xE0 SHR DUP1 PUSH4 0x4A87E38 EQ PUSH2 0x43 JUMPI DUP1 PUSH4 0x560F3192 EQ PUSH2 0x61 JUMPI DUP1 PUSH4 0x67238562 EQ PUSH2 0x7D JUMPI JUMPDEST PUSH0 PUSH0 REVERT JUMPDEST PUSH2 0x4B PUSH2 0x99 JUMP JUMPDEST PUSH1 0x40 MLOAD PUSH2 0x58 SWAP2 SWAP1 PUSH2 0x3EB JUMP JUMPDEST PUSH1 0x40 MLOAD DUP1 SWAP2 SUB SWAP1 RETURN JUMPDEST PUSH2 0x7B PUSH1 0x4 DUP1 CALLDATASIZE SUB DUP2 ADD SWAP1 PUSH2 0x76 SWAP2 SWAP1 PUSH2 0x44F JUMP JUMPDEST PUSH2 0x16C JUMP JUMPDEST STOP JUMPDEST PUSH2 0x97 PUSH1 0x4 DUP1 CALLDATASIZE SUB DUP2 ADD SWAP1 PUSH2 0x92 SWAP2 SWAP1 PUSH2 0x5A6 JUMP JUMPDEST PUSH2 0x234 JUMP JUMPDEST STOP JUMPDEST PUSH1 0x60 PUSH0 DUP1 SLOAD DUP1 PUSH1 0x20 MUL PUSH1 0x20 ADD PUSH1 0x40 MLOAD SWAP1 DUP2 ADD PUSH1 0x40 MSTORE DUP1 SWAP3 SWAP2 SWAP1 DUP2 DUP2 MSTORE PUSH1 0x20 ADD PUSH0 SWAP1 JUMPDEST DUP3 DUP3 LT ISZERO PUSH2 0x163 JUMPI DUP4 DUP3 SWAP1 PUSH0 MSTORE PUSH1 0x20 PUSH0 KECCAK256 ADD DUP1 SLOAD PUSH2 0xD8 SWAP1 PUSH2 0x61A JUMP JUMPDEST DUP1 PUSH1 0x1F ADD PUSH1 0x20 DUP1 SWAP2 DIV MUL PUSH1 0x20 ADD PUSH1 0x40 MLOAD SWAP1 DUP2 ADD PUSH1 0x40 MSTORE DUP1 SWAP3 SWAP2 SWAP1 DUP2 DUP2 MSTORE PUSH1 0x20 ADD DUP3 DUP1 SLOAD PUSH2 0x104 SWAP1 PUSH2 0x61A JUMP JUMPDEST DUP1 ISZERO PUSH2 0x14F JUMPI DUP1 PUSH1 0x1F LT PUSH2 0x126 JUMPI PUSH2 0x100 DUP1 DUP4 SLOAD DIV MUL DUP4 MSTORE SWAP2 PUSH1 0x20 ADD SWAP2 PUSH2 0x14F JUMP JUMPDEST DUP3 ADD SWAP2 SWAP1 PUSH0 MSTORE PUSH1 0x20 PUSH0 KECCAK256 SWAP1 JUMPDEST DUP2 SLOAD DUP2 MSTORE SWAP1 PUSH1 0x1 ADD SWAP1 PUSH1 0x20 ADD DUP1 DUP4 GT PUSH2 0x132 JUMPI DUP3 SWAP1 SUB PUSH1 0x1F AND DUP3 ADD SWAP2 JUMPDEST POP POP POP POP POP DUP2 MSTORE PUSH1 0x20 ADD SWAP1 PUSH1 0x1 ADD SWAP1 PUSH2 0xBB JUMP JUMPDEST POP POP POP POP SWAP1 POP SWAP1 JUMP JUMPDEST PUSH0 DUP1 SLOAD SWAP1 POP DUP2 LT PUSH2 0x1B2 JUMPI PUSH1 0x40 MLOAD PUSH32 0x8C379A000000000000000000000000000000000000000000000000000000000 DUP2 MSTORE PUSH1 0x4 ADD PUSH2 0x1A9 SWAP1 PUSH2 0x6A4 JUMP JUMPDEST PUSH1 0x40 MLOAD DUP1 SWAP2 SUB SWAP1 REVERT JUMPDEST PUSH0 PUSH1 0x1 PUSH0 DUP1 SLOAD SWAP1 POP PUSH2 0x1C4 SWAP2 SWAP1 PUSH2 0x6EF JUMP JUMPDEST DUP2 SLOAD DUP2 LT PUSH2 0x1D5 JUMPI PUSH2 0x1D4 PUSH2 0x722 JUMP JUMPDEST JUMPDEST SWAP1 PUSH0 MSTORE PUSH1 0x20 PUSH0 KECCAK256 ADD PUSH0 DUP3 DUP2 SLOAD DUP2 LT PUSH2 0x1F0 JUMPI PUSH2 0x1EF PUSH2 0x722 JUMP JUMPDEST JUMPDEST SWAP1 PUSH0 MSTORE PUSH1 0x20 PUSH0 KECCAK256 ADD SWAP1 DUP2 PUSH2 0x204 SWAP2 SWAP1 PUSH2 0x916 JUMP JUMPDEST POP PUSH0 DUP1 SLOAD DUP1 PUSH2 0x216 JUMPI PUSH2 0x215 PUSH2 0x9FB JUMP JUMPDEST JUMPDEST PUSH1 0x1 SWAP1 SUB DUP2 DUP2 SWAP1 PUSH0 MSTORE PUSH1 0x20 PUSH0 KECCAK256 ADD PUSH0 PUSH2 0x22F SWAP2 SWAP1 PUSH2 0x268 JUMP JUMPDEST SWAP1 SSTORE POP JUMP JUMPDEST PUSH0 DUP2 SWAP1 DUP1 PUSH1 0x1 DUP2 SLOAD ADD DUP1 DUP3 SSTORE DUP1 SWAP2 POP POP PUSH1 0x1 SWAP1 SUB SWAP1 PUSH0 MSTORE PUSH1 0x20 PUSH0 KECCAK256 ADD PUSH0 SWAP1 SWAP2 SWAP1 SWAP2 SWAP1 SWAP2 POP SWAP1 DUP2 PUSH2 0x264 SWAP2 SWAP1 PUSH2 0xA28 JUMP JUMPDEST POP POP JUMP JUMPDEST POP DUP1 SLOAD PUSH2 0x274 SWAP1 PUSH2 0x61A JUMP JUMPDEST PUSH0 DUP3 SSTORE DUP1 PUSH1 0x1F LT PUSH2 0x285 JUMPI POP PUSH2 0x2A2 JUMP JUMPDEST PUSH1 0x1F ADD PUSH1 0x20 SWAP1 DIV SWAP1 PUSH0 MSTORE PUSH1 0x20 PUSH0 KECCAK256 SWAP1 DUP2 ADD SWAP1 PUSH2 0x2A1 SWAP2 SWAP1 PUSH2 0x2A5 JUMP JUMPDEST JUMPDEST POP JUMP JUMPDEST JUMPDEST DUP1 DUP3 GT ISZERO PUSH2 0x2BC JUMPI PUSH0 DUP2 PUSH0 SWAP1 SSTORE POP PUSH1 0x1 ADD PUSH2 0x2A6 JUMP JUMPDEST POP SWAP1 JUMP JUMPDEST PUSH0 DUP2 MLOAD SWAP1 POP SWAP2 SWAP1 POP JUMP JUMPDEST PUSH0 DUP3 DUP3 MSTORE PUSH1 0x20 DUP3 ADD SWAP1 POP SWAP3 SWAP2 POP POP JUMP JUMPDEST PUSH0 DUP2 SWAP1 POP PUSH1 0x20 DUP3 ADD SWAP1 POP SWAP2 SWAP1 POP JUMP JUMPDEST PUSH0 DUP2 MLOAD SWAP1 POP SWAP2 SWAP1 POP JUMP JUMPDEST PUSH0 DUP3 DUP3 MSTORE PUSH1 0x20 DUP3 ADD SWAP1 POP SWAP3 SWAP2 POP POP JUMP JUMPDEST DUP3 DUP2 DUP4 MCOPY PUSH0 DUP4 DUP4 ADD MSTORE POP POP POP JUMP JUMPDEST PUSH0 PUSH1 0x1F NOT PUSH1 0x1F DUP4 ADD AND SWAP1 POP SWAP2 SWAP1 POP JUMP JUMPDEST PUSH0 PUSH2 0x32B DUP3 PUSH2 0x2E9 JUMP JUMPDEST PUSH2 0x335 DUP2 DUP6 PUSH2 0x2F3 JUMP JUMPDEST SWAP4 POP PUSH2 0x345 DUP2 DUP6 PUSH1 0x20 DUP7 ADD PUSH2 0x303 JUMP JUMPDEST PUSH2 0x34E DUP2 PUSH2 0x311 JUMP JUMPDEST DUP5 ADD SWAP2 POP POP SWAP3 SWAP2 POP POP JUMP JUMPDEST PUSH0 PUSH2 0x364 DUP4 DUP4 PUSH2 0x321 JUMP JUMPDEST SWAP1 POP SWAP3 SWAP2 POP POP JUMP JUMPDEST PUSH0 PUSH1 0x20 DUP3 ADD SWAP1 POP SWAP2 SWAP1 POP JUMP JUMPDEST PUSH0 PUSH2 0x382 DUP3 PUSH2 0x2C0 JUMP JUMPDEST PUSH2 0x38C DUP2 DUP6 PUSH2 0x2CA JUMP JUMPDEST SWAP4 POP DUP4 PUSH1 0x20 DUP3 MUL DUP6 ADD PUSH2 0x39E DUP6 PUSH2 0x2DA JUMP JUMPDEST DUP1 PUSH0 JUMPDEST DUP6 DUP2 LT ISZERO PUSH2 0x3D9 JUMPI DUP5 DUP5 SUB DUP10 MSTORE DUP2 MLOAD PUSH2 0x3BA DUP6 DUP3 PUSH2 0x359 JUMP JUMPDEST SWAP5 POP PUSH2 0x3C5 DUP4 PUSH2 0x36C JUMP JUMPDEST SWAP3 POP PUSH1 0x20 DUP11 ADD SWAP10 POP POP PUSH1 0x1 DUP2 ADD SWAP1 POP PUSH2 0x3A1 JUMP JUMPDEST POP DUP3 SWAP8 POP DUP8 SWAP6 POP POP POP POP POP POP SWAP3 SWAP2 POP POP JUMP JUMPDEST PUSH0 PUSH1 0x20 DUP3 ADD SWAP1 POP DUP2 DUP2 SUB PUSH0 DUP4 ADD MSTORE PUSH2 0x403 DUP2 DUP5 PUSH2 0x378 JUMP JUMPDEST SWAP1 POP SWAP3 SWAP2 POP POP JUMP JUMPDEST PUSH0 PUSH1 0x40 MLOAD SWAP1 POP SWAP1 JUMP JUMPDEST PUSH0 PUSH0 REVERT JUMPDEST PUSH0 PUSH0 REVERT JUMPDEST PUSH0 DUP2 SWAP1 POP SWAP2 SWAP1 POP JUMP JUMPDEST PUSH2 0x42E DUP2 PUSH2 0x41C JUMP JUMPDEST DUP2 EQ PUSH2 0x438 JUMPI PUSH0 PUSH0 REVERT JUMPDEST POP JUMP JUMPDEST PUSH0 DUP2 CALLDATALOAD SWAP1 POP PUSH2 0x449 DUP2 PUSH2 0x425 JUMP JUMPDEST SWAP3 SWAP2 POP POP JUMP JUMPDEST PUSH0 PUSH1 0x20 DUP3 DUP5 SUB SLT ISZERO PUSH2 0x464 JUMPI PUSH2 0x463 PUSH2 0x414 JUMP JUMPDEST JUMPDEST PUSH0 PUSH2 0x471 DUP5 DUP3 DUP6 ADD PUSH2 0x43B JUMP JUMPDEST SWAP2 POP POP SWAP3 SWAP2 POP POP JUMP JUMPDEST PUSH0 PUSH0 REVERT JUMPDEST PUSH0 PUSH0 REVERT JUMPDEST PUSH32 0x4E487B7100000000000000000000000000000000000000000000000000000000 PUSH0 MSTORE PUSH1 0x41 PUSH1 0x4 MSTORE PUSH1 0x24 PUSH0 REVERT JUMPDEST PUSH2 0x4B8 DUP3 PUSH2 0x311 JUMP JUMPDEST DUP2 ADD DUP2 DUP2 LT PUSH8 0xFFFFFFFFFFFFFFFF DUP3 GT OR ISZERO PUSH2 0x4D7 JUMPI PUSH2 0x4D6 PUSH2 0x482 JUMP JUMPDEST JUMPDEST DUP1 PUSH1 0x40 MSTORE POP POP POP JUMP JUMPDEST PUSH0 PUSH2 0x4E9 PUSH2 0x40B JUMP JUMPDEST SWAP1 POP PUSH2 0x4F5 DUP3 DUP3 PUSH2 0x4AF JUMP JUMPDEST SWAP2 SWAP1 POP JUMP JUMPDEST PUSH0 PUSH8 0xFFFFFFFFFFFFFFFF DUP3 GT ISZERO PUSH2 0x514 JUMPI PUSH2 0x513 PUSH2 0x482 JUMP JUMPDEST JUMPDEST PUSH2 0x51D DUP3 PUSH2 0x311 JUMP JUMPDEST SWAP1 POP PUSH1 0x20 DUP2 ADD SWAP1 POP SWAP2 SWAP1 POP JUMP JUMPDEST DUP3 DUP2 DUP4 CALLDATACOPY PUSH0 DUP4 DUP4 ADD MSTORE POP POP POP JUMP JUMPDEST PUSH0 PUSH2 0x54A PUSH2 0x545 DUP5 PUSH2 0x4FA JUMP JUMPDEST PUSH2 0x4E0 JUMP JUMPDEST SWAP1 POP DUP3 DUP2 MSTORE PUSH1 0x20 DUP2 ADD DUP5 DUP5 DUP5 ADD GT ISZERO PUSH2 0x566 JUMPI PUSH2 0x565 PUSH2 0x47E JUMP JUMPDEST JUMPDEST PUSH2 0x571 DUP5 DUP3 DUP6 PUSH2 0x52A JUMP JUMPDEST POP SWAP4 SWAP3 POP POP POP JUMP JUMPDEST PUSH0 DUP3 PUSH1 0x1F DUP4 ADD SLT PUSH2 0x58D JUMPI PUSH2 0x58C PUSH2 0x47A JUMP JUMPDEST JUMPDEST DUP2 CALLDATALOAD PUSH2 0x59D DUP5 DUP3 PUSH1 0x20 DUP7 ADD PUSH2 0x538 JUMP JUMPDEST SWAP2 POP POP SWAP3 SWAP2 POP POP JUMP JUMPDEST PUSH0 PUSH1 0x20 DUP3 DUP5 SUB SLT ISZERO PUSH2 0x5BB JUMPI PUSH2 0x5BA PUSH2 0x414 JUMP JUMPDEST JUMPDEST PUSH0 DUP3 ADD CALLDATALOAD PUSH8 0xFFFFFFFFFFFFFFFF DUP2 GT ISZERO PUSH2 0x5D8 JUMPI PUSH2 0x5D7 PUSH2 0x418 JUMP JUMPDEST JUMPDEST PUSH2 0x5E4 DUP5 DUP3 DUP6 ADD PUSH2 0x579 JUMP JUMPDEST SWAP2 POP POP SWAP3 SWAP2 POP POP JUMP JUMPDEST PUSH32 0x4E487B7100000000000000000000000000000000000000000000000000000000 PUSH0 MSTORE PUSH1 0x22 PUSH1 0x4 MSTORE PUSH1 0x24 PUSH0 REVERT JUMPDEST PUSH0 PUSH1 0x2 DUP3 DIV SWAP1 POP PUSH1 0x1 DUP3 AND DUP1 PUSH2 0x631 JUMPI PUSH1 0x7F DUP3 AND SWAP2 POP JUMPDEST PUSH1 0x20 DUP3 LT DUP2 SUB PUSH2 0x644 JUMPI PUSH2 0x643 PUSH2 0x5ED JUMP JUMPDEST JUMPDEST POP SWAP2 SWAP1 POP JUMP JUMPDEST PUSH0 DUP3 DUP3 MSTORE PUSH1 0x20 DUP3 ADD SWAP1 POP SWAP3 SWAP2 POP POP JUMP JUMPDEST PUSH32 0x496E76616C696420696E64657800000000000000000000000000000000000000 PUSH0 DUP3 ADD MSTORE POP JUMP JUMPDEST PUSH0 PUSH2 0x68E PUSH1 0xD DUP4 PUSH2 0x64A JUMP JUMPDEST SWAP2 POP PUSH2 0x699 DUP3 PUSH2 0x65A JUMP JUMPDEST PUSH1 0x20 DUP3 ADD SWAP1 POP SWAP2 SWAP1 POP JUMP JUMPDEST PUSH0 PUSH1 0x20 DUP3 ADD SWAP1 POP DUP2 DUP2 SUB PUSH0 DUP4 ADD MSTORE PUSH2 0x6BB DUP2 PUSH2 0x682 JUMP JUMPDEST SWAP1 POP SWAP2 SWAP1 POP JUMP JUMPDEST PUSH32 0x4E487B7100000000000000000000000000000000000000000000000000000000 PUSH0 MSTORE PUSH1 0x11 PUSH1 0x4 MSTORE PUSH1 0x24 PUSH0 REVERT JUMPDEST PUSH0 PUSH2 0x6F9 DUP3 PUSH2 0x41C JUMP JUMPDEST SWAP2 POP PUSH2 0x704 DUP4 PUSH2 0x41C JUMP JUMPDEST SWAP3 POP DUP3 DUP3 SUB SWAP1 POP DUP2 DUP2 GT ISZERO PUSH2 0x71C JUMPI PUSH2 0x71B PUSH2 0x6C2 JUMP JUMPDEST JUMPDEST SWAP3 SWAP2 POP POP JUMP JUMPDEST PUSH32 0x4E487B7100000000000000000000000000000000000000000000000000000000 PUSH0 MSTORE PUSH1 0x32 PUSH1 0x4 MSTORE PUSH1 0x24 PUSH0 REVERT JUMPDEST PUSH0 DUP2 SLOAD SWAP1 POP PUSH2 0x75D DUP2 PUSH2 0x61A JUMP JUMPDEST SWAP1 POP SWAP2 SWAP1 POP JUMP JUMPDEST PUSH0 DUP2 SWAP1 POP DUP2 PUSH0 MSTORE PUSH1 0x20 PUSH0 KECCAK256 SWAP1 POP SWAP2 SWAP1 POP JUMP JUMPDEST PUSH0 DUP2 SWAP1 POP DUP2 PUSH0 MSTORE PUSH1 0x20 PUSH0 KECCAK256 SWAP1 POP SWAP2 SWAP1 POP JUMP JUMPDEST PUSH0 PUSH1 0x20 PUSH1 0x1F DUP4 ADD DIV SWAP1 POP SWAP2 SWAP1 POP JUMP JUMPDEST PUSH0 DUP3 DUP3 SHL SWAP1 POP SWAP3 SWAP2 POP POP JUMP JUMPDEST PUSH0 PUSH1 0x8 DUP4 MUL PUSH2 0x7D2 PUSH32 0xFFFFFFFFFFFFFFFFFFFFFFFFFFFFFFFFFFFFFFFFFFFFFFFFFFFFFFFFFFFFFFFF DUP3 PUSH2 0x797 JUMP JUMPDEST PUSH2 0x7DC DUP7 DUP4 PUSH2 0x797 JUMP JUMPDEST SWAP6 POP DUP1 NOT DUP5 AND SWAP4 POP DUP1 DUP7 AND DUP5 OR SWAP3 POP POP POP SWAP4 SWAP3 POP POP POP JUMP JUMPDEST PUSH0 DUP2 SWAP1 POP SWAP2 SWAP1 POP JUMP JUMPDEST PUSH0 PUSH2 0x817 PUSH2 0x812 PUSH2 0x80D DUP5 PUSH2 0x41C JUMP JUMPDEST PUSH2 0x7F4 JUMP JUMPDEST PUSH2 0x41C JUMP JUMPDEST SWAP1 POP SWAP2 SWAP1 POP JUMP JUMPDEST PUSH0 DUP2 SWAP1 POP SWAP2 SWAP1 POP JUMP JUMPDEST PUSH2 0x830 DUP4 PUSH2 0x7FD JUMP JUMPDEST PUSH2 0x844 PUSH2 0x83C DUP3 PUSH2 0x81E JUMP JUMPDEST DUP5 DUP5 SLOAD PUSH2 0x7A3 JUMP JUMPDEST DUP3 SSTORE POP POP POP POP JUMP JUMPDEST PUSH0 PUSH0 SWAP1 POP SWAP1 JUMP JUMPDEST PUSH2 0x85B PUSH2 0x84C JUMP JUMPDEST PUSH2 0x866 DUP2 DUP5 DUP5 PUSH2 0x827 JUMP JUMPDEST POP POP POP JUMP JUMPDEST JUMPDEST DUP2 DUP2 LT ISZERO PUSH2 0x889 JUMPI PUSH2 0x87E PUSH0 DUP3 PUSH2 0x853 JUMP JUMPDEST PUSH1 0x1 DUP2 ADD SWAP1 POP PUSH2 0x86C JUMP JUMPDEST POP POP JUMP JUMPDEST PUSH1 0x1F DUP3 GT ISZERO PUSH2 0x8CE JUMPI PUSH2 0x89F DUP2 PUSH2 0x764 JUMP JUMPDEST PUSH2 0x8A8 DUP5 PUSH2 0x788 JUMP JUMPDEST DUP2 ADD PUSH1 0x20 DUP6 LT ISZERO PUSH2 0x8B7 JUMPI DUP2 SWAP1 POP JUMPDEST PUSH2 0x8CB PUSH2 0x8C3 DUP6 PUSH2 0x788 JUMP JUMPDEST DUP4 ADD DUP3 PUSH2 0x86B JUMP JUMPDEST POP POP JUMPDEST POP POP POP JUMP JUMPDEST PUSH0 DUP3 DUP3 SHR SWAP1 POP SWAP3 SWAP2 POP POP JUMP JUMPDEST PUSH0 PUSH2 0x8EE PUSH0 NOT DUP5 PUSH1 0x8 MUL PUSH2 0x8D3 JUMP JUMPDEST NOT DUP1 DUP4 AND SWAP2 POP POP SWAP3 SWAP2 POP POP JUMP JUMPDEST PUSH0 PUSH2 0x906 DUP4 DUP4 PUSH2 0x8DF JUMP JUMPDEST SWAP2 POP DUP3 PUSH1 0x2 MUL DUP3 OR SWAP1 POP SWAP3 SWAP2 POP POP JUMP JUMPDEST DUP2 DUP2 SUB PUSH2 0x924 JUMPI POP POP PUSH2 0x9F9 JUMP JUMPDEST PUSH2 0x92D DUP3 PUSH2 0x74F JUMP JUMPDEST PUSH8 0xFFFFFFFFFFFFFFFF DUP2 GT ISZERO PUSH2 0x946 JUMPI PUSH2 0x945 PUSH2 0x482 JUMP JUMPDEST JUMPDEST PUSH2 0x950 DUP3 SLOAD PUSH2 0x61A JUMP JUMPDEST PUSH2 0x95B DUP3 DUP3 DUP6 PUSH2 0x88D JUMP JUMPDEST PUSH0 PUSH1 0x1F DUP4 GT PUSH1 0x1 DUP2 EQ PUSH2 0x988 JUMPI PUSH0 DUP5 ISZERO PUSH2 0x976 JUMPI DUP3 DUP8 ADD SLOAD SWAP1 POP JUMPDEST PUSH2 0x980 DUP6 DUP3 PUSH2 0x8FB JUMP JUMPDEST DUP7 SSTORE POP PUSH2 0x9F2 JUMP JUMPDEST PUSH1 0x1F NOT DUP5 AND PUSH2 0x996 DUP8 PUSH2 0x776 JUMP JUMPDEST SWAP7 POP PUSH2 0x9A1 DUP7 PUSH2 0x764 JUMP JUMPDEST PUSH0 JUMPDEST DUP3 DUP2 LT ISZERO PUSH2 0x9C8 JUMPI DUP5 DUP10 ADD SLOAD DUP3 SSTORE PUSH1 0x1 DUP3 ADD SWAP2 POP PUSH1 0x1 DUP6 ADD SWAP5 POP PUSH1 0x20 DUP2 ADD SWAP1 POP PUSH2 0x9A3 JUMP JUMPDEST DUP7 DUP4 LT ISZERO PUSH2 0x9E5 JUMPI DUP5 DUP10 ADD SLOAD PUSH2 0x9E1 PUSH1 0x1F DUP10 AND DUP3 PUSH2 0x8DF JUMP JUMPDEST DUP4 SSTORE POP JUMPDEST PUSH1 0x1 PUSH1 0x2 DUP9 MUL ADD DUP9 SSTORE POP POP POP JUMPDEST POP POP POP POP POP POP JUMPDEST JUMP JUMPDEST PUSH32 0x4E487B7100000000000000000000000000000000000000000000000000000000 PUSH0 MSTORE PUSH1 0x31 PUSH1 0x4 MSTORE PUSH1 0x24 PUSH0 REVERT JUMPDEST PUSH2 0xA31 DUP3 PUSH2 0x2E9 JUMP JUMPDEST PUSH8 0xFFFFFFFFFFFFFFFF DUP2 GT ISZERO PUSH2 0xA4A JUMPI PUSH2 0xA49 PUSH2 0x482 JUMP JUMPDEST JUMPDEST PUSH2 0xA54 DUP3 SLOAD PUSH2 0x61A JUMP JUMPDEST PUSH2 0xA5F DUP3 DUP3 DUP6 PUSH2 0x88D JUMP JUMPDEST PUSH0 PUSH1 0x20 SWAP1 POP PUSH1 0x1F DUP4 GT PUSH1 0x1 DUP2 EQ PUSH2 0xA90 JUMPI PUSH0 DUP5 ISZERO PUSH2 0xA7E JUMPI DUP3 DUP8 ADD MLOAD SWAP1 POP JUMPDEST PUSH2 0xA88 DUP6 DUP3 PUSH2 0x8FB JUMP JUMPDEST DUP7 SSTORE POP PUSH2 0xAEF JUMP JUMPDEST PUSH1 0x1F NOT DUP5 AND PUSH2 0xA9E DUP7 PUSH2 0x764 JUMP JUMPDEST PUSH0 JUMPDEST DUP3 DUP2 LT ISZERO PUSH2 0xAC5 JUMPI DUP5 DUP10 ADD MLOAD DUP3 SSTORE PUSH1 0x1 DUP3 ADD SWAP2 POP PUSH1 0x20 DUP6 ADD SWAP5 POP PUSH1 0x20 DUP2 ADD SWAP1 POP PUSH2 0xAA0 JUMP JUMPDEST DUP7 DUP4 LT ISZERO PUSH2 0xAE2 JUMPI DUP5 DUP10 ADD MLOAD PUSH2 0xADE PUSH1 0x1F DUP10 AND DUP3 PUSH2 0x8DF JUMP JUMPDEST DUP4 SSTORE POP JUMPDEST PUSH1 0x1 PUSH1 0x2 DUP9 MUL ADD DUP9 SSTORE POP POP POP JUMPDEST POP POP POP POP POP POP JUMP INVALID LOG2 PUSH5 0x6970667358 0x22 SLT KECCAK256 SWAP11 0xB2 CALLCODE 0xC6 PUSH29 0xAF8421D348F910F6D549DCACD63869F23ECF0B7D9E027967550D076473 PUSH16 0x6C634300081E00330000000000000000 "
		},
		"gasEstimates": {
			"creation": {
				"codeDepositCost": "572200",
				"executionCost": "604",
				"totalCost": "572804"
			},
			"external": {
				"addTask(string)": "infinite",
				"deleteTask(uint256)": "infinite",
				"getTasks()": "infinite"
			}
		},
		"methodIdentifiers": {
			"addTask(string)": "67238562",
			"deleteTask(uint256)": "560f3192",
			"getTasks()": "04a87e38"
		}
	},
	"abi": [
		{
			"inputs": [
				{
					"internalType": "string",
					"name": "_task",
					"type": "string"
				}
			],
			"name": "addTask",
			"outputs": [],
			"stateMutability": "nonpayable",
			"type": "function"
		},
		{
			"inputs": [
				{
					"internalType": "uint256",
					"name": "index",
					"type": "uint256"
				}
			],
			"name": "deleteTask",
			"outputs": [],
			"stateMutability": "nonpayable",
			"type": "function"
		},
		{
			"inputs": [],
			"name": "getTasks",
			"outputs": [
				{
					"internalType": "string[]",
					"name": "",
					"type": "string[]"
				}
			],
			"stateMutability": "view",
			"type": "function"
		}
	]
}